{
  "contractName": "WeatherStationOracle",
  "abi": [
    {
      "constant": true,
      "inputs": [
        {
          "name": "_identity",
          "type": "address"
        },
        {
          "name": "_hash",
          "type": "bytes32"
        },
        {
          "name": "_signature",
          "type": "bytes"
        }
      ],
      "name": "verifySignature",
      "outputs": [
        {
          "name": "",
          "type": "bool"
        }
      ],
      "payable": false,
      "stateMutability": "view",
      "type": "function"
    },
    {
      "constant": true,
      "inputs": [],
      "name": "iexecClerk",
      "outputs": [
        {
          "name": "",
          "type": "address"
        }
      ],
      "payable": false,
      "stateMutability": "view",
      "type": "function"
    },
    {
      "constant": true,
      "inputs": [],
      "name": "m_authorizedApp",
      "outputs": [
        {
          "name": "",
          "type": "address"
        }
      ],
      "payable": false,
      "stateMutability": "view",
      "type": "function"
    },
    {
      "constant": false,
      "inputs": [
        {
          "name": "_doracleCallId",
          "type": "bytes32"
        },
        {
          "name": "",
          "type": "bytes"
        }
      ],
      "name": "receiveResult",
      "outputs": [],
      "payable": false,
      "stateMutability": "nonpayable",
      "type": "function"
    },
    {
      "constant": false,
      "inputs": [],
      "name": "renounceOwnership",
      "outputs": [],
      "payable": false,
      "stateMutability": "nonpayable",
      "type": "function"
    },
    {
      "constant": true,
      "inputs": [],
      "name": "m_authorizedDataset",
      "outputs": [
        {
          "name": "",
          "type": "address"
        }
      ],
      "payable": false,
      "stateMutability": "view",
      "type": "function"
    },
    {
      "constant": true,
      "inputs": [],
      "name": "owner",
      "outputs": [
        {
          "name": "",
          "type": "address"
        }
      ],
      "payable": false,
      "stateMutability": "view",
      "type": "function"
    },
    {
      "constant": true,
      "inputs": [],
      "name": "isOwner",
      "outputs": [
        {
          "name": "",
          "type": "bool"
        }
      ],
      "payable": false,
      "stateMutability": "view",
      "type": "function"
    },
    {
      "constant": true,
      "inputs": [],
      "name": "iexecHub",
      "outputs": [
        {
          "name": "",
          "type": "address"
        }
      ],
      "payable": false,
      "stateMutability": "view",
      "type": "function"
    },
    {
      "constant": true,
      "inputs": [],
      "name": "m_authorizedWorkerpool",
      "outputs": [
        {
          "name": "",
          "type": "address"
        }
      ],
      "payable": false,
      "stateMutability": "view",
      "type": "function"
    },
    {
      "constant": true,
      "inputs": [],
      "name": "m_requiredtrust",
      "outputs": [
        {
          "name": "",
          "type": "uint256"
        }
      ],
      "payable": false,
      "stateMutability": "view",
      "type": "function"
    },
    {
      "constant": false,
      "inputs": [
        {
          "name": "newOwner",
          "type": "address"
        }
      ],
      "name": "transferOwnership",
      "outputs": [],
      "payable": false,
      "stateMutability": "nonpayable",
      "type": "function"
    },
    {
      "constant": true,
      "inputs": [],
      "name": "m_requiredtag",
      "outputs": [
        {
          "name": "",
          "type": "bytes32"
        }
      ],
      "payable": false,
      "stateMutability": "view",
      "type": "function"
    },
    {
      "constant": true,
      "inputs": [
        {
          "name": "",
          "type": "bytes32"
        }
      ],
      "name": "locations",
      "outputs": [
        {
          "name": "location",
          "type": "string"
        }
      ],
      "payable": false,
      "stateMutability": "view",
      "type": "function"
    },
    {
      "inputs": [
        {
          "name": "_iexecHubAddr",
          "type": "address"
        }
      ],
      "payable": false,
      "stateMutability": "nonpayable",
      "type": "constructor"
    },
    {
      "anonymous": false,
      "inputs": [
        {
          "indexed": true,
          "name": "id",
          "type": "bytes32"
        },
        {
          "indexed": true,
          "name": "oracleCallID",
          "type": "bytes32"
        },
        {
          "indexed": false,
          "name": "location",
          "type": "string"
        },
        {
          "indexed": false,
          "name": "date",
          "type": "uint256"
        },
        {
          "indexed": false,
          "name": "description",
          "type": "string"
        }
      ],
      "name": "NewWeatherReport",
      "type": "event"
    },
    {
      "anonymous": false,
      "inputs": [
        {
          "indexed": true,
          "name": "doracleCallId",
          "type": "bytes32"
        }
      ],
      "name": "ResultReady",
      "type": "event"
    },
    {
      "anonymous": false,
      "inputs": [
        {
          "indexed": true,
          "name": "previousOwner",
          "type": "address"
        },
        {
          "indexed": true,
          "name": "newOwner",
          "type": "address"
        }
      ],
      "name": "OwnershipTransferred",
      "type": "event"
    },
    {
      "constant": false,
      "inputs": [
        {
          "name": "_authorizedApp",
          "type": "address"
        },
        {
          "name": "_authorizedDataset",
          "type": "address"
        },
        {
          "name": "_authorizedWorkerpool",
          "type": "address"
        },
        {
          "name": "_requiredtag",
          "type": "bytes32"
        },
        {
          "name": "_requiredtrust",
          "type": "uint256"
        }
      ],
      "name": "updateEnv",
      "outputs": [],
      "payable": false,
      "stateMutability": "nonpayable",
      "type": "function"
    },
    {
      "constant": true,
      "inputs": [
        {
          "name": "results",
          "type": "bytes"
        }
      ],
      "name": "decodeResults",
      "outputs": [
        {
          "name": "",
          "type": "uint256"
        },
        {
          "name": "",
          "type": "string"
        },
        {
          "name": "",
          "type": "string"
        }
      ],
      "payable": false,
      "stateMutability": "pure",
      "type": "function"
    },
    {
      "constant": false,
      "inputs": [
        {
          "name": "_oracleCallID",
          "type": "bytes32"
        }
      ],
      "name": "processResult",
      "outputs": [],
      "payable": false,
      "stateMutability": "nonpayable",
      "type": "function"
    },
    {
      "constant": true,
      "inputs": [
        {
          "name": "id",
          "type": "bytes32"
        },
        {
          "name": "date",
          "type": "uint256"
        }
      ],
      "name": "getWeatherReport",
      "outputs": [
        {
          "components": [
            {
              "name": "oracleCallID",
              "type": "bytes32"
            },
            {
              "name": "description",
              "type": "string"
            },
            {
              "name": "historicalData",
              "type": "bool"
            }
          ],
          "name": "",
          "type": "tuple"
        }
      ],
      "payable": false,
      "stateMutability": "view",
      "type": "function"
    }
  ],
  "bytecode": "0x60806040523480156200001157600080fd5b506040516200208638038062002086833981016040819052620000349162000340565b600080546001600160a01b0319163317808255604051839283926001600160a01b0316917f8be0079c531659141344cd1fd0a4f28419497f9722a3daafe3b4186f6b6457e0908290a3600062000093826001600160e01b036200032916565b1115620000bb57600180546001600160a01b0319166001600160a01b03831617905562000275565b6000620000e5731383c16c927c4a853684d1a9c676986f25e221116001600160e01b036200032916565b11156200011857600180546001600160a01b031916731383c16c927c4a853684d1a9c676986f25e2211117905562000275565b60006200014273dbe30645ea7d216c31d09f8c5736fe74de774e636001600160e01b036200032916565b11156200017557600180546001600160a01b03191673dbe30645ea7d216c31d09f8c5736fe74de774e6317905562000275565b60006200018b816001600160e01b036200032916565b1115620001a857600180546001600160a01b031916905562000275565b6000620001d273b3901d04cf645747b99dbbe8f2ee9cb41a89cebf6001600160e01b036200032916565b11156200020557600180546001600160a01b03191673b3901d04cf645747b99dbbe8f2ee9cb41a89cebf17905562000275565b60006200021b816001600160e01b036200032916565b11156200023857600180546001600160a01b031916905562000275565b6040517f08c379a00000000000000000000000000000000000000000000000000000000081526004016200026c90620003a4565b60405180910390fd5b600160009054906101000a90046001600160a01b03166001600160a01b031663b01c68466040518163ffffffff1660e01b815260040160206040518083038186803b158015620002c457600080fd5b505afa158015620002d9573d6000803e3d6000fd5b505050506040513d601f19601f82011682018060405250620002ff919081019062000340565b600280546001600160a01b0319166001600160a01b039290921691909117905550620003eb915050565b3b90565b80516200033a81620003d1565b92915050565b6000602082840312156200035357600080fd5b60006200036184846200032d565b949350505050565b600062000378601383620003b6565b7f696e76616c69642d6875622d6164647265737300000000000000000000000000815260200192915050565b602080825281016200033a8162000369565b90815260200190565b60006001600160a01b0382166200033a565b620003dc81620003bf565b8114620003e857600080fd5b50565b611c8b80620003fb6000396000f3fe608060405234801561001057600080fd5b50600436106101165760003560e01c80638da5cb5b116100a2578063e73482a211610071578063e73482a214610208578063eee9aa8a1461021d578063f2fde38b14610230578063f6eba54714610243578063f9c7e5491461024b57610116565b80638da5cb5b146101e85780638f32d59b146101f0578063a41f45e9146101f8578063ca2ef3c41461020057610116565b8063482fb13e116100e9578063482fb13e1461018e57806356e484e1146101a35780635dd80855146101c5578063715018a6146101d857806378dd4ae5146101e057610116565b8063017519981461011b57806318a4b2d0146101445780631ce3aa0d1461015957806337a5d9351461016e575b600080fd5b61012e61012936600461158c565b61026b565b60405161013b91906119b3565b60405180910390f35b610157610152366004611517565b610306565b005b610161610347565b60405161013b9190611a48565b61018161017c366004611681565b610356565b60405161013b9190611ac9565b610196610435565b60405161013b91906119a5565b6101b66101b13660046116bb565b610444565b60405161013b93929190611ada565b6101576101d336600461162c565b61046a565b61015761049a565b610196610508565b610196610517565b61012e610527565b610161610538565b610196610547565b610210610556565b60405161013b91906119c1565b61015761022b36600461160e565b61055c565b61015761023e3660046114f1565b61068f565b6102106106bf565b61025e61025936600461160e565b6106c5565b60405161013b9190611a56565b6000610278848484610766565b806102fc5750604051630b135d3f60e11b81526001600160a01b03851690631626ba7e906102ac90869086906004016119cf565b60206040518083038186803b1580156102c457600080fd5b505afa1580156102d8573d6000803e3d6000fd5b505050506040513d601f19601f820116820180604052506102fc91908101906115f0565b90505b9392505050565b61030e610527565b6103335760405162461bcd60e51b815260040161032a90611ab9565b60405180910390fd5b610340858585858561083b565b5050505050565b6002546001600160a01b031681565b61035e610e2e565b6000838152600860209081526040808320858452600190810183529281902081516060810183528154815281850180548451600297821615610100026000190190911696909604601f81018690048602870186019094528386529094919385810193908301828280156104125780601f106103e757610100808354040283529160200191610412565b820191906000526020600020905b8154815290600101906020018083116103f557829003601f168201915b50505091835250506002919091015460ff16151560209091015290505b92915050565b6003546001600160a01b031681565b60006060808380602001905161045d9190810190611775565b9196909550909350915050565b60405183907f28e9507238ce29efc9797f8791b89bf517f253f275a4ab2688a7cd108e40bc7a90600090a2505050565b6104a2610527565b6104be5760405162461bcd60e51b815260040161032a90611ab9565b600080546040516001600160a01b03909116907f8be0079c531659141344cd1fd0a4f28419497f9722a3daafe3b4186f6b6457e0908390a3600080546001600160a01b0319169055565b6004546001600160a01b031681565b6000546001600160a01b03165b90565b6000546001600160a01b0316331490565b6001546001600160a01b031681565b6005546001600160a01b031681565b60075481565b600060608061056d6101b185610884565b81516020808401919091206000818152600883526040808220878352600101909352919091206002015493965091945092509060ff16156105c05760405162461bcd60e51b815260040161032a90611aa9565b84817f9a4eb702493c786480dfcc5d0d36ebc9107cd9be01ab495409fb422c816e9d6e8587866040516105f593929190611a67565b60405180910390a360008181526008602090815260408083208784526001908101835292208781558451610630939190910191850190610e54565b5083421161063f576000610642565b60015b6000828152600860208181526040808420898552600181018352908420600201805460ff19169515159590951790945591849052815284516106879291860190610e54565b505050505050565b610697610527565b6106b35760405162461bcd60e51b815260040161032a90611ab9565b6106bc816108bf565b50565b60065481565b60086020908152600091825260409182902080548351601f6002600019610100600186161502019093169290920491820184900484028101840190945280845290929183919083018282801561075c5780601f106107315761010080835404028352916020019161075c565b820191906000526020600020905b81548152906001019060200180831161073f57829003601f168201915b5050505050905081565b600080600080845160411461078157600093505050506102ff565b50505060208201516040830151606084015160001a601b8110156107a357601b015b8060ff16601b141580156107bb57508060ff16601c14155b156107cc57600093505050506102ff565b600186828585604051600081526020016040526040516107ef9493929190611a0a565b6020604051602081039080840390855afa158015610811573d6000803e3d6000fd5b505050602060405103516001600160a01b0316876001600160a01b03161493505050509392505050565b600380546001600160a01b03199081166001600160a01b039788161790915560048054821695871695909517909455600580549094169290941691909117909155600655600755565b60606000606061089384610940565b915091508181906108b75760405162461bcd60e51b815260040161032a9190611a56565b509392505050565b6001600160a01b0381166108e55760405162461bcd60e51b815260040161032a90611a99565b600080546040516001600160a01b03808516939216917f8be0079c531659141344cd1fd0a4f28419497f9722a3daafe3b4186f6b6457e091a3600080546001600160a01b0319166001600160a01b0392909216919091179055565b6000606061094c610ed2565b60015460405163adccf0d560e01b81526001600160a01b039091169063adccf0d59061097c9087906004016119c1565b60006040518083038186803b15801561099457600080fd5b505afa1580156109a8573d6000803e3d6000fd5b505050506040513d6000823e601f3d908101601f191682016040526109d09190810190611723565b90506109da610f44565b6002546020830151604051635ba430d960e11b81526001600160a01b039092169163b74861b291610a0d916004016119c1565b60006040518083038186803b158015610a2557600080fd5b505afa158015610a39573d6000803e3d6000fd5b505050506040513d6000823e601f3d908101601f19168201604052610a6191908101906116ef565b9050600382516004811115610a7257fe5b14610ab157600060405180604001604052806014815260200173726573756c742d6e6f742d617661696c61626c6560601b815250935093505050610dca565b816101800151604051610ac49190611999565b604051809103902082610160015114610afd576000604051806060016040528060218152602001611c2860219139935093505050610dca565b6003546001600160a01b031615801590610ba2575060035481515160025460408051631a2a7bc760e21b81529051610ba0946001600160a01b03908116949316916368a9ef1c916004808301926020929190829003018186803b158015610b6357600080fd5b505afa158015610b77573d6000803e3d6000fd5b505050506040513d601f19601f82011682018060405250610b9b9190810190611757565b610dcf565b155b15610bdd5760006040518060400160405280601081526020016f0756e617574686f72697a65642d6170760841b815250935093505050610dca565b6004546001600160a01b031615801590610c4a5750600480546020838101515160025460408051631a2a7bc760e21b81529051610c48966001600160a01b0396871696949594909316936368a9ef1c9383810193919291829003018186803b158015610b6357600080fd5b155b15610c89576000604051806040016040528060148152602001731d5b985d5d1a1bdc9a5e99590b59185d185cd95d60621b815250935093505050610dca565b6005546001600160a01b031615801590610cf35750600554604080830151516002548251631a2a7bc760e21b81529251610cf1946001600160a01b03908116949216916368a9ef1c916004808301926020929190829003018186803b158015610b6357600080fd5b155b15610d3b5760006040518060400160405280601781526020017f756e617574686f72697a65642d776f726b6572706f6f6c000000000000000000815250935093505050610dca565b60a081015160065490191615610d7c5760006040518060400160405280600b81526020016a696e76616c69642d74616760a81b815250935093505050610dca565b80606001516007541115610dbd5760006040518060400160405280600d81526020016c1a5b9d985b1a590b5d1c9d5cdd609a1b815250935093505050610dca565b5061018001516001925090505b915091565b6000826001600160a01b0316846001600160a01b031614806102fc5750836001600160a01b031663d202158d610e0485610e22565b846040518363ffffffff1660e01b81526004016102ac9291906119ef565b6001600160a01b031690565b604051806060016040528060008019168152602001606081526020016000151581525090565b828054600181600116156101000203166002900490600052602060002090601f016020900481019282601f10610e9557805160ff1916838001178555610ec2565b82800160010185558215610ec2579182015b82811115610ec2578251825591602001919060010190610ea7565b50610ece929150610fea565b5090565b604080516101a0810190915280600081526020016000801916815260200160008152602001600081526020016000815260200160008152602001600081526020016000801916815260200160008152602001600081526020016060815260200160008019168152602001606081525090565b604051806102a00160405280610f58611004565b8152602001610f65611004565b8152602001610f72611004565b815260200160008152602001600081526020016000801916815260200160006001600160a01b0316815260200160006001600160a01b0316815260200160006001600160a01b031681526020016060815260200160008152602001600081526020016000815260200160008152602001600081525090565b61052491905b80821115610ece5760008155600101610ff0565b604080516060810182526000808252602082018190529181019190915290565b803561042f81611bf4565b805161042f81611bf4565b600082601f83011261104b57600080fd5b815161105e61105982611b34565b611b0e565b9150818183526020840193506020810190508385602084028201111561108357600080fd5b60005b838110156110af5781611099888261102f565b8452506020928301929190910190600101611086565b5050505092915050565b805161042f81611c08565b803561042f81611c11565b805161042f81611c11565b60008083601f8401126110ec57600080fd5b5081356001600160401b0381111561110357600080fd5b60208301915083600182028301111561111b57600080fd5b9250929050565b600082601f83011261113357600080fd5b815161114161105982611b54565b9150808252602083016020830185838301111561115d57600080fd5b611168838284611bba565b50505092915050565b600082601f83011261118257600080fd5b813561119061105982611b54565b915080825260208301602083018583830111156111ac57600080fd5b611168838284611bae565b805161042f81611c1a565b60006102a082840312156111d557600080fd5b6111e06101e0611b0e565b905060006111ee8484611339565b82525060606111ff84848301611339565b60208301525060c061121384828501611339565b604083015250610120611228848285016110cf565b60608301525061014061123d848285016110cf565b608083015250610160611252848285016110cf565b60a0830152506101806112678482850161102f565b60c0830152506101a061127c8482850161102f565b60e0830152506101c06112918482850161102f565b610100830152506101e08201516001600160401b038111156112b257600080fd5b6112be84828501611122565b610120830152506102006112d4848285016110cf565b610140830152506102206112ea848285016110cf565b61016083015250610240611300848285016110cf565b61018083015250610260611316848285016110cf565b6101a08301525061028061132c848285016110cf565b6101c08301525092915050565b60006060828403121561134b57600080fd5b6113556060611b0e565b90506000611363848461102f565b82525060206113748484830161102f565b6020830152506040611388848285016110cf565b60408301525092915050565b60006101a082840312156113a757600080fd5b6113b26101a0611b0e565b905060006113c084846111b7565b82525060206113d1848483016110cf565b60208301525060406113e5848285016110cf565b60408301525060606113f9848285016110cf565b606083015250608061140d848285016110cf565b60808301525060a0611421848285016110cf565b60a08301525060c0611435848285016110cf565b60c08301525060e0611449848285016110cf565b60e08301525061010061145e848285016110cf565b61010083015250610120611474848285016110cf565b610120830152506101408201516001600160401b0381111561149557600080fd5b6114a18482850161103a565b610140830152506101606114b7848285016110cf565b610160830152506101808201516001600160401b038111156114d857600080fd5b6114e484828501611122565b6101808301525092915050565b60006020828403121561150357600080fd5b600061150f8484611024565b949350505050565b600080600080600060a0868803121561152f57600080fd5b600061153b8888611024565b955050602061154c88828901611024565b945050604061155d88828901611024565b935050606061156e888289016110c4565b925050608061157f888289016110c4565b9150509295509295909350565b6000806000606084860312156115a157600080fd5b60006115ad8686611024565b93505060206115be868287016110c4565b92505060408401356001600160401b038111156115da57600080fd5b6115e686828701611171565b9150509250925092565b60006020828403121561160257600080fd5b600061150f84846110b9565b60006020828403121561162057600080fd5b600061150f84846110c4565b60008060006040848603121561164157600080fd5b600061164d86866110c4565b93505060208401356001600160401b0381111561166957600080fd5b611675868287016110da565b92509250509250925092565b6000806040838503121561169457600080fd5b60006116a085856110c4565b92505060206116b1858286016110c4565b9150509250929050565b6000602082840312156116cd57600080fd5b81356001600160401b038111156116e357600080fd5b61150f84828501611171565b60006020828403121561170157600080fd5b81516001600160401b0381111561171757600080fd5b61150f848285016111c2565b60006020828403121561173557600080fd5b81516001600160401b0381111561174b57600080fd5b61150f84828501611394565b60006020828403121561176957600080fd5b600061150f84846110cf565b60008060006060848603121561178a57600080fd5b600061179686866110cf565b93505060208401516001600160401b038111156117b257600080fd5b6117be86828701611122565b92505060408401516001600160401b038111156117da57600080fd5b6115e686828701611122565b6117ef81611b8d565b82525050565b6117ef81611b98565b6117ef81610524565b600061181282611b7b565b61181c8185611b7f565b935061182c818560208601611bba565b61183581611bea565b9093019392505050565b600061184a82611b7b565b6118548185611b88565b9350611864818560208601611bba565b9290920192915050565b6117ef81611ba3565b6000611884602683611b7f565b7f4f776e61626c653a206e6577206f776e657220697320746865207a65726f206181526564647265737360d01b602082015260400192915050565b60006118cc603583611b7f565b7f7265706f727420697320616c7265616479206665746368656420666f7220676981527476656e206c6f636174696f6e20616e642074696d6560581b602082015260400192915050565b6000611923602083611b7f565b7f4f776e61626c653a2063616c6c6572206973206e6f7420746865206f776e6572815260200192915050565b8051600090606084019061196385826117fe565b506020830151848203602086015261197b8282611807565b91505060408301516108b760408601826117f5565b6117ef81611b9d565b60006102ff828461183f565b6020810161042f82846117e6565b6020810161042f82846117f5565b6020810161042f82846117fe565b604081016119dd82856117fe565b81810360208301526102fc8184611807565b604081016119fd82856117fe565b6102ff60208301846117fe565b60808101611a1882876117fe565b611a256020830186611990565b611a3260408301856117fe565b611a3f60608301846117fe565b95945050505050565b6020810161042f828461186e565b602080825281016102ff8184611807565b60608082528101611a788186611807565b9050611a8760208301856117fe565b8181036040830152611a3f8184611807565b6020808252810161042f81611877565b6020808252810161042f816118bf565b6020808252810161042f81611916565b602080825281016102ff818461194f565b60608101611ae882866117fe565b8181036020830152611afa8185611807565b90508181036040830152611a3f8184611807565b6040518181016001600160401b0381118282101715611b2c57600080fd5b604052919050565b60006001600160401b03821115611b4a57600080fd5b5060209081020190565b60006001600160401b03821115611b6a57600080fd5b506020601f91909101601f19160190565b5190565b90815260200190565b919050565b600061042f82610e22565b151590565b60ff1690565b600061042f82611b8d565b82818337506000910152565b60005b83811015611bd5578181015183820152602001611bbd565b83811115611be4576000848401525b50505050565b601f01601f191690565b611bfd81611b8d565b81146106bc57600080fd5b611bfd81611b98565b611bfd81610524565b600581106106bc57600080fdfe726573756c742d6e6f742d76616c6964617465642d62792d636f6e73656e737573a365627a7a72305820decdbf037e38a586a393a8bde66315d53dae6a1027a03531129f86e17e1707df6c6578706572696d656e74616cf564736f6c634300050a0040",
  "source": "pragma solidity ^0.5.8;\npragma experimental ABIEncoderV2;\n\nimport \"openzeppelin-solidity/contracts/ownership/Ownable.sol\";\nimport \"iexec-doracle-base/contracts/IexecDoracle.sol\";\n\ncontract WeatherStationOracle is Ownable, IexecDoracle\n{\n\tstruct WeatherReport\n\t{\n\t\tbytes32 oracleCallID;\n\t\tstring \tdescription;\n\t\tbool\thistoricalData;\n\t}\n\n\tstruct Location\n\t{\n\t\tstring  location;\n\t\tmapping(uint256 => WeatherReport) reports;\n\t}\n\n\tmapping (bytes32 => Location) public locations;\n\t\n\n\tevent NewWeatherReport(\n\t\tbytes32 indexed id,\n\t\tbytes32 indexed oracleCallID,\n\t\tstring \tlocation,\n\t\tuint256 date,\n\t\tstring \tdescription\n\t);\n\n\t// Use _iexecHubAddr to force use of custom iexechub, leave 0x0 for autodetect\n\tconstructor(address _iexecHubAddr)\n\tpublic IexecDoracle(_iexecHubAddr)\n\t{}\n\n\tfunction updateEnv(\n\t  address _authorizedApp\n\t, address _authorizedDataset\n\t, address _authorizedWorkerpool\n\t, bytes32 _requiredtag\n\t, uint256 _requiredtrust\n\t)\n\tpublic onlyOwner\n\t{\n\t\t_iexecDoracleUpdateSettings(_authorizedApp, _authorizedDataset, _authorizedWorkerpool, _requiredtag, _requiredtrust);\n\t}\n\n\tfunction decodeResults(bytes memory results)\n\tpublic pure returns(uint256, string memory, string memory)\n\t{ return abi.decode(results, (uint256, string, string)); }\n\n\tfunction processResult(bytes32 _oracleCallID)\n\tpublic\n\t{\n\t\tuint256       date;\n\t\tstring memory location;\n\t\tstring memory description;\n\n\t\t// Parse results\n\t\t(date, location, description) = decodeResults(_iexecDoracleGetVerifiedResult(_oracleCallID));\n\n\t\t// Process results\n\t\tbytes32 id = keccak256(bytes(location));\n\t\trequire (!locations[id].reports[date].historicalData, \"report is already fetched for given location and time\");\n\t\temit NewWeatherReport(id, _oracleCallID, location, date, description);\n\t\tlocations[id].reports[date].oracleCallID \t= _oracleCallID;\n\t\tlocations[id].reports[date].description     = description;\n\t\tlocations[id].reports[date].historicalData \t= now > date ? true : false;\n\t\tlocations[id].location     \t\t\t\t\t= location;\n\t}\n\n\tfunction getWeatherReport(bytes32 id, uint256 date) public view returns(WeatherReport memory) {\n\t\treturn locations[id].reports[date];\n\t}\n}",
  "sourcePath": "/Volumes/MacintoshHD/Users/Andy/iexec-apps/weather-station-oracle/smart-contract/contracts/WeatherStationOracle.sol",
  "compiler": {
    "name": "solc",
    "version": "0.5.10+commit.5a6ea5b1.Emscripten.clang"
  },
  "schemaVersion": "3.0.11",
  "updatedAt": "2019-10-20T23:35:13.144Z",
  "devdoc": {
    "methods": {
      "isOwner()": {
        "details": "Returns true if the caller is the current owner."
      },
      "owner()": {
        "details": "Returns the address of the current owner."
      },
      "renounceOwnership()": {
        "details": "Leaves the contract without owner. It will not be possible to call `onlyOwner` functions anymore. Can only be called by the current owner.     * > Note: Renouncing ownership will leave the contract without an owner, thereby removing any functionality that is only available to the owner."
      },
      "transferOwnership(address)": {
        "details": "Transfers ownership of the contract to a new account (`newOwner`). Can only be called by the current owner."
      }
    }
  },
  "userdoc": {
    "methods": {}
  }
}