{
  "contractName": "IexecDoracle",
  "abi": [
    {
      "constant": true,
      "inputs": [
        {
          "name": "_identity",
          "type": "address"
        },
        {
          "name": "_hash",
          "type": "bytes32"
        },
        {
          "name": "_signature",
          "type": "bytes"
        }
      ],
      "name": "verifySignature",
      "outputs": [
        {
          "name": "",
          "type": "bool"
        }
      ],
      "payable": false,
      "stateMutability": "view",
      "type": "function"
    },
    {
      "constant": true,
      "inputs": [],
      "name": "iexecClerk",
      "outputs": [
        {
          "name": "",
          "type": "address"
        }
      ],
      "payable": false,
      "stateMutability": "view",
      "type": "function"
    },
    {
      "constant": true,
      "inputs": [],
      "name": "m_authorizedApp",
      "outputs": [
        {
          "name": "",
          "type": "address"
        }
      ],
      "payable": false,
      "stateMutability": "view",
      "type": "function"
    },
    {
      "constant": true,
      "inputs": [],
      "name": "m_authorizedDataset",
      "outputs": [
        {
          "name": "",
          "type": "address"
        }
      ],
      "payable": false,
      "stateMutability": "view",
      "type": "function"
    },
    {
      "constant": true,
      "inputs": [],
      "name": "iexecHub",
      "outputs": [
        {
          "name": "",
          "type": "address"
        }
      ],
      "payable": false,
      "stateMutability": "view",
      "type": "function"
    },
    {
      "constant": true,
      "inputs": [],
      "name": "m_authorizedWorkerpool",
      "outputs": [
        {
          "name": "",
          "type": "address"
        }
      ],
      "payable": false,
      "stateMutability": "view",
      "type": "function"
    },
    {
      "constant": true,
      "inputs": [],
      "name": "m_requiredtrust",
      "outputs": [
        {
          "name": "",
          "type": "uint256"
        }
      ],
      "payable": false,
      "stateMutability": "view",
      "type": "function"
    },
    {
      "constant": true,
      "inputs": [],
      "name": "m_requiredtag",
      "outputs": [
        {
          "name": "",
          "type": "bytes32"
        }
      ],
      "payable": false,
      "stateMutability": "view",
      "type": "function"
    },
    {
      "inputs": [
        {
          "name": "_iexecHubAddr",
          "type": "address"
        }
      ],
      "payable": false,
      "stateMutability": "nonpayable",
      "type": "constructor"
    },
    {
      "anonymous": false,
      "inputs": [
        {
          "indexed": true,
          "name": "doracleCallId",
          "type": "bytes32"
        }
      ],
      "name": "ResultReady",
      "type": "event"
    },
    {
      "constant": false,
      "inputs": [
        {
          "name": "_doracleCallId",
          "type": "bytes32"
        },
        {
          "name": "",
          "type": "bytes"
        }
      ],
      "name": "receiveResult",
      "outputs": [],
      "payable": false,
      "stateMutability": "nonpayable",
      "type": "function"
    }
  ],
  "bytecode": "0x60806040523480156200001157600080fd5b5060405162000ac138038062000ac18339810160408190526200003491620002f6565b8060006200004b826001600160e01b03620002df16565b11156200007357600080546001600160a01b0319166001600160a01b0383161790556200022d565b60006200009d731383c16c927c4a853684d1a9c676986f25e221116001600160e01b03620002df16565b1115620000d057600080546001600160a01b031916731383c16c927c4a853684d1a9c676986f25e221111790556200022d565b6000620000fa73dbe30645ea7d216c31d09f8c5736fe74de774e636001600160e01b03620002df16565b11156200012d57600080546001600160a01b03191673dbe30645ea7d216c31d09f8c5736fe74de774e631790556200022d565b600062000143816001600160e01b03620002df16565b11156200016057600080546001600160a01b03191690556200022d565b60006200018a73b3901d04cf645747b99dbbe8f2ee9cb41a89cebf6001600160e01b03620002df16565b1115620001bd57600080546001600160a01b03191673b3901d04cf645747b99dbbe8f2ee9cb41a89cebf1790556200022d565b6000620001d3816001600160e01b03620002df16565b1115620001f057600080546001600160a01b03191690556200022d565b6040517f08c379a000000000000000000000000000000000000000000000000000000000815260040162000224906200035a565b60405180910390fd5b6000809054906101000a90046001600160a01b03166001600160a01b031663b01c68466040518163ffffffff1660e01b815260040160206040518083038186803b1580156200027b57600080fd5b505afa15801562000290573d6000803e3d6000fd5b505050506040513d601f19601f82011682018060405250620002b69190810190620002f6565b600180546001600160a01b0319166001600160a01b039290921691909117905550620003a19050565b3b90565b8051620002f08162000387565b92915050565b6000602082840312156200030957600080fd5b6000620003178484620002e3565b949350505050565b60006200032e6013836200036c565b7f696e76616c69642d6875622d6164647265737300000000000000000000000000815260200192915050565b60208082528101620002f0816200031f565b90815260200190565b60006001600160a01b038216620002f0565b620003928162000375565b81146200039e57600080fd5b50565b61071080620003b16000396000f3fe608060405234801561001057600080fd5b50600436106100935760003560e01c806378dd4ae51161006657806378dd4ae514610100578063a41f45e914610108578063ca2ef3c414610110578063e73482a214610118578063f6eba5471461012d57610093565b806301751998146100985780631ce3aa0d146100c1578063482fb13e146100d65780635dd80855146100eb575b600080fd5b6100ab6100a63660046103f0565b610135565b6040516100b8919061054a565b60405180910390f35b6100c96101d0565b6040516100b891906105c4565b6100de6101df565b6040516100b8919061053c565b6100fe6100f936600461047b565b6101ee565b005b6100de61021e565b6100c961022d565b6100de61023c565b61012061024b565b6040516100b89190610558565b610120610251565b6000610142848484610257565b806101c65750604051630b135d3f60e11b81526001600160a01b03851690631626ba7e906101769086908690600401610566565b60206040518083038186803b15801561018e57600080fd5b505afa1580156101a2573d6000803e3d6000fd5b505050506040513d601f19601f820116820180604052506101c69190810190610455565b90505b9392505050565b6001546001600160a01b031681565b6002546001600160a01b031681565b60405183907f28e9507238ce29efc9797f8791b89bf517f253f275a4ab2688a7cd108e40bc7a90600090a2505050565b6003546001600160a01b031681565b6000546001600160a01b031681565b6004546001600160a01b031681565b60065481565b60055481565b600080600080845160411461027257600093505050506101c9565b50505060208201516040830151606084015160001a601b81101561029457601b015b8060ff16601b141580156102ac57508060ff16601c14155b156102bd57600093505050506101c9565b600186828585604051600081526020016040526040516102e09493929190610586565b6020604051602081039080840390855afa158015610302573d6000803e3d6000fd5b505050602060405103516001600160a01b0316876001600160a01b03161493505050509392505050565b8035610337816106a4565b92915050565b8051610337816106bb565b8035610337816106c4565b60008083601f84011261036557600080fd5b50813567ffffffffffffffff81111561037d57600080fd5b60208301915083600182028301111561039557600080fd5b9250929050565b600082601f8301126103ad57600080fd5b81356103c06103bb826105f9565b6105d2565b915080825260208301602083018583830111156103dc57600080fd5b6103e783828461065e565b50505092915050565b60008060006060848603121561040557600080fd5b6000610411868661032c565b935050602061042286828701610348565b925050604084013567ffffffffffffffff81111561043f57600080fd5b61044b8682870161039c565b9150509250925092565b60006020828403121561046757600080fd5b6000610473848461033d565b949350505050565b60008060006040848603121561049057600080fd5b600061049c8686610348565b935050602084013567ffffffffffffffff8111156104b957600080fd5b6104c586828701610353565b92509250509250925092565b6104da8161062e565b82525050565b6104da81610639565b6104da8161063e565b60006104fd82610621565b6105078185610625565b935061051781856020860161066a565b6105208161069a565b9093019392505050565b6104da81610653565b6104da8161064d565b6020810161033782846104d1565b6020810161033782846104e0565b6020810161033782846104e9565b6040810161057482856104e9565b81810360208301526101c681846104f2565b6080810161059482876104e9565b6105a16020830186610533565b6105ae60408301856104e9565b6105bb60608301846104e9565b95945050505050565b60208101610337828461052a565b60405181810167ffffffffffffffff811182821017156105f157600080fd5b604052919050565b600067ffffffffffffffff82111561061057600080fd5b506020601f91909101601f19160190565b5190565b90815260200190565b600061033782610641565b151590565b90565b6001600160a01b031690565b60ff1690565b60006103378261062e565b82818337506000910152565b60005b8381101561068557818101518382015260200161066d565b83811115610694576000848401525b50505050565b601f01601f191690565b6106ad8161062e565b81146106b857600080fd5b50565b6106ad81610639565b6106ad8161063e56fea365627a7a723058200b224fa8b95386908abc68ce3c301b0af78a5de4c4ea273c7da67fcc603d35396c6578706572696d656e74616cf564736f6c634300050a0040",
  "source": "pragma solidity ^0.5.8;\npragma experimental ABIEncoderV2;\n\nimport \"iexec-poco/contracts/SignatureVerifier.sol\";\nimport \"iexec-solidity/contracts/ERC1154_OracleInterface/IERC1154.sol\";\nimport \"./IexecInterface.sol\";\n\n\ncontract IexecDoracle is IexecInterface, SignatureVerifier, IOracleConsumer\n{\n\taddress public m_authorizedApp;\n\taddress public m_authorizedDataset;\n\taddress public m_authorizedWorkerpool;\n\tbytes32 public m_requiredtag;\n\tuint256 public m_requiredtrust;\n\n\tevent ResultReady(bytes32 indexed doracleCallId);\n\n\tconstructor(address _iexecHubAddr)\n\tpublic IexecInterface(_iexecHubAddr)\n\t{}\n\n\tfunction receiveResult(bytes32 _doracleCallId, bytes calldata)\n\texternal\n\t{\n\t\temit ResultReady(_doracleCallId);\n\t}\n\n\tfunction _iexecDoracleUpdateSettings(\n\t\taddress _authorizedApp\n\t,\taddress _authorizedDataset\n\t,\taddress _authorizedWorkerpool\n\t, bytes32 _requiredtag\n\t, uint256 _requiredtrust\n\t)\n\tinternal\n\t{\n\t\tm_authorizedApp        = _authorizedApp;\n\t\tm_authorizedDataset    = _authorizedDataset;\n\t\tm_authorizedWorkerpool = _authorizedWorkerpool;\n\t\tm_requiredtag          = _requiredtag;\n\t\tm_requiredtrust        = _requiredtrust;\n\t}\n\n\tfunction _iexecDoracleGetVerifiedResult(bytes32 _doracleCallId)\n\tinternal view returns (bytes memory)\n\t{\n\t\tIexecODBLibCore.Task memory task = iexecHub.viewTask(_doracleCallId);\n\t\tIexecODBLibCore.Deal memory deal = iexecClerk.viewDeal(task.dealid);\n\n\t\trequire(task.status == IexecODBLibCore.TaskStatusEnum.COMPLETED,                                                                                  \"result-not-available\"             );\n\t\trequire(task.resultDigest == keccak256(task.results),                                                                                             \"result-not-validated-by-consensus\");\n\t\trequire(m_authorizedApp        == address(0) || checkIdentity(m_authorizedApp,        deal.app.pointer,        iexecClerk.GROUPMEMBER_PURPOSE()), \"unauthorized-app\"                 );\n\t\trequire(m_authorizedDataset    == address(0) || checkIdentity(m_authorizedDataset,    deal.dataset.pointer,    iexecClerk.GROUPMEMBER_PURPOSE()), \"unauthorized-dataset\"             );\n\t\trequire(m_authorizedWorkerpool == address(0) || checkIdentity(m_authorizedWorkerpool, deal.workerpool.pointer, iexecClerk.GROUPMEMBER_PURPOSE()), \"unauthorized-workerpool\"          );\n\t\trequire(m_requiredtag & ~deal.tag == bytes32(0),                                                                                                  \"invalid-tag\"                      );\n\t\trequire(m_requiredtrust <= deal.trust,                                                                                                            \"invalid-trust\"                    );\n\t\treturn task.results;\n\t}\n}\n",
  "sourcePath": "iexec-doracle-base/contracts/IexecDoracle.sol",
  "compiler": {
    "name": "solc",
    "version": "0.5.10+commit.5a6ea5b1.Emscripten.clang"
  },
  "schemaVersion": "3.0.16",
  "updatedAt": "2019-10-22T00:23:51.992Z",
  "devdoc": {
    "methods": {}
  },
  "userdoc": {
    "methods": {}
  }
}