{
  "contractName": "Migrations",
  "abi": [
    {
      "constant": false,
      "inputs": [],
      "name": "renounceOwnership",
      "outputs": [],
      "payable": false,
      "stateMutability": "nonpayable",
      "type": "function"
    },
    {
      "constant": true,
      "inputs": [],
      "name": "owner",
      "outputs": [
        {
          "name": "",
          "type": "address"
        }
      ],
      "payable": false,
      "stateMutability": "view",
      "type": "function"
    },
    {
      "constant": true,
      "inputs": [],
      "name": "isOwner",
      "outputs": [
        {
          "name": "",
          "type": "bool"
        }
      ],
      "payable": false,
      "stateMutability": "view",
      "type": "function"
    },
    {
      "constant": false,
      "inputs": [
        {
          "name": "newOwner",
          "type": "address"
        }
      ],
      "name": "transferOwnership",
      "outputs": [],
      "payable": false,
      "stateMutability": "nonpayable",
      "type": "function"
    },
    {
      "constant": true,
      "inputs": [],
      "name": "lastCompletedMigration",
      "outputs": [
        {
          "name": "",
          "type": "uint256"
        }
      ],
      "payable": false,
      "stateMutability": "view",
      "type": "function"
    },
    {
      "inputs": [],
      "payable": false,
      "stateMutability": "nonpayable",
      "type": "constructor"
    },
    {
      "anonymous": false,
      "inputs": [
        {
          "indexed": true,
          "name": "previousOwner",
          "type": "address"
        },
        {
          "indexed": true,
          "name": "newOwner",
          "type": "address"
        }
      ],
      "name": "OwnershipTransferred",
      "type": "event"
    },
    {
      "constant": false,
      "inputs": [
        {
          "name": "completed",
          "type": "uint256"
        }
      ],
      "name": "setCompleted",
      "outputs": [],
      "payable": false,
      "stateMutability": "nonpayable",
      "type": "function"
    },
    {
      "constant": false,
      "inputs": [
        {
          "name": "newAddress",
          "type": "address"
        }
      ],
      "name": "upgrade",
      "outputs": [],
      "payable": false,
      "stateMutability": "nonpayable",
      "type": "function"
    }
  ],
  "bytecode": "0x608060405234801561001057600080fd5b50600080546001600160a01b03191633178082556040516001600160a01b039190911691907f8be0079c531659141344cd1fd0a4f28419497f9722a3daafe3b4186f6b6457e0908290a3610470806100696000396000f3fe608060405234801561001057600080fd5b506004361061007d5760003560e01c80638f32d59b1161005b5780638f32d59b146100d6578063f2fde38b146100f2578063fbdbad3c14610118578063fdacd576146101325761007d565b80630900f01014610082578063715018a6146100aa5780638da5cb5b146100b2575b600080fd5b6100a86004803603602081101561009857600080fd5b50356001600160a01b031661014f565b005b6100a86101ff565b6100ba610290565b604080516001600160a01b039092168252519081900360200190f35b6100de61029f565b604080519115158252519081900360200190f35b6100a86004803603602081101561010857600080fd5b50356001600160a01b03166102b0565b610120610303565b60408051918252519081900360200190f35b6100a86004803603602081101561014857600080fd5b5035610309565b61015761029f565b610196576040805162461bcd60e51b8152602060048201819052602482015260008051602061041c833981519152604482015290519081900360640190fd5b6000819050806001600160a01b031663fdacd5766001546040518263ffffffff1660e01b815260040180828152602001915050600060405180830381600087803b1580156101e357600080fd5b505af11580156101f7573d6000803e3d6000fd5b505050505050565b61020761029f565b610246576040805162461bcd60e51b8152602060048201819052602482015260008051602061041c833981519152604482015290519081900360640190fd5b600080546040516001600160a01b03909116907f8be0079c531659141344cd1fd0a4f28419497f9722a3daafe3b4186f6b6457e0908390a3600080546001600160a01b0319169055565b6000546001600160a01b031690565b6000546001600160a01b0316331490565b6102b861029f565b6102f7576040805162461bcd60e51b8152602060048201819052602482015260008051602061041c833981519152604482015290519081900360640190fd5b61030081610355565b50565b60015481565b61031161029f565b610350576040805162461bcd60e51b8152602060048201819052602482015260008051602061041c833981519152604482015290519081900360640190fd5b600155565b6001600160a01b03811661039a5760405162461bcd60e51b81526004018080602001828103825260268152602001806103f66026913960400191505060405180910390fd5b600080546040516001600160a01b03808516939216917f8be0079c531659141344cd1fd0a4f28419497f9722a3daafe3b4186f6b6457e091a3600080546001600160a01b0319166001600160a01b039290921691909117905556fe4f776e61626c653a206e6577206f776e657220697320746865207a65726f20616464726573734f776e61626c653a2063616c6c6572206973206e6f7420746865206f776e6572a265627a7a723058200bcf824c1b72c81a3abc8cb23b7253683d2f715a2d679297a8167a666c78ab5764736f6c634300050a0032",
  "source": "pragma solidity ^0.5.8;\r\n\r\nimport \"openzeppelin-solidity/contracts/ownership/Ownable.sol\";\r\n\r\ncontract Migrations is Ownable\r\n{\r\n\tuint256 public lastCompletedMigration;\r\n\r\n\tconstructor()\r\n\tpublic\r\n\t{\r\n\t}\r\n\r\n\tfunction setCompleted(uint completed) public onlyOwner\r\n\t{\r\n\t\tlastCompletedMigration = completed;\r\n\t}\r\n\r\n\tfunction upgrade(address newAddress) public onlyOwner\r\n\t{\r\n\t\tMigrations upgraded = Migrations(newAddress);\r\n\t\tupgraded.setCompleted(lastCompletedMigration);\r\n\t}\r\n}\r\n",
  "sourcePath": "C:/Users/Dustin/Documents/work/crypto/iexec/iexec-apps/ups-package-tracker/smart-contract/contracts/Migrations.sol",
  "compiler": {
    "name": "solc",
    "version": "0.5.10+commit.5a6ea5b1.Emscripten.clang"
  },
  "schemaVersion": "3.0.16",
  "updatedAt": "2019-10-22T01:27:13.486Z",
  "devdoc": {
    "methods": {
      "isOwner()": {
        "details": "Returns true if the caller is the current owner."
      },
      "owner()": {
        "details": "Returns the address of the current owner."
      },
      "renounceOwnership()": {
        "details": "Leaves the contract without owner. It will not be possible to call `onlyOwner` functions anymore. Can only be called by the current owner.     * > Note: Renouncing ownership will leave the contract without an owner, thereby removing any functionality that is only available to the owner."
      },
      "transferOwnership(address)": {
        "details": "Transfers ownership of the contract to a new account (`newOwner`). Can only be called by the current owner."
      }
    }
  },
  "userdoc": {
    "methods": {}
  }
}