{
  "contractName": "PriceOracle",
  "abi": [
    {
      "constant": true,
      "inputs": [
        {
          "name": "_identity",
          "type": "address"
        },
        {
          "name": "_hash",
          "type": "bytes32"
        },
        {
          "name": "_signature",
          "type": "bytes"
        }
      ],
      "name": "verifySignature",
      "outputs": [
        {
          "name": "",
          "type": "bool"
        }
      ],
      "payable": false,
      "stateMutability": "view",
      "type": "function"
    },
    {
      "constant": true,
      "inputs": [],
      "name": "iexecClerk",
      "outputs": [
        {
          "name": "",
          "type": "address"
        }
      ],
      "payable": false,
      "stateMutability": "view",
      "type": "function"
    },
    {
      "constant": true,
      "inputs": [],
      "name": "m_authorizedApp",
      "outputs": [
        {
          "name": "",
          "type": "address"
        }
      ],
      "payable": false,
      "stateMutability": "view",
      "type": "function"
    },
    {
      "constant": false,
      "inputs": [
        {
          "name": "_doracleCallId",
          "type": "bytes32"
        },
        {
          "name": "",
          "type": "bytes"
        }
      ],
      "name": "receiveResult",
      "outputs": [],
      "payable": false,
      "stateMutability": "nonpayable",
      "type": "function"
    },
    {
      "constant": false,
      "inputs": [],
      "name": "renounceOwnership",
      "outputs": [],
      "payable": false,
      "stateMutability": "nonpayable",
      "type": "function"
    },
    {
      "constant": true,
      "inputs": [],
      "name": "m_authorizedDataset",
      "outputs": [
        {
          "name": "",
          "type": "address"
        }
      ],
      "payable": false,
      "stateMutability": "view",
      "type": "function"
    },
    {
      "constant": true,
      "inputs": [],
      "name": "owner",
      "outputs": [
        {
          "name": "",
          "type": "address"
        }
      ],
      "payable": false,
      "stateMutability": "view",
      "type": "function"
    },
    {
      "constant": true,
      "inputs": [],
      "name": "isOwner",
      "outputs": [
        {
          "name": "",
          "type": "bool"
        }
      ],
      "payable": false,
      "stateMutability": "view",
      "type": "function"
    },
    {
      "constant": true,
      "inputs": [],
      "name": "iexecHub",
      "outputs": [
        {
          "name": "",
          "type": "address"
        }
      ],
      "payable": false,
      "stateMutability": "view",
      "type": "function"
    },
    {
      "constant": true,
      "inputs": [],
      "name": "m_authorizedWorkerpool",
      "outputs": [
        {
          "name": "",
          "type": "address"
        }
      ],
      "payable": false,
      "stateMutability": "view",
      "type": "function"
    },
    {
      "constant": true,
      "inputs": [
        {
          "name": "",
          "type": "bytes32"
        }
      ],
      "name": "values",
      "outputs": [
        {
          "name": "oracleCallID",
          "type": "bytes32"
        },
        {
          "name": "date",
          "type": "uint256"
        },
        {
          "name": "value",
          "type": "uint256"
        },
        {
          "name": "details",
          "type": "string"
        }
      ],
      "payable": false,
      "stateMutability": "view",
      "type": "function"
    },
    {
      "constant": true,
      "inputs": [],
      "name": "m_requiredtrust",
      "outputs": [
        {
          "name": "",
          "type": "uint256"
        }
      ],
      "payable": false,
      "stateMutability": "view",
      "type": "function"
    },
    {
      "constant": false,
      "inputs": [
        {
          "name": "newOwner",
          "type": "address"
        }
      ],
      "name": "transferOwnership",
      "outputs": [],
      "payable": false,
      "stateMutability": "nonpayable",
      "type": "function"
    },
    {
      "constant": true,
      "inputs": [],
      "name": "m_requiredtag",
      "outputs": [
        {
          "name": "",
          "type": "bytes32"
        }
      ],
      "payable": false,
      "stateMutability": "view",
      "type": "function"
    },
    {
      "inputs": [
        {
          "name": "_iexecHubAddr",
          "type": "address"
        }
      ],
      "payable": false,
      "stateMutability": "nonpayable",
      "type": "constructor"
    },
    {
      "anonymous": false,
      "inputs": [
        {
          "indexed": true,
          "name": "id",
          "type": "bytes32"
        },
        {
          "indexed": true,
          "name": "oracleCallID",
          "type": "bytes32"
        },
        {
          "indexed": false,
          "name": "oldDate",
          "type": "uint256"
        },
        {
          "indexed": false,
          "name": "oldValue",
          "type": "uint256"
        },
        {
          "indexed": false,
          "name": "newDate",
          "type": "uint256"
        },
        {
          "indexed": false,
          "name": "newValue",
          "type": "uint256"
        }
      ],
      "name": "ValueUpdated",
      "type": "event"
    },
    {
      "anonymous": false,
      "inputs": [
        {
          "indexed": true,
          "name": "doracleCallId",
          "type": "bytes32"
        }
      ],
      "name": "ResultReady",
      "type": "event"
    },
    {
      "anonymous": false,
      "inputs": [
        {
          "indexed": true,
          "name": "previousOwner",
          "type": "address"
        },
        {
          "indexed": true,
          "name": "newOwner",
          "type": "address"
        }
      ],
      "name": "OwnershipTransferred",
      "type": "event"
    },
    {
      "constant": false,
      "inputs": [
        {
          "name": "_authorizedApp",
          "type": "address"
        },
        {
          "name": "_authorizedDataset",
          "type": "address"
        },
        {
          "name": "_authorizedWorkerpool",
          "type": "address"
        },
        {
          "name": "_requiredtag",
          "type": "bytes32"
        },
        {
          "name": "_requiredtrust",
          "type": "uint256"
        }
      ],
      "name": "updateEnv",
      "outputs": [],
      "payable": false,
      "stateMutability": "nonpayable",
      "type": "function"
    },
    {
      "constant": true,
      "inputs": [
        {
          "name": "results",
          "type": "bytes"
        }
      ],
      "name": "decodeResults",
      "outputs": [
        {
          "name": "",
          "type": "uint256"
        },
        {
          "name": "",
          "type": "string"
        },
        {
          "name": "",
          "type": "uint256"
        }
      ],
      "payable": false,
      "stateMutability": "pure",
      "type": "function"
    },
    {
      "constant": false,
      "inputs": [
        {
          "name": "_oracleCallID",
          "type": "bytes32"
        }
      ],
      "name": "processResult",
      "outputs": [],
      "payable": false,
      "stateMutability": "nonpayable",
      "type": "function"
    }
  ],
  "bytecode": "0x60806040523480156200001157600080fd5b5060405162001f1538038062001f15833981016040819052620000349162000340565b600080546001600160a01b0319163317808255604051839283926001600160a01b0316917f8be0079c531659141344cd1fd0a4f28419497f9722a3daafe3b4186f6b6457e0908290a3600062000093826001600160e01b036200032916565b1115620000bb57600180546001600160a01b0319166001600160a01b03831617905562000275565b6000620000e5731383c16c927c4a853684d1a9c676986f25e221116001600160e01b036200032916565b11156200011857600180546001600160a01b031916731383c16c927c4a853684d1a9c676986f25e2211117905562000275565b60006200014273dbe30645ea7d216c31d09f8c5736fe74de774e636001600160e01b036200032916565b11156200017557600180546001600160a01b03191673dbe30645ea7d216c31d09f8c5736fe74de774e6317905562000275565b60006200018b816001600160e01b036200032916565b1115620001a857600180546001600160a01b031916905562000275565b6000620001d273b3901d04cf645747b99dbbe8f2ee9cb41a89cebf6001600160e01b036200032916565b11156200020557600180546001600160a01b03191673b3901d04cf645747b99dbbe8f2ee9cb41a89cebf17905562000275565b60006200021b816001600160e01b036200032916565b11156200023857600180546001600160a01b031916905562000275565b6040517f08c379a00000000000000000000000000000000000000000000000000000000081526004016200026c90620003a4565b60405180910390fd5b600160009054906101000a90046001600160a01b03166001600160a01b031663b01c68466040518163ffffffff1660e01b815260040160206040518083038186803b158015620002c457600080fd5b505afa158015620002d9573d6000803e3d6000fd5b505050506040513d601f19601f82011682018060405250620002ff919081019062000340565b600280546001600160a01b0319166001600160a01b039290921691909117905550620003eb915050565b3b90565b80516200033a81620003d1565b92915050565b6000602082840312156200035357600080fd5b60006200036184846200032d565b949350505050565b600062000378601383620003b6565b7f696e76616c69642d6875622d6164647265737300000000000000000000000000815260200192915050565b602080825281016200033a8162000369565b90815260200190565b60006001600160a01b0382166200033a565b620003dc81620003bf565b8114620003e857600080fd5b50565b611b1a80620003fb6000396000f3fe608060405234801561001057600080fd5b506004361061010b5760003560e01c80638da5cb5b116100a2578063ccc2195f11610071578063ccc2195f146101dd578063e73482a214610200578063eee9aa8a14610215578063f2fde38b14610228578063f6eba5471461023b5761010b565b80638da5cb5b146101bd5780638f32d59b146101c5578063a41f45e9146101cd578063ca2ef3c4146101d55761010b565b806356e484e1116100de57806356e484e1146101785780635dd808551461019a578063715018a6146101ad57806378dd4ae5146101b55761010b565b8063017519981461011057806318a4b2d0146101395780631ce3aa0d1461014e578063482fb13e14610163575b600080fd5b61012361011e366004611327565b610243565b60405161013091906117ed565b60405180910390f35b61014c6101473660046112b2565b6102de565b005b61015661031f565b60405161013091906118c6565b61016b61032e565b60405161013091906117df565b61018b61018636600461141c565b61033d565b60405161013093929190611974565b61014c6101a83660046113c7565b610364565b61014c610394565b61016b610402565b61016b610411565b610123610421565b610156610432565b61016b610441565b6101f06101eb3660046113a9565b610450565b6040516101309493929190611844565b610208610518565b60405161013091906117fb565b61014c6102233660046113a9565b61051e565b61014c61023636600461128c565b61060c565b61020861063c565b6000610250848484610642565b806102d45750604051630b135d3f60e11b81526001600160a01b03851690631626ba7e906102849086908690600401611809565b60206040518083038186803b15801561029c57600080fd5b505afa1580156102b0573d6000803e3d6000fd5b505050506040513d601f19601f820116820180604052506102d4919081019061138b565b90505b9392505050565b6102e6610421565b61030b5760405162461bcd60e51b815260040161030290611904565b60405180910390fd5b6103188585858585610717565b5050505050565b6002546001600160a01b031681565b6003546001600160a01b031681565b6000606060008380602001905161035791908101906114d6565b9196909550909350915050565b60405183907f28e9507238ce29efc9797f8791b89bf517f253f275a4ab2688a7cd108e40bc7a90600090a2505050565b61039c610421565b6103b85760405162461bcd60e51b815260040161030290611904565b600080546040516001600160a01b03909116907f8be0079c531659141344cd1fd0a4f28419497f9722a3daafe3b4186f6b6457e0908390a3600080546001600160a01b0319169055565b6004546001600160a01b031681565b6000546001600160a01b03165b90565b6000546001600160a01b0316331490565b6001546001600160a01b031681565b6005546001600160a01b031681565b6008602052806000526040600020600091509050806000015490806001015490806002015490806003018054600181600116156101000203166002900480601f01602080910402602001604051908101604052809291908181526020018280546001816001161561010002031660029004801561050e5780601f106104e35761010080835404028352916020019161050e565b820191906000526020600020905b8154815290600101906020018083116104f157829003601f168201915b5050505050905084565b60075481565b60006060600061053061018685610760565b81516020808401919091206000818152600890925260409091206001015493965091945092509084116105755760405162461bcd60e51b815260040161030290611964565b6000818152600860205260409081902060018101546002909101549151879284927febbbe9945700dfb7729b63e18aca7de43331e17e61bcfa214a3e18234f1e12b4926105c692908a9089906119a3565b60405180910390a360008181526008602090815260409091208681556001810186905560028101849055845161060492600390920191860190610be9565b505050505050565b610614610421565b6106305760405162461bcd60e51b815260040161030290611904565b61063981610b09565b50565b60065481565b600080600080845160411461065d57600093505050506102d7565b50505060208201516040830151606084015160001a601b81101561067f57601b015b8060ff16601b1415801561069757508060ff16601c14155b156106a857600093505050506102d7565b600186828585604051600081526020016040526040516106cb9493929190611888565b6020604051602081039080840390855afa1580156106ed573d6000803e3d6000fd5b505050602060405103516001600160a01b0316876001600160a01b03161493505050509392505050565b600380546001600160a01b03199081166001600160a01b039788161790915560048054821695871695909517909455600580549094169290941691909117909155600655600755565b606061076a610c67565b60015460405163adccf0d560e01b81526001600160a01b039091169063adccf0d59061079a9086906004016117fb565b60006040518083038186803b1580156107b257600080fd5b505afa1580156107c6573d6000803e3d6000fd5b505050506040513d6000823e601f3d908101601f191682016040526107ee9190810190611484565b90506107f8610cd9565b6002546020830151604051635ba430d960e11b81526001600160a01b039092169163b74861b29161082b916004016117fb565b60006040518083038186803b15801561084357600080fd5b505afa158015610857573d6000803e3d6000fd5b505050506040513d6000823e601f3d908101601f1916820160405261087f9190810190611450565b905060038251600481111561089057fe5b146108ad5760405162461bcd60e51b815260040161030290611934565b8161018001516040516108c091906117d3565b6040518091039020826101600151146108eb5760405162461bcd60e51b815260040161030290611944565b6003546001600160a01b0316158061098c575060035481515160025460408051631a2a7bc760e21b8152905161098c946001600160a01b03908116949316916368a9ef1c916004808301926020929190829003018186803b15801561094f57600080fd5b505afa158015610963573d6000803e3d6000fd5b505050506040513d601f19601f8201168201806040525061098791908101906114b8565b610b8a565b6109a85760405162461bcd60e51b8152600401610302906118f4565b6004546001600160a01b03161580610a115750600480546020838101515160025460408051631a2a7bc760e21b81529051610a11966001600160a01b0396871696949594909316936368a9ef1c9383810193919291829003018186803b15801561094f57600080fd5b610a2d5760405162461bcd60e51b815260040161030290611914565b6005546001600160a01b03161580610a935750600554604080830151516002548251631a2a7bc760e21b81529251610a93946001600160a01b03908116949216916368a9ef1c916004808301926020929190829003018186803b15801561094f57600080fd5b610aaf5760405162461bcd60e51b815260040161030290611924565b60a081015160065490191615610ad75760405162461bcd60e51b8152600401610302906118d4565b80606001516007541115610afd5760405162461bcd60e51b815260040161030290611954565b50610180015192915050565b6001600160a01b038116610b2f5760405162461bcd60e51b8152600401610302906118e4565b600080546040516001600160a01b03808516939216917f8be0079c531659141344cd1fd0a4f28419497f9722a3daafe3b4186f6b6457e091a3600080546001600160a01b0319166001600160a01b0392909216919091179055565b6000826001600160a01b0316846001600160a01b031614806102d45750836001600160a01b031663d202158d610bbf85610bdd565b846040518363ffffffff1660e01b8152600401610284929190611829565b6001600160a01b031690565b828054600181600116156101000203166002900490600052602060002090601f016020900481019282601f10610c2a57805160ff1916838001178555610c57565b82800160010185558215610c57579182015b82811115610c57578251825591602001919060010190610c3c565b50610c63929150610d7f565b5090565b604080516101a0810190915280600081526020016000801916815260200160008152602001600081526020016000815260200160008152602001600081526020016000801916815260200160008152602001600081526020016060815260200160008019168152602001606081525090565b604051806102a00160405280610ced610d99565b8152602001610cfa610d99565b8152602001610d07610d99565b815260200160008152602001600081526020016000801916815260200160006001600160a01b0316815260200160006001600160a01b0316815260200160006001600160a01b031681526020016060815260200160008152602001600081526020016000815260200160008152602001600081525090565b61041e91905b80821115610c635760008155600101610d85565b604080516060810182526000808252602082018190529181019190915290565b8035610dc481611aa4565b92915050565b8051610dc481611aa4565b600082601f830112610de657600080fd5b8151610df9610df4826119e4565b6119be565b91508181835260208401935060208101905083856020840282011115610e1e57600080fd5b60005b83811015610e4a5781610e348882610dca565b8452506020928301929190910190600101610e21565b5050505092915050565b8051610dc481611ab8565b8035610dc481611ac1565b8051610dc481611ac1565b60008083601f840112610e8757600080fd5b5081356001600160401b03811115610e9e57600080fd5b602083019150836001820283011115610eb657600080fd5b9250929050565b600082601f830112610ece57600080fd5b8151610edc610df482611a04565b91508082526020830160208301858383011115610ef857600080fd5b610f03838284611a6a565b50505092915050565b600082601f830112610f1d57600080fd5b8135610f2b610df482611a04565b91508082526020830160208301858383011115610f4757600080fd5b610f03838284611a5e565b8051610dc481611aca565b60006102a08284031215610f7057600080fd5b610f7b6101e06119be565b90506000610f8984846110d4565b8252506060610f9a848483016110d4565b60208301525060c0610fae848285016110d4565b604083015250610120610fc384828501610e6a565b606083015250610140610fd884828501610e6a565b608083015250610160610fed84828501610e6a565b60a08301525061018061100284828501610dca565b60c0830152506101a061101784828501610dca565b60e0830152506101c061102c84828501610dca565b610100830152506101e08201516001600160401b0381111561104d57600080fd5b61105984828501610ebd565b6101208301525061020061106f84828501610e6a565b6101408301525061022061108584828501610e6a565b6101608301525061024061109b84828501610e6a565b610180830152506102606110b184828501610e6a565b6101a0830152506102806110c784828501610e6a565b6101c08301525092915050565b6000606082840312156110e657600080fd5b6110f060606119be565b905060006110fe8484610dca565b825250602061110f84848301610dca565b602083015250604061112384828501610e6a565b60408301525092915050565b60006101a0828403121561114257600080fd5b61114d6101a06119be565b9050600061115b8484610f52565b825250602061116c84848301610e6a565b602083015250604061118084828501610e6a565b604083015250606061119484828501610e6a565b60608301525060806111a884828501610e6a565b60808301525060a06111bc84828501610e6a565b60a08301525060c06111d084828501610e6a565b60c08301525060e06111e484828501610e6a565b60e0830152506101006111f984828501610e6a565b6101008301525061012061120f84828501610e6a565b610120830152506101408201516001600160401b0381111561123057600080fd5b61123c84828501610dd5565b6101408301525061016061125284828501610e6a565b610160830152506101808201516001600160401b0381111561127357600080fd5b61127f84828501610ebd565b6101808301525092915050565b60006020828403121561129e57600080fd5b60006112aa8484610db9565b949350505050565b600080600080600060a086880312156112ca57600080fd5b60006112d68888610db9565b95505060206112e788828901610db9565b94505060406112f888828901610db9565b935050606061130988828901610e5f565b925050608061131a88828901610e5f565b9150509295509295909350565b60008060006060848603121561133c57600080fd5b60006113488686610db9565b935050602061135986828701610e5f565b92505060408401356001600160401b0381111561137557600080fd5b61138186828701610f0c565b9150509250925092565b60006020828403121561139d57600080fd5b60006112aa8484610e54565b6000602082840312156113bb57600080fd5b60006112aa8484610e5f565b6000806000604084860312156113dc57600080fd5b60006113e88686610e5f565b93505060208401356001600160401b0381111561140457600080fd5b61141086828701610e75565b92509250509250925092565b60006020828403121561142e57600080fd5b81356001600160401b0381111561144457600080fd5b6112aa84828501610f0c565b60006020828403121561146257600080fd5b81516001600160401b0381111561147857600080fd5b6112aa84828501610f5d565b60006020828403121561149657600080fd5b81516001600160401b038111156114ac57600080fd5b6112aa8482850161112f565b6000602082840312156114ca57600080fd5b60006112aa8484610e6a565b6000806000606084860312156114eb57600080fd5b60006114f78686610e6a565b93505060208401516001600160401b0381111561151357600080fd5b61151f86828701610ebd565b925050604061138186828701610e6a565b61153981611a3d565b82525050565b61153981611a48565b6115398161041e565b600061155c82611a2b565b6115668185611a2f565b9350611576818560208601611a6a565b61157f81611a9a565b9093019392505050565b600061159482611a2b565b61159e8185611a38565b93506115ae818560208601611a6a565b9290920192915050565b61153981611a53565b60006115ce600b83611a2f565b6a696e76616c69642d74616760a81b815260200192915050565b60006115f5602683611a2f565b7f4f776e61626c653a206e6577206f776e657220697320746865207a65726f206181526564647265737360d01b602082015260400192915050565b600061163d601083611a2f565b6f0756e617574686f72697a65642d6170760841b815260200192915050565b6000611669602083611a2f565b7f4f776e61626c653a2063616c6c6572206973206e6f7420746865206f776e6572815260200192915050565b60006116a2601483611a2f565b731d5b985d5d1a1bdc9a5e99590b59185d185cd95d60621b815260200192915050565b60006116d2601783611a2f565b7f756e617574686f72697a65642d776f726b6572706f6f6c000000000000000000815260200192915050565b600061170b601483611a2f565b73726573756c742d6e6f742d617661696c61626c6560601b815260200192915050565b600061173b602183611a2f565b7f726573756c742d6e6f742d76616c6964617465642d62792d636f6e73656e73758152607360f81b602082015260400192915050565b600061177e600d83611a2f565b6c1a5b9d985b1a590b5d1c9d5cdd609a1b815260200192915050565b60006117a7601483611a2f565b731b995dcb5d985b1d594b5a5ccb5d1bdbcb5bdb1960621b815260200192915050565b61153981611a4d565b60006102d78284611589565b60208101610dc48284611530565b60208101610dc4828461153f565b60208101610dc48284611548565b604081016118178285611548565b81810360208301526102d48184611551565b604081016118378285611548565b6102d76020830184611548565b608081016118528287611548565b61185f6020830186611548565b61186c6040830185611548565b818103606083015261187e8184611551565b9695505050505050565b608081016118968287611548565b6118a360208301866117ca565b6118b06040830185611548565b6118bd6060830184611548565b95945050505050565b60208101610dc482846115b8565b60208082528101610dc4816115c1565b60208082528101610dc4816115e8565b60208082528101610dc481611630565b60208082528101610dc48161165c565b60208082528101610dc481611695565b60208082528101610dc4816116c5565b60208082528101610dc4816116fe565b60208082528101610dc48161172e565b60208082528101610dc481611771565b60208082528101610dc48161179a565b606081016119828286611548565b81810360208301526119948185611551565b90506112aa6040830184611548565b608081016119b18287611548565b6118a36020830186611548565b6040518181016001600160401b03811182821017156119dc57600080fd5b604052919050565b60006001600160401b038211156119fa57600080fd5b5060209081020190565b60006001600160401b03821115611a1a57600080fd5b506020601f91909101601f19160190565b5190565b90815260200190565b919050565b6000610dc482610bdd565b151590565b60ff1690565b6000610dc482611a3d565b82818337506000910152565b60005b83811015611a85578181015183820152602001611a6d565b83811115611a94576000848401525b50505050565b601f01601f191690565b611aad81611a3d565b811461063957600080fd5b611aad81611a48565b611aad8161041e565b6005811061063957600080fdfea365627a7a72305820a6849370bdd3207397f8be26c205ff870c05452c9201a1637b5323bf1e5c1f796c6578706572696d656e74616cf564736f6c634300050a0040",
  "source": "pragma solidity ^0.5.8;\r\npragma experimental ABIEncoderV2;\r\n\r\nimport \"openzeppelin-solidity/contracts/ownership/Ownable.sol\";\r\nimport \"iexec-doracle-base/contracts/IexecDoracle.sol\";\r\n\r\ncontract PriceOracle is Ownable, IexecDoracle\r\n{\r\n\tstruct TimedValue\r\n\t{\r\n\t\tbytes32 oracleCallID;\r\n\t\tuint256 date;\r\n\t\tuint256 value;\r\n\t\tstring  details;\r\n\t}\r\n\r\n\tmapping(bytes32 => TimedValue) public values;\r\n\r\n\tevent ValueUpdated(\r\n\t\tbytes32 indexed id,\r\n\t\tbytes32 indexed oracleCallID,\r\n\t\tuint256 oldDate,\r\n\t\tuint256 oldValue,\r\n\t\tuint256 newDate,\r\n\t\tuint256 newValue\r\n\t);\r\n\r\n\t// Use _iexecHubAddr to force use of custom iexechub, leave 0x0 for autodetect\r\n\tconstructor(address _iexecHubAddr)\r\n\tpublic IexecDoracle(_iexecHubAddr)\r\n\t{}\r\n\r\n\tfunction updateEnv(\r\n\t  address _authorizedApp\r\n\t, address _authorizedDataset\r\n\t, address _authorizedWorkerpool\r\n\t, bytes32 _requiredtag\r\n\t, uint256 _requiredtrust\r\n\t)\r\n\tpublic onlyOwner\r\n\t{\r\n\t\t_iexecDoracleUpdateSettings(_authorizedApp, _authorizedDataset, _authorizedWorkerpool, _requiredtag, _requiredtrust);\r\n\t}\r\n\r\n\tfunction decodeResults(bytes memory results)\r\n\tpublic pure returns(uint256, string memory, uint256)\r\n\t{ return abi.decode(results, (uint256, string, uint256)); }\r\n\r\n\tfunction processResult(bytes32 _oracleCallID)\r\n\tpublic\r\n\t{\r\n\t\tuint256       date;\r\n\t\tstring memory details;\r\n\t\tuint256       value;\r\n\r\n\t\t// Parse results\r\n\t\t(date, details, value) = decodeResults(_iexecDoracleGetVerifiedResult(_oracleCallID));\r\n\r\n\t\t// Process results\r\n\t\tbytes32 id = keccak256(bytes(details));\r\n\t\trequire(values[id].date < date, \"new-value-is-too-old\");\r\n\t\temit ValueUpdated(id, _oracleCallID, values[id].date, values[id].value, date, value);\r\n\t\tvalues[id].oracleCallID = _oracleCallID;\r\n\t\tvalues[id].date         = date;\r\n\t\tvalues[id].value        = value;\r\n\t\tvalues[id].details      = details;\r\n\t}\r\n}\r\n",
  "sourcePath": "C:/Users/Dustin/Documents/work/crypto/iexec/iexec-apps/ups-package-tracker/smart-contract/contracts/PriceOracle.sol",
  "compiler": {
    "name": "solc",
    "version": "0.5.10+commit.5a6ea5b1.Emscripten.clang"
  },
  "schemaVersion": "3.0.16",
  "updatedAt": "2019-10-22T01:27:13.482Z",
  "devdoc": {
    "methods": {
      "isOwner()": {
        "details": "Returns true if the caller is the current owner."
      },
      "owner()": {
        "details": "Returns the address of the current owner."
      },
      "renounceOwnership()": {
        "details": "Leaves the contract without owner. It will not be possible to call `onlyOwner` functions anymore. Can only be called by the current owner.     * > Note: Renouncing ownership will leave the contract without an owner, thereby removing any functionality that is only available to the owner."
      },
      "transferOwnership(address)": {
        "details": "Transfers ownership of the contract to a new account (`newOwner`). Can only be called by the current owner."
      }
    }
  },
  "userdoc": {
    "methods": {}
  }
}