{
  "contractName": "SignatureVerifier",
  "abi": [
    {
      "constant": true,
      "inputs": [
        {
          "name": "_identity",
          "type": "address"
        },
        {
          "name": "_hash",
          "type": "bytes32"
        },
        {
          "name": "_signature",
          "type": "bytes"
        }
      ],
      "name": "verifySignature",
      "outputs": [
        {
          "name": "",
          "type": "bool"
        }
      ],
      "payable": false,
      "stateMutability": "view",
      "type": "function"
    }
  ],
  "bytecode": "0x608060405234801561001057600080fd5b506104c7806100206000396000f3fe608060405234801561001057600080fd5b506004361061002b5760003560e01c80630175199814610030575b600080fd5b61004361003e366004610244565b610059565b6040516100509190610328565b60405180910390f35b60006100668484846100f4565b806100ea5750604051630b135d3f60e11b81526001600160a01b03851690631626ba7e9061009a9086908690600401610336565b60206040518083038186803b1580156100b257600080fd5b505afa1580156100c6573d6000803e3d6000fd5b505050506040513d601f19601f820116820180604052506100ea91908101906102a9565b90505b9392505050565b600080600080845160411461010f57600093505050506100ed565b50505060208201516040830151606084015160001a601b81101561013157601b015b8060ff16601b1415801561014957508060ff16601c14155b1561015a57600093505050506100ed565b6001868285856040516000815260200160405260405161017d9493929190610356565b6020604051602081039080840390855afa15801561019f573d6000803e3d6000fd5b505050602060405103516001600160a01b0316876001600160a01b03161493505050509392505050565b80356101d48161045b565b92915050565b80516101d481610472565b80356101d48161047b565b600082601f83011261020157600080fd5b813561021461020f826103bb565b610394565b9150808252602083016020830185838301111561023057600080fd5b61023b838284610415565b50505092915050565b60008060006060848603121561025957600080fd5b600061026586866101c9565b9350506020610276868287016101e5565b925050604084013567ffffffffffffffff81111561029357600080fd5b61029f868287016101f0565b9150509250925092565b6000602082840312156102bb57600080fd5b60006102c784846101da565b949350505050565b6102d8816103fb565b82525050565b6102d881610400565b60006102f2826103e3565b6102fc81856103e7565b935061030c818560208601610421565b61031581610451565b9093019392505050565b6102d88161040f565b602081016101d482846102cf565b6040810161034482856102de565b81810360208301526100ea81846102e7565b6080810161036482876102de565b610371602083018661031f565b61037e60408301856102de565b61038b60608301846102de565b95945050505050565b60405181810167ffffffffffffffff811182821017156103b357600080fd5b604052919050565b600067ffffffffffffffff8211156103d257600080fd5b506020601f91909101601f19160190565b5190565b90815260200190565b60006101d482610403565b151590565b90565b6001600160a01b031690565b60ff1690565b82818337506000910152565b60005b8381101561043c578181015183820152602001610424565b8381111561044b576000848401525b50505050565b601f01601f191690565b610464816103f0565b811461046f57600080fd5b50565b610464816103fb565b6104648161040056fea365627a7a723058206320267314cf71a422594aab5dc0ef4fd9212e56ba27bccfb388eb032bd2b55a6c6578706572696d656e74616cf564736f6c634300050a0040",
  "source": "pragma solidity ^0.5.8;\npragma experimental ABIEncoderV2;\n\nimport \"iexec-solidity/contracts/ERC734_KeyManager/IERC734.sol\";\nimport \"iexec-solidity/contracts/ERC1271/IERC1271.sol\";\n\ncontract SignatureVerifier\n{\n\tfunction addrToKey(address _addr)\n\tinternal pure returns (bytes32)\n\t{\n\t\treturn bytes32(uint256(_addr));\n\t}\n\n\tfunction checkIdentity(address _identity, address _candidate, uint256 _purpose)\n\tinternal view returns (bool valid)\n\t{\n\t\treturn _identity == _candidate || IERC734(_identity).keyHasPurpose(addrToKey(_candidate), _purpose); // Simple address || ERC 734 identity contract\n\t}\n\n\t// internal ?\n\tfunction verifySignature(\n\t\taddress      _identity,\n\t\tbytes32      _hash,\n\t\tbytes memory _signature)\n\tpublic view returns (bool)\n\t{\n\t\treturn recoverCheck(_identity, _hash, _signature) || IERC1271(_identity).isValidSignature(_hash, _signature);\n\t}\n\n\t// recoverCheck does not revert if signature has invalid format\n\tfunction recoverCheck(address candidate, bytes32 hash, bytes memory sign)\n\tinternal pure returns (bool)\n\t{\n\t\tbytes32 r;\n\t\tbytes32 s;\n\t\tuint8   v;\n\t\tif (sign.length != 65) return false;\n\t\tassembly\n\t\t{\n\t\t\tr :=         mload(add(sign, 0x20))\n\t\t\ts :=         mload(add(sign, 0x40))\n\t\t\tv := byte(0, mload(add(sign, 0x60)))\n\t\t}\n\t\tif (v < 27) v += 27;\n\t\tif (v != 27 && v != 28) return false;\n\t\treturn candidate == ecrecover(hash, v, r, s);\n\t}\n\n\tfunction toEthSignedMessageHash(bytes32 hash)\n\tinternal pure returns (bytes32)\n\t{\n\t\treturn keccak256(abi.encodePacked(\"\\x19Ethereum Signed Message:\\n32\", hash));\n\t}\n}\n",
  "sourcePath": "iexec-poco/contracts/SignatureVerifier.sol",
  "compiler": {
    "name": "solc",
    "version": "0.5.10+commit.5a6ea5b1.Emscripten.clang"
  },
  "schemaVersion": "3.0.16",
  "updatedAt": "2019-10-22T00:23:52.008Z",
  "devdoc": {
    "methods": {}
  },
  "userdoc": {
    "methods": {}
  }
}