{
  "contractName": "IexecInterface",
  "abi": [
    {
      "constant": true,
      "inputs": [],
      "name": "iexecClerk",
      "outputs": [
        {
          "name": "",
          "type": "address"
        }
      ],
      "payable": false,
      "stateMutability": "view",
      "type": "function"
    },
    {
      "constant": true,
      "inputs": [],
      "name": "iexecHub",
      "outputs": [
        {
          "name": "",
          "type": "address"
        }
      ],
      "payable": false,
      "stateMutability": "view",
      "type": "function"
    },
    {
      "inputs": [
        {
          "name": "_iexecHubAddr",
          "type": "address"
        }
      ],
      "payable": false,
      "stateMutability": "nonpayable",
      "type": "constructor"
    }
  ],
  "bytecode": "0x608060405234801561001057600080fd5b5060405161046c38038061046c83398101604081905261002f916102cd565b6000610043826001600160e01b036102b816565b111561006957600080546001600160a01b0319166001600160a01b03831617905561020d565b6000610091731383c16c927c4a853684d1a9c676986f25e221116001600160e01b036102b816565b11156100c257600080546001600160a01b031916731383c16c927c4a853684d1a9c676986f25e2211117905561020d565b60006100ea73dbe30645ea7d216c31d09f8c5736fe74de774e636001600160e01b036102b816565b111561011b57600080546001600160a01b03191673dbe30645ea7d216c31d09f8c5736fe74de774e6317905561020d565b600061012f816001600160e01b036102b816565b111561014a57600080546001600160a01b031916905561020d565b600061017273b3901d04cf645747b99dbbe8f2ee9cb41a89cebf6001600160e01b036102b816565b11156101a357600080546001600160a01b03191673b3901d04cf645747b99dbbe8f2ee9cb41a89cebf17905561020d565b60006101b7816001600160e01b036102b816565b11156101d257600080546001600160a01b031916905561020d565b6040517f08c379a00000000000000000000000000000000000000000000000000000000081526004016102049061032c565b60405180910390fd5b6000809054906101000a90046001600160a01b03166001600160a01b031663b01c68466040518163ffffffff1660e01b815260040160206040518083038186803b15801561025a57600080fd5b505afa15801561026e573d6000803e3d6000fd5b505050506040513d601f19601f8201168201806040525061029291908101906102cd565b600180546001600160a01b0319166001600160a01b03929092169190911790555061036d565b3b90565b80516102c781610356565b92915050565b6000602082840312156102df57600080fd5b60006102eb84846102bc565b949350505050565b600061030060138361033c565b7f696e76616c69642d6875622d6164647265737300000000000000000000000000815260200192915050565b602080825281016102c7816102f3565b90815260200190565b60006001600160a01b0382166102c7565b61035f81610345565b811461036a57600080fd5b50565b60f18061037b6000396000f3fe6080604052348015600f57600080fd5b506004361060325760003560e01c80631ce3aa0d146037578063a41f45e9146051575b600080fd5b603d6057565b604051604891906082565b60405180910390f35b603d6066565b6001546001600160a01b031681565b6000546001600160a01b031681565b607c8160a0565b82525050565b60208101608e82846075565b92915050565b6001600160a01b031690565b6000608e826000608e82609456fea365627a7a7230582086edf1b545b62d833b58940a4ca32c141868698e4c1d04870e1284896d1b2dd86c6578706572696d656e74616cf564736f6c634300050a0040",
  "source": "pragma solidity ^0.5.8;\npragma experimental ABIEncoderV2;\n\nimport \"./iexec-poco-interfaces/IexecHubInterface.sol\";\nimport \"./iexec-poco-interfaces/IexecClerkInterface.sol\";\n\n\ncontract IexecInterface\n{\n\taddress constant IEXEC_HUB_MAINNET = 0x1383c16c927c4A853684d1a9c676986f25E22111;\n\taddress constant IEXEC_HUB_ROPSTEN = 0xDbe30645EA7d216c31D09f8c5736FE74de774e63;\n\taddress constant IEXEC_HUB_RINKEBY = 0x0000000000000000000000000000000000000000;\n\taddress constant IEXEC_HUB_KOVAN   = 0xb3901d04CF645747b99DBbe8f2eE9cb41A89CeBF;\n\taddress constant IEXEC_HUB_GOERLI  = 0x0000000000000000000000000000000000000000;\n\n\tIexecHubInterface   public iexecHub;\n\tIexecClerkInterface public iexecClerk;\n\n\tconstructor(address _iexecHubAddr)\n\tpublic\n\t{\n\t\tif      (getCodeSize(_iexecHubAddr    ) > 0) { iexecHub = IexecHubInterface(_iexecHubAddr    ); }\n\t\telse if (getCodeSize(IEXEC_HUB_MAINNET) > 0) { iexecHub = IexecHubInterface(IEXEC_HUB_MAINNET); }\n\t\telse if (getCodeSize(IEXEC_HUB_ROPSTEN) > 0) { iexecHub = IexecHubInterface(IEXEC_HUB_ROPSTEN); }\n\t\telse if (getCodeSize(IEXEC_HUB_RINKEBY) > 0) { iexecHub = IexecHubInterface(IEXEC_HUB_RINKEBY); }\n\t\telse if (getCodeSize(IEXEC_HUB_KOVAN  ) > 0) { iexecHub = IexecHubInterface(IEXEC_HUB_KOVAN  ); }\n\t\telse if (getCodeSize(IEXEC_HUB_GOERLI ) > 0) { iexecHub = IexecHubInterface(IEXEC_HUB_GOERLI ); }\n\t\telse                                         { revert(\"invalid-hub-address\");                   }\n\t\tiexecClerk = IexecClerkInterface(iexecHub.iexecclerk());\n\t}\n\n\tfunction getCodeSize(address _addr)\n\tinternal view returns (uint _size)\n\t{\n\t\tassembly { _size := extcodesize(_addr) }\n\t}\n}\n",
  "sourcePath": "iexec-doracle-base/contracts/IexecInterface.sol",
  "compiler": {
    "name": "solc",
    "version": "0.5.10+commit.5a6ea5b1.Emscripten.clang"
  },
  "schemaVersion": "3.0.11",
  "updatedAt": "2019-10-20T11:10:24.037Z",
  "devdoc": {
    "methods": {}
  },
  "userdoc": {
    "methods": {}
  }
}