{
  "contractName": "LaPosteOracle",
  "abi": [
    {
      "constant": true,
      "inputs": [
        {
          "name": "_identity",
          "type": "address"
        },
        {
          "name": "_hash",
          "type": "bytes32"
        },
        {
          "name": "_signature",
          "type": "bytes"
        }
      ],
      "name": "verifySignature",
      "outputs": [
        {
          "name": "",
          "type": "bool"
        }
      ],
      "payable": false,
      "stateMutability": "view",
      "type": "function"
    },
    {
      "constant": true,
      "inputs": [],
      "name": "iexecClerk",
      "outputs": [
        {
          "name": "",
          "type": "address"
        }
      ],
      "payable": false,
      "stateMutability": "view",
      "type": "function"
    },
    {
      "constant": true,
      "inputs": [],
      "name": "m_authorizedApp",
      "outputs": [
        {
          "name": "",
          "type": "address"
        }
      ],
      "payable": false,
      "stateMutability": "view",
      "type": "function"
    },
    {
      "constant": true,
      "inputs": [
        {
          "name": "",
          "type": "bytes32"
        }
      ],
      "name": "trackings",
      "outputs": [
        {
          "name": "oracleCallID",
          "type": "bytes32"
        },
        {
          "name": "trackingNumber",
          "type": "string"
        },
        {
          "name": "trackingStatus",
          "type": "uint8"
        },
        {
          "name": "lastUpdated",
          "type": "uint256"
        }
      ],
      "payable": false,
      "stateMutability": "view",
      "type": "function"
    },
    {
      "constant": false,
      "inputs": [
        {
          "name": "_doracleCallId",
          "type": "bytes32"
        },
        {
          "name": "",
          "type": "bytes"
        }
      ],
      "name": "receiveResult",
      "outputs": [],
      "payable": false,
      "stateMutability": "nonpayable",
      "type": "function"
    },
    {
      "constant": false,
      "inputs": [],
      "name": "renounceOwnership",
      "outputs": [],
      "payable": false,
      "stateMutability": "nonpayable",
      "type": "function"
    },
    {
      "constant": true,
      "inputs": [],
      "name": "m_authorizedDataset",
      "outputs": [
        {
          "name": "",
          "type": "address"
        }
      ],
      "payable": false,
      "stateMutability": "view",
      "type": "function"
    },
    {
      "constant": true,
      "inputs": [],
      "name": "owner",
      "outputs": [
        {
          "name": "",
          "type": "address"
        }
      ],
      "payable": false,
      "stateMutability": "view",
      "type": "function"
    },
    {
      "constant": true,
      "inputs": [],
      "name": "isOwner",
      "outputs": [
        {
          "name": "",
          "type": "bool"
        }
      ],
      "payable": false,
      "stateMutability": "view",
      "type": "function"
    },
    {
      "constant": true,
      "inputs": [],
      "name": "iexecHub",
      "outputs": [
        {
          "name": "",
          "type": "address"
        }
      ],
      "payable": false,
      "stateMutability": "view",
      "type": "function"
    },
    {
      "constant": true,
      "inputs": [],
      "name": "m_authorizedWorkerpool",
      "outputs": [
        {
          "name": "",
          "type": "address"
        }
      ],
      "payable": false,
      "stateMutability": "view",
      "type": "function"
    },
    {
      "constant": true,
      "inputs": [],
      "name": "m_requiredtrust",
      "outputs": [
        {
          "name": "",
          "type": "uint256"
        }
      ],
      "payable": false,
      "stateMutability": "view",
      "type": "function"
    },
    {
      "constant": false,
      "inputs": [
        {
          "name": "newOwner",
          "type": "address"
        }
      ],
      "name": "transferOwnership",
      "outputs": [],
      "payable": false,
      "stateMutability": "nonpayable",
      "type": "function"
    },
    {
      "constant": true,
      "inputs": [],
      "name": "m_requiredtag",
      "outputs": [
        {
          "name": "",
          "type": "bytes32"
        }
      ],
      "payable": false,
      "stateMutability": "view",
      "type": "function"
    },
    {
      "inputs": [
        {
          "name": "_iexecHubAddr",
          "type": "address"
        }
      ],
      "payable": false,
      "stateMutability": "nonpayable",
      "type": "constructor"
    },
    {
      "anonymous": false,
      "inputs": [
        {
          "indexed": true,
          "name": "id",
          "type": "bytes32"
        },
        {
          "indexed": true,
          "name": "oracleCallID",
          "type": "bytes32"
        },
        {
          "indexed": false,
          "name": "trackingNumber",
          "type": "string"
        },
        {
          "indexed": false,
          "name": "status",
          "type": "uint256"
        },
        {
          "indexed": false,
          "name": "lastUpdated",
          "type": "uint256"
        }
      ],
      "name": "NewTrackingReport",
      "type": "event"
    },
    {
      "anonymous": false,
      "inputs": [
        {
          "indexed": true,
          "name": "doracleCallId",
          "type": "bytes32"
        }
      ],
      "name": "ResultReady",
      "type": "event"
    },
    {
      "anonymous": false,
      "inputs": [
        {
          "indexed": true,
          "name": "previousOwner",
          "type": "address"
        },
        {
          "indexed": true,
          "name": "newOwner",
          "type": "address"
        }
      ],
      "name": "OwnershipTransferred",
      "type": "event"
    },
    {
      "constant": false,
      "inputs": [
        {
          "name": "_authorizedApp",
          "type": "address"
        },
        {
          "name": "_authorizedDataset",
          "type": "address"
        },
        {
          "name": "_authorizedWorkerpool",
          "type": "address"
        },
        {
          "name": "_requiredtag",
          "type": "bytes32"
        },
        {
          "name": "_requiredtrust",
          "type": "uint256"
        }
      ],
      "name": "updateEnv",
      "outputs": [],
      "payable": false,
      "stateMutability": "nonpayable",
      "type": "function"
    },
    {
      "constant": true,
      "inputs": [
        {
          "name": "results",
          "type": "bytes"
        }
      ],
      "name": "decodeResults",
      "outputs": [
        {
          "name": "",
          "type": "string"
        },
        {
          "name": "",
          "type": "uint256"
        },
        {
          "name": "",
          "type": "uint256"
        }
      ],
      "payable": false,
      "stateMutability": "pure",
      "type": "function"
    },
    {
      "constant": false,
      "inputs": [
        {
          "name": "_oracleCallID",
          "type": "bytes32"
        }
      ],
      "name": "processResult",
      "outputs": [],
      "payable": false,
      "stateMutability": "nonpayable",
      "type": "function"
    }
  ],
  "bytecode": "0x60806040523480156200001157600080fd5b5060405162001ea438038062001ea4833981016040819052620000349162000340565b600080546001600160a01b0319163317808255604051839283926001600160a01b0316917f8be0079c531659141344cd1fd0a4f28419497f9722a3daafe3b4186f6b6457e0908290a3600062000093826001600160e01b036200032916565b1115620000bb57600180546001600160a01b0319166001600160a01b03831617905562000275565b6000620000e5731383c16c927c4a853684d1a9c676986f25e221116001600160e01b036200032916565b11156200011857600180546001600160a01b031916731383c16c927c4a853684d1a9c676986f25e2211117905562000275565b60006200014273dbe30645ea7d216c31d09f8c5736fe74de774e636001600160e01b036200032916565b11156200017557600180546001600160a01b03191673dbe30645ea7d216c31d09f8c5736fe74de774e6317905562000275565b60006200018b816001600160e01b036200032916565b1115620001a857600180546001600160a01b031916905562000275565b6000620001d273b3901d04cf645747b99dbbe8f2ee9cb41a89cebf6001600160e01b036200032916565b11156200020557600180546001600160a01b03191673b3901d04cf645747b99dbbe8f2ee9cb41a89cebf17905562000275565b60006200021b816001600160e01b036200032916565b11156200023857600180546001600160a01b031916905562000275565b6040517f08c379a00000000000000000000000000000000000000000000000000000000081526004016200026c90620003a4565b60405180910390fd5b600160009054906101000a90046001600160a01b03166001600160a01b031663b01c68466040518163ffffffff1660e01b815260040160206040518083038186803b158015620002c457600080fd5b505afa158015620002d9573d6000803e3d6000fd5b505050506040513d601f19601f82011682018060405250620002ff919081019062000340565b600280546001600160a01b0319166001600160a01b039290921691909117905550620003eb915050565b3b90565b80516200033a81620003d1565b92915050565b6000602082840312156200035357600080fd5b60006200036184846200032d565b949350505050565b600062000378601383620003b6565b7f696e76616c69642d6875622d6164647265737300000000000000000000000000815260200192915050565b602080825281016200033a8162000369565b90815260200190565b60006001600160a01b0382166200033a565b620003dc81620003bf565b8114620003e857600080fd5b50565b611aa980620003fb6000396000f3fe608060405234801561001057600080fd5b506004361061010b5760003560e01c806378dd4ae5116100a2578063ca2ef3c411610071578063ca2ef3c4146101f8578063e73482a214610200578063eee9aa8a14610215578063f2fde38b14610228578063f6eba5471461023b5761010b565b806378dd4ae5146101d85780638da5cb5b146101e05780638f32d59b146101e8578063a41f45e9146101f05761010b565b80634ea2fb1f116100de5780634ea2fb1f1461017857806356e484e11461019b5780635dd80855146101bd578063715018a6146101d05761010b565b8063017519981461011057806318a4b2d0146101395780631ce3aa0d1461014e578063482fb13e14610163575b600080fd5b61012361011e366004611453565b610243565b60405161013091906117d2565b60405180910390f35b61014c6101473660046113de565b6102de565b005b61015661031f565b6040516101309190611896565b61016b61032e565b60405161013091906117c4565b61018b6101863660046114d5565b61033d565b604051610130949392919061180e565b6101ae6101a9366004611548565b6103f4565b604051610130939291906118b5565b61014c6101cb3660046114f3565b61041a565b61014c61044a565b61016b6104b8565b61016b6104c7565b6101236104d7565b6101566104e8565b61016b6104f7565b610208610506565b60405161013091906117e0565b61014c6102233660046114d5565b61050c565b61014c6102363660046113b8565b610615565b610208610645565b600061025084848461064b565b806102d45750604051630b135d3f60e11b81526001600160a01b03851690631626ba7e9061028490869086906004016117ee565b60206040518083038186803b15801561029c57600080fd5b505afa1580156102b0573d6000803e3d6000fd5b505050506040513d601f19601f820116820180604052506102d491908101906114b7565b90505b9392505050565b6102e66104d7565b61030b5760405162461bcd60e51b815260040161030290611902565b60405180910390fd5b6103188585858585610720565b5050505050565b6002546001600160a01b031681565b6003546001600160a01b031681565b6008602090815260009182526040918290208054600180830180548651600293821615610100026000190190911692909204601f8101869004860283018601909652858252919492939092908301828280156103da5780601f106103af576101008083540402835291602001916103da565b820191906000526020600020905b8154815290600101906020018083116103bd57829003601f168201915b505050506002830154600390930154919260ff1691905084565b60606000808380602001905161040d919081019061157c565b9196909550909350915050565b60405183907f28e9507238ce29efc9797f8791b89bf517f253f275a4ab2688a7cd108e40bc7a90600090a2505050565b6104526104d7565b61046e5760405162461bcd60e51b815260040161030290611902565b600080546040516001600160a01b03909116907f8be0079c531659141344cd1fd0a4f28419497f9722a3daafe3b4186f6b6457e0908390a3600080546001600160a01b0319169055565b6004546001600160a01b031681565b6000546001600160a01b03165b90565b6000546001600160a01b0316331490565b6001546001600160a01b031681565b6005546001600160a01b031681565b60075481565b606060008061051d6101a985610769565b82516020808501919091206000818152600890925260409091206003015493965091945092509082116105625760405162461bcd60e51b8152600401610302906118e2565b84817fe2d7bced3441ff231a03c3fcd6e01bea4aea59e25ee65c51a5f5ed68849b4268868686604051610597939291906118b5565b60405180910390a3600081815260086020908152604090912086815585516105c792600190920191870190610d15565b5082600a8111156105d457fe5b6000828152600860205260409020600201805460ff1916600183600a8111156105f957fe5b0217905550600090815260086020526040902060030155505050565b61061d6104d7565b6106395760405162461bcd60e51b815260040161030290611902565b610642816107a6565b50565b60065481565b600080600080845160411461066657600093505050506102d7565b50505060208201516040830151606084015160001a601b81101561068857601b015b8060ff16601b141580156106a057508060ff16601c14155b156106b157600093505050506102d7565b600186828585604051600081526020016040526040516106d4949392919061186e565b6020604051602081039080840390855afa1580156106f6573d6000803e3d6000fd5b505050602060405103516001600160a01b0316876001600160a01b03161493505050509392505050565b600380546001600160a01b03199081166001600160a01b039788161790915560048054821695871695909517909455600580549094169290941691909117909155600655600755565b60606000606061077884610827565b9150915081819061079c5760405162461bcd60e51b815260040161030291906118a4565b509150505b919050565b6001600160a01b0381166107cc5760405162461bcd60e51b8152600401610302906118f2565b600080546040516001600160a01b03808516939216917f8be0079c531659141344cd1fd0a4f28419497f9722a3daafe3b4186f6b6457e091a3600080546001600160a01b0319166001600160a01b0392909216919091179055565b60006060610833610d93565b60015460405163adccf0d560e01b81526001600160a01b039091169063adccf0d5906108639087906004016117e0565b60006040518083038186803b15801561087b57600080fd5b505afa15801561088f573d6000803e3d6000fd5b505050506040513d6000823e601f3d908101601f191682016040526108b79190810190611609565b90506108c1610e05565b6002546020830151604051635ba430d960e11b81526001600160a01b039092169163b74861b2916108f4916004016117e0565b60006040518083038186803b15801561090c57600080fd5b505afa158015610920573d6000803e3d6000fd5b505050506040513d6000823e601f3d908101601f1916820160405261094891908101906115d5565b905060038251600481111561095957fe5b1461099857600060405180604001604052806014815260200173726573756c742d6e6f742d617661696c61626c6560601b815250935093505050610cb1565b8161018001516040516109ab91906117b8565b6040518091039020826101600151146109e4576000604051806060016040528060218152602001611a4660219139935093505050610cb1565b6003546001600160a01b031615801590610a89575060035481515160025460408051631a2a7bc760e21b81529051610a87946001600160a01b03908116949316916368a9ef1c916004808301926020929190829003018186803b158015610a4a57600080fd5b505afa158015610a5e573d6000803e3d6000fd5b505050506040513d601f19601f82011682018060405250610a82919081019061163d565b610cb6565b155b15610ac45760006040518060400160405280601081526020016f0756e617574686f72697a65642d6170760841b815250935093505050610cb1565b6004546001600160a01b031615801590610b315750600480546020838101515160025460408051631a2a7bc760e21b81529051610b2f966001600160a01b0396871696949594909316936368a9ef1c9383810193919291829003018186803b158015610a4a57600080fd5b155b15610b70576000604051806040016040528060148152602001731d5b985d5d1a1bdc9a5e99590b59185d185cd95d60621b815250935093505050610cb1565b6005546001600160a01b031615801590610bda5750600554604080830151516002548251631a2a7bc760e21b81529251610bd8946001600160a01b03908116949216916368a9ef1c916004808301926020929190829003018186803b158015610a4a57600080fd5b155b15610c225760006040518060400160405280601781526020017f756e617574686f72697a65642d776f726b6572706f6f6c000000000000000000815250935093505050610cb1565b60a081015160065490191615610c635760006040518060400160405280600b81526020016a696e76616c69642d74616760a81b815250935093505050610cb1565b80606001516007541115610ca45760006040518060400160405280600d81526020016c1a5b9d985b1a590b5d1c9d5cdd609a1b815250935093505050610cb1565b5061018001516001925090505b915091565b6000826001600160a01b0316846001600160a01b031614806102d45750836001600160a01b031663d202158d610ceb85610d09565b846040518363ffffffff1660e01b8152600401610284929190611853565b6001600160a01b031690565b828054600181600116156101000203166002900490600052602060002090601f016020900481019282601f10610d5657805160ff1916838001178555610d83565b82800160010185558215610d83579182015b82811115610d83578251825591602001919060010190610d68565b50610d8f929150610eab565b5090565b604080516101a0810190915280600081526020016000801916815260200160008152602001600081526020016000815260200160008152602001600081526020016000801916815260200160008152602001600081526020016060815260200160008019168152602001606081525090565b604051806102a00160405280610e19610ec5565b8152602001610e26610ec5565b8152602001610e33610ec5565b815260200160008152602001600081526020016000801916815260200160006001600160a01b0316815260200160006001600160a01b0316815260200160006001600160a01b031681526020016060815260200160008152602001600081526020016000815260200160008152602001600081525090565b6104d491905b80821115610d8f5760008155600101610eb1565b604080516060810182526000808252602082018190529181019190915290565b8035610ef081611a12565b92915050565b8051610ef081611a12565b600082601f830112610f1257600080fd5b8151610f25610f2082611938565b611912565b91508181835260208401935060208101905083856020840282011115610f4a57600080fd5b60005b83811015610f765781610f608882610ef6565b8452506020928301929190910190600101610f4d565b5050505092915050565b8051610ef081611a26565b8035610ef081611a2f565b8051610ef081611a2f565b60008083601f840112610fb357600080fd5b5081356001600160401b03811115610fca57600080fd5b602083019150836001820283011115610fe257600080fd5b9250929050565b600082601f830112610ffa57600080fd5b8151611008610f2082611958565b9150808252602083016020830185838301111561102457600080fd5b61102f8382846119ce565b50505092915050565b600082601f83011261104957600080fd5b8135611057610f2082611958565b9150808252602083016020830185838301111561107357600080fd5b61102f8382846119c2565b8051610ef081611a38565b60006102a0828403121561109c57600080fd5b6110a76101e0611912565b905060006110b58484611200565b82525060606110c684848301611200565b60208301525060c06110da84828501611200565b6040830152506101206110ef84828501610f96565b60608301525061014061110484828501610f96565b60808301525061016061111984828501610f96565b60a08301525061018061112e84828501610ef6565b60c0830152506101a061114384828501610ef6565b60e0830152506101c061115884828501610ef6565b610100830152506101e08201516001600160401b0381111561117957600080fd5b61118584828501610fe9565b6101208301525061020061119b84828501610f96565b610140830152506102206111b184828501610f96565b610160830152506102406111c784828501610f96565b610180830152506102606111dd84828501610f96565b6101a0830152506102806111f384828501610f96565b6101c08301525092915050565b60006060828403121561121257600080fd5b61121c6060611912565b9050600061122a8484610ef6565b825250602061123b84848301610ef6565b602083015250604061124f84828501610f96565b60408301525092915050565b60006101a0828403121561126e57600080fd5b6112796101a0611912565b90506000611287848461107e565b825250602061129884848301610f96565b60208301525060406112ac84828501610f96565b60408301525060606112c084828501610f96565b60608301525060806112d484828501610f96565b60808301525060a06112e884828501610f96565b60a08301525060c06112fc84828501610f96565b60c08301525060e061131084828501610f96565b60e08301525061010061132584828501610f96565b6101008301525061012061133b84828501610f96565b610120830152506101408201516001600160401b0381111561135c57600080fd5b61136884828501610f01565b6101408301525061016061137e84828501610f96565b610160830152506101808201516001600160401b0381111561139f57600080fd5b6113ab84828501610fe9565b6101808301525092915050565b6000602082840312156113ca57600080fd5b60006113d68484610ee5565b949350505050565b600080600080600060a086880312156113f657600080fd5b60006114028888610ee5565b955050602061141388828901610ee5565b945050604061142488828901610ee5565b935050606061143588828901610f8b565b925050608061144688828901610f8b565b9150509295509295909350565b60008060006060848603121561146857600080fd5b60006114748686610ee5565b935050602061148586828701610f8b565b92505060408401356001600160401b038111156114a157600080fd5b6114ad86828701611038565b9150509250925092565b6000602082840312156114c957600080fd5b60006113d68484610f80565b6000602082840312156114e757600080fd5b60006113d68484610f8b565b60008060006040848603121561150857600080fd5b60006115148686610f8b565b93505060208401356001600160401b0381111561153057600080fd5b61153c86828701610fa1565b92509250509250925092565b60006020828403121561155a57600080fd5b81356001600160401b0381111561157057600080fd5b6113d684828501611038565b60008060006060848603121561159157600080fd5b83516001600160401b038111156115a757600080fd5b6115b386828701610fe9565b93505060206115c486828701610f96565b92505060406114ad86828701610f96565b6000602082840312156115e757600080fd5b81516001600160401b038111156115fd57600080fd5b6113d684828501611089565b60006020828403121561161b57600080fd5b81516001600160401b0381111561163157600080fd5b6113d68482850161125b565b60006020828403121561164f57600080fd5b60006113d68484610f96565b6116648161198c565b82525050565b61166481611997565b611664816104d4565b60006116878261197f565b6116918185611983565b93506116a18185602086016119ce565b6116aa816119fe565b9093019392505050565b60006116bf8261197f565b6116c981856107a1565b93506116d98185602086016119ce565b9290920192915050565b611664816119ac565b611664816119b7565b6000611702601a83611983565b7f747261636b696e67207265706f727420697320746f6f206f6c64000000000000815260200192915050565b600061173b602683611983565b7f4f776e61626c653a206e6577206f776e657220697320746865207a65726f206181526564647265737360d01b602082015260400192915050565b6000611783602083611983565b7f4f776e61626c653a2063616c6c6572206973206e6f7420746865206f776e6572815260200192915050565b611664816119a6565b60006102d782846116b4565b60208101610ef0828461165b565b60208101610ef0828461166a565b60208101610ef08284611673565b604081016117fc8285611673565b81810360208301526102d4818461167c565b6080810161181c8287611673565b818103602083015261182e818661167c565b905061183d60408301856116ec565b61184a6060830184611673565b95945050505050565b604081016118618285611673565b6102d76020830184611673565b6080810161187c8287611673565b61188960208301866117af565b61183d6040830185611673565b60208101610ef082846116e3565b602080825281016102d7818461167c565b606080825281016118c6818661167c565b90506118d56020830185611673565b6113d66040830184611673565b60208082528101610ef0816116f5565b60208082528101610ef08161172e565b60208082528101610ef081611776565b6040518181016001600160401b038111828210171561193057600080fd5b604052919050565b60006001600160401b0382111561194e57600080fd5b5060209081020190565b60006001600160401b0382111561196e57600080fd5b506020601f91909101601f19160190565b5190565b90815260200190565b6000610ef082610d09565b151590565b806107a181611a08565b60ff1690565b6000610ef08261198c565b6000610ef08261199c565b82818337506000910152565b60005b838110156119e95781810151838201526020016119d1565b838111156119f8576000848401525b50505050565b601f01601f191690565b600b811061064257fe5b611a1b8161198c565b811461064257600080fd5b611a1b81611997565b611a1b816104d4565b6005811061064257600080fdfe726573756c742d6e6f742d76616c6964617465642d62792d636f6e73656e737573a365627a7a723058205e16848b8f6d251e7207c1e2a70393fc5893273834b19cbd96df4ccfa2089dd36c6578706572696d656e74616cf564736f6c634300050a0040",
  "source": "pragma solidity ^0.5.8;\npragma experimental ABIEncoderV2;\n\nimport \"openzeppelin-solidity/contracts/ownership/Ownable.sol\";\nimport \"iexec-doracle-base/contracts/IexecDoracle.sol\";\n\ncontract LaPosteOracle is Ownable, IexecDoracle\n{\n\n\tenum Status {\n\t\tPRIS_EN_CHARGE,\n\t\tEN_LIVRAISON,\n\t\tEXPEDIE,\n\t\tA_RETIRER,\n\t\tTRI_EFFECTUE,\n\t\tDISTRIBUE,\n\t\tLIVRE,\n\t\tDESTINATAIRE_INFORME,\n\t\tRETOUR_DESTINATAIRE,\n\t\tERREUR,\n\t\tINCONNU\n\t}\n\t\n\tstruct TrackingReport\n\t{\n\t\tbytes32 oracleCallID;\n\t\tstring \ttrackingNumber;\n\t\tStatus  trackingStatus;\n\t\tuint256\tlastUpdated;\n\t}\n\n\tmapping (bytes32 => TrackingReport) public trackings;\n\n\tevent NewTrackingReport(\n\t\tbytes32 indexed id,\n\t\tbytes32 indexed oracleCallID,\n\t\tstring \ttrackingNumber,\n\t\tuint256 status,\n\t\tuint256 lastUpdated\n\t\t);\n\n\t// Use _iexecHubAddr to force use of custom iexechub, leave 0x0 for autodetect\n\tconstructor(address _iexecHubAddr)\n\tpublic IexecDoracle(_iexecHubAddr)\n\t{}\n\n\tfunction updateEnv(\n\t\taddress _authorizedApp\n\t\t, address _authorizedDataset\n\t\t, address _authorizedWorkerpool\n\t\t, bytes32 _requiredtag\n\t\t, uint256 _requiredtrust\n\t\t)\n\tpublic onlyOwner\n\t{\n\t\t_iexecDoracleUpdateSettings(_authorizedApp, _authorizedDataset, _authorizedWorkerpool, _requiredtag, _requiredtrust);\n\t}\n\n\tfunction decodeResults(bytes memory results)\n\tpublic pure returns(string memory, uint256, uint256)\n\t{ return abi.decode(results, (string, uint256, uint256)); }\n\n\tfunction processResult(bytes32 _oracleCallID)\n\tpublic\n\t{\n\t\tstring memory trackingNumber;\n\t\tuint256       status;\n\t\tuint256\t\t  date;\n\n\t\t// Parse results\n\t\t(trackingNumber, status, date) = decodeResults(_iexecDoracleGetVerifiedResult(_oracleCallID));\n\n\t\t// Process results\n\t\tbytes32 id = keccak256(bytes(trackingNumber));\n\t\trequire (date > trackings[id].lastUpdated, \"tracking report is too old\");\n\t\temit NewTrackingReport(id, _oracleCallID, trackingNumber, status, date);\n\t\ttrackings[id].oracleCallID \t\t= _oracleCallID;\n\t\ttrackings[id].trackingNumber    = trackingNumber;\n\t\ttrackings[id].trackingStatus \t= Status(status);\n\t\ttrackings[id].lastUpdated     \t= date;\n\t}\n}",
  "sourcePath": "/Volumes/MacintoshHD/Users/Andy/iexec-apps/package-tracker-oracle/smart-contract/contracts/LaPosteOracle.sol",
  "compiler": {
    "name": "solc",
    "version": "0.5.10+commit.5a6ea5b1.Emscripten.clang"
  },
  "schemaVersion": "3.0.11",
  "updatedAt": "2019-10-20T11:11:13.385Z",
  "devdoc": {
    "methods": {
      "isOwner()": {
        "details": "Returns true if the caller is the current owner."
      },
      "owner()": {
        "details": "Returns the address of the current owner."
      },
      "renounceOwnership()": {
        "details": "Leaves the contract without owner. It will not be possible to call `onlyOwner` functions anymore. Can only be called by the current owner.     * > Note: Renouncing ownership will leave the contract without an owner, thereby removing any functionality that is only available to the owner."
      },
      "transferOwnership(address)": {
        "details": "Transfers ownership of the contract to a new account (`newOwner`). Can only be called by the current owner."
      }
    }
  },
  "userdoc": {
    "methods": {}
  }
}