{
  "contractName": "TLSNotary",
  "abi": [
    {
      "inputs": [],
      "payable": false,
      "stateMutability": "nonpayable",
      "type": "constructor"
    },
    {
      "anonymous": false,
      "inputs": [
        {
          "indexed": false,
          "internalType": "string",
          "name": "description",
          "type": "string"
        }
      ],
      "name": "LogNewProvableQuery",
      "type": "event"
    },
    {
      "anonymous": false,
      "inputs": [
        {
          "indexed": false,
          "internalType": "string",
          "name": "result",
          "type": "string"
        }
      ],
      "name": "LogResult",
      "type": "event"
    },
    {
      "constant": false,
      "inputs": [
        {
          "internalType": "bytes32",
          "name": "_myid",
          "type": "bytes32"
        },
        {
          "internalType": "string",
          "name": "_result",
          "type": "string"
        }
      ],
      "name": "__callback",
      "outputs": [],
      "payable": false,
      "stateMutability": "nonpayable",
      "type": "function"
    },
    {
      "constant": false,
      "inputs": [
        {
          "internalType": "bytes32",
          "name": "_queryUrl",
          "type": "bytes32"
        },
        {
          "internalType": "string",
          "name": "_result",
          "type": "string"
        },
        {
          "internalType": "bytes",
          "name": "_proof",
          "type": "bytes"
        }
      ],
      "name": "__callback",
      "outputs": [],
      "payable": false,
      "stateMutability": "nonpayable",
      "type": "function"
    },
    {
      "constant": false,
      "inputs": [
        {
          "internalType": "string",
          "name": "_query",
          "type": "string"
        },
        {
          "internalType": "string",
          "name": "_method",
          "type": "string"
        },
        {
          "internalType": "string",
          "name": "_url",
          "type": "string"
        },
        {
          "internalType": "string",
          "name": "_kwargs",
          "type": "string"
        }
      ],
      "name": "checkUrl",
      "outputs": [],
      "payable": true,
      "stateMutability": "payable",
      "type": "function"
    },
    {
      "constant": false,
      "inputs": [],
      "name": "requestPost",
      "outputs": [],
      "payable": true,
      "stateMutability": "payable",
      "type": "function"
    }
  ],
  "bytecode": "0x60806040523480156200001157600080fd5b506200002d600160f81b601060f81b176200003360201b60201c565b62000a54565b600073ffffffffffffffffffffffffffffffffffffffff16600160009054906101000a900473ffffffffffffffffffffffffffffffffffffffff1673ffffffffffffffffffffffffffffffffffffffff161480620000c357506000620000c1600160009054906101000a900473ffffffffffffffffffffffffffffffffffffffff166200039660201b60201c565b145b15620000dd57620000db6000620003a160201b60201c565b505b600160009054906101000a900473ffffffffffffffffffffffffffffffffffffffff1673ffffffffffffffffffffffffffffffffffffffff166338cc48316040518163ffffffff1660e01b8152600401602060405180830381600087803b1580156200014857600080fd5b505af11580156200015d573d6000803e3d6000fd5b505050506040513d60208110156200017457600080fd5b810190808051906020019092919050505073ffffffffffffffffffffffffffffffffffffffff166000809054906101000a900473ffffffffffffffffffffffffffffffffffffffff1673ffffffffffffffffffffffffffffffffffffffff1614620002c157600160009054906101000a900473ffffffffffffffffffffffffffffffffffffffff1673ffffffffffffffffffffffffffffffffffffffff166338cc48316040518163ffffffff1660e01b8152600401602060405180830381600087803b1580156200024457600080fd5b505af115801562000259573d6000803e3d6000fd5b505050506040513d60208110156200027057600080fd5b81019080805190602001909291905050506000806101000a81548173ffffffffffffffffffffffffffffffffffffffff021916908373ffffffffffffffffffffffffffffffffffffffff1602179055505b6000809054906101000a900473ffffffffffffffffffffffffffffffffffffffff1673ffffffffffffffffffffffffffffffffffffffff1663688dcfd7826040518263ffffffff1660e01b815260040180827effffffffffffffffffffffffffffffffffffffffffffffffffffffffffffff19167effffffffffffffffffffffffffffffffffffffffffffffffffffffffffffff19168152602001915050600060405180830381600087803b1580156200037a57600080fd5b505af11580156200038f573d6000803e3d6000fd5b5050505050565b6000813b9050919050565b6000620003b3620003ba60201b60201c565b9050919050565b600080620003e2731d3b2638a7cc9f2cb3d298a3da7a90b67e5506ed6200039660201b60201c565b11156200048e57731d3b2638a7cc9f2cb3d298a3da7a90b67e5506ed600160006101000a81548173ffffffffffffffffffffffffffffffffffffffff021916908373ffffffffffffffffffffffffffffffffffffffff160217905550620004846040518060400160405280600b81526020017f6574685f6d61696e6e65740000000000000000000000000000000000000000008152506200098960201b60201c565b6001905062000986565b6000620004b573c03a2615d5efaf5f49f60b7bb6583eaec212fdf16200039660201b60201c565b1115620005615773c03a2615d5efaf5f49f60b7bb6583eaec212fdf1600160006101000a81548173ffffffffffffffffffffffffffffffffffffffff021916908373ffffffffffffffffffffffffffffffffffffffff160217905550620005576040518060400160405280600c81526020017f6574685f726f707374656e3300000000000000000000000000000000000000008152506200098960201b60201c565b6001905062000986565b60006200058873b7a07bcf2ba2f2703b24c0691b5278999c59ac7e6200039660201b60201c565b1115620006345773b7a07bcf2ba2f2703b24c0691b5278999c59ac7e600160006101000a81548173ffffffffffffffffffffffffffffffffffffffff021916908373ffffffffffffffffffffffffffffffffffffffff1602179055506200062a6040518060400160405280600981526020017f6574685f6b6f76616e00000000000000000000000000000000000000000000008152506200098960201b60201c565b6001905062000986565b60006200065b73146500cfd35b22e4a392fe0adc06de1a1368ed486200039660201b60201c565b1115620007075773146500cfd35b22e4a392fe0adc06de1a1368ed48600160006101000a81548173ffffffffffffffffffffffffffffffffffffffff021916908373ffffffffffffffffffffffffffffffffffffffff160217905550620006fd6040518060400160405280600b81526020017f6574685f72696e6b6562790000000000000000000000000000000000000000008152506200098960201b60201c565b6001905062000986565b60006200072e73a2998efd205fb9d4b4963afb70778d6354ad3a416200039660201b60201c565b1115620007da5773a2998efd205fb9d4b4963afb70778d6354ad3a41600160006101000a81548173ffffffffffffffffffffffffffffffffffffffff021916908373ffffffffffffffffffffffffffffffffffffffff160217905550620007d06040518060400160405280600a81526020017f6574685f676f65726c69000000000000000000000000000000000000000000008152506200098960201b60201c565b6001905062000986565b600062000801736f485c8bf6fc43ea212e93bbf8ce046c7f1cb4756200039660201b60201c565b11156200086757736f485c8bf6fc43ea212e93bbf8ce046c7f1cb475600160006101000a81548173ffffffffffffffffffffffffffffffffffffffff021916908373ffffffffffffffffffffffffffffffffffffffff1602179055506001905062000986565b60006200088e7320e12a1f859b3feae5fb2a0a32c18f5a65555bbf6200039660201b60201c565b1115620008f4577320e12a1f859b3feae5fb2a0a32c18f5a65555bbf600160006101000a81548173ffffffffffffffffffffffffffffffffffffffff021916908373ffffffffffffffffffffffffffffffffffffffff1602179055506001905062000986565b60006200091b7351efaf4c8b3c9afbd5ab9f4bbc82784ab6ef8faa6200039660201b60201c565b111562000981577351efaf4c8b3c9afbd5ab9f4bbc82784ab6ef8faa600160006101000a81548173ffffffffffffffffffffffffffffffffffffffff021916908373ffffffffffffffffffffffffffffffffffffffff1602179055506001905062000986565b600090505b90565b8060029080519060200190620009a1929190620009a5565b5050565b828054600181600116156101000203166002900490600052602060002090601f016020900481019282601f10620009e857805160ff191683800117855562000a19565b8280016001018555821562000a19579182015b8281111562000a18578251825591602001919060010190620009fb565b5b50905062000a28919062000a2c565b5090565b62000a5191905b8082111562000a4d57600081600090555060010162000a33565b5090565b90565b6122e48062000a646000396000f3fe60806040526004361061003f5760003560e01c806327dc297e146100445780632e23f1c11461011657806338bbfa501461039657806386eb72ce146104ff575b600080fd5b34801561005057600080fd5b506101146004803603604081101561006757600080fd5b81019080803590602001909291908035906020019064010000000081111561008e57600080fd5b8201836020820111156100a057600080fd5b803590602001918460018302840111640100000000831117156100c257600080fd5b91908080601f016020809104026020016040519081016040528093929190818152602001838380828437600081840152601f19601f820116905080830192505050505050509192919290505050610509565b005b6103946004803603608081101561012c57600080fd5b810190808035906020019064010000000081111561014957600080fd5b82018360208201111561015b57600080fd5b8035906020019184600183028401116401000000008311171561017d57600080fd5b91908080601f016020809104026020016040519081016040528093929190818152602001838380828437600081840152601f19601f820116905080830192505050505050509192919290803590602001906401000000008111156101e057600080fd5b8201836020820111156101f257600080fd5b8035906020019184600183028401116401000000008311171561021457600080fd5b91908080601f016020809104026020016040519081016040528093929190818152602001838380828437600081840152601f19601f8201169050808301925050505050505091929192908035906020019064010000000081111561027757600080fd5b82018360208201111561028957600080fd5b803590602001918460018302840111640100000000831117156102ab57600080fd5b91908080601f016020809104026020016040519081016040528093929190818152602001838380828437600081840152601f19601f8201169050808301925050505050505091929192908035906020019064010000000081111561030e57600080fd5b82018360208201111561032057600080fd5b8035906020019184600183028401116401000000008311171561034257600080fd5b91908080601f016020809104026020016040519081016040528093929190818152602001838380828437600081840152601f19601f82011690508083019250505050505050919291929050505061054c565b005b3480156103a257600080fd5b506104fd600480360360608110156103b957600080fd5b8101908080359060200190929190803590602001906401000000008111156103e057600080fd5b8201836020820111156103f257600080fd5b8035906020019184600183028401116401000000008311171561041457600080fd5b91908080601f016020809104026020016040519081016040528093929190818152602001838380828437600081840152601f19601f8201169050808301925050505050505091929192908035906020019064010000000081111561047757600080fd5b82018360208201111561048957600080fd5b803590602001918460018302840111640100000000831117156104ab57600080fd5b91908080601f016020809104026020016040519081016040528093929190818152602001838380828437600081840152601f19601f8201169050808301925050505050505091929192905050506106aa565b005b61050761078a565b005b610548828260006040519080825280601f01601f1916602001820160405280156105425781602001600182028038833980820191505090505b506106aa565b5050565b3073ffffffffffffffffffffffffffffffffffffffff16316105a26040518060400160405280600b81526020017f636f6d7075746174696f6e00000000000000000000000000000000000000000081525061086c565b11156105f8577fc4dc360d0a9c0677a3379ae0a3d81e887f761e65fdf3d7e00859d1bcd3c4738960405180806020018281038252604b81526020018061222f604b913960600191505060405180910390a16106a4565b7fc4dc360d0a9c0677a3379ae0a3d81e887f761e65fdf3d7e00859d1bcd3c4738960405180806020018281038252603681526020018061227a6036913960400191505060405180910390a16106a26040518060400160405280600b81526020017f636f6d7075746174696f6e000000000000000000000000000000000000000000815250604051806080016040528087815260200186815260200185815260200184815250610bfd565b505b50505050565b6106b2610f68565b73ffffffffffffffffffffffffffffffffffffffff163373ffffffffffffffffffffffffffffffffffffffff16146106e957600080fd5b7fa25f2099919c7f026f9326edd9b612739f6ef899978c6aa38ba12db0b7830cf7826040518080602001828103825283818151815260200191508051906020019080838360005b8381101561074b578082015181840152602081019050610730565b50505050905090810190601f1680156107785780820380516001836020036101000a031916815260200191505b509250505060405180910390a1505050565b61086a6040518060400160405280600481526020017f6e756c6c000000000000000000000000000000000000000000000000000000008152506040518060400160405280600481526020017f504f5354000000000000000000000000000000000000000000000000000000008152506040518060400160405280601481526020017f2e2e2f6170702f746c732d6e6f746172792e6a730000000000000000000000008152506040518060400160405280600881526020017f7b226a736f6e227d00000000000000000000000000000000000000000000000081525061054c565b565b60008073ffffffffffffffffffffffffffffffffffffffff16600160009054906101000a900473ffffffffffffffffffffffffffffffffffffffff1673ffffffffffffffffffffffffffffffffffffffff1614806108f4575060006108f2600160009054906101000a900473ffffffffffffffffffffffffffffffffffffffff16611285565b145b15610905576109036000611290565b505b600160009054906101000a900473ffffffffffffffffffffffffffffffffffffffff1673ffffffffffffffffffffffffffffffffffffffff166338cc48316040518163ffffffff1660e01b8152600401602060405180830381600087803b15801561096f57600080fd5b505af1158015610983573d6000803e3d6000fd5b505050506040513d602081101561099957600080fd5b810190808051906020019092919050505073ffffffffffffffffffffffffffffffffffffffff166000809054906101000a900473ffffffffffffffffffffffffffffffffffffffff1673ffffffffffffffffffffffffffffffffffffffff1614610ae257600160009054906101000a900473ffffffffffffffffffffffffffffffffffffffff1673ffffffffffffffffffffffffffffffffffffffff166338cc48316040518163ffffffff1660e01b8152600401602060405180830381600087803b158015610a6757600080fd5b505af1158015610a7b573d6000803e3d6000fd5b505050506040513d6020811015610a9157600080fd5b81019080805190602001909291905050506000806101000a81548173ffffffffffffffffffffffffffffffffffffffff021916908373ffffffffffffffffffffffffffffffffffffffff1602179055505b6000809054906101000a900473ffffffffffffffffffffffffffffffffffffffff1673ffffffffffffffffffffffffffffffffffffffff1663524f3889836040518263ffffffff1660e01b81526004018080602001828103825283818151815260200191508051906020019080838360005b83811015610b6f578082015181840152602081019050610b54565b50505050905090810190601f168015610b9c5780820380516001836020036101000a031916815260200191505b5092505050602060405180830381600087803b158015610bbb57600080fd5b505af1158015610bcf573d6000803e3d6000fd5b505050506040513d6020811015610be557600080fd5b81019080805190602001909291905050509050919050565b60008073ffffffffffffffffffffffffffffffffffffffff16600160009054906101000a900473ffffffffffffffffffffffffffffffffffffffff1673ffffffffffffffffffffffffffffffffffffffff161480610c8557506000610c83600160009054906101000a900473ffffffffffffffffffffffffffffffffffffffff16611285565b145b15610c9657610c946000611290565b505b600160009054906101000a900473ffffffffffffffffffffffffffffffffffffffff1673ffffffffffffffffffffffffffffffffffffffff166338cc48316040518163ffffffff1660e01b8152600401602060405180830381600087803b158015610d0057600080fd5b505af1158015610d14573d6000803e3d6000fd5b505050506040513d6020811015610d2a57600080fd5b810190808051906020019092919050505073ffffffffffffffffffffffffffffffffffffffff166000809054906101000a900473ffffffffffffffffffffffffffffffffffffffff1673ffffffffffffffffffffffffffffffffffffffff1614610e7357600160009054906101000a900473ffffffffffffffffffffffffffffffffffffffff1673ffffffffffffffffffffffffffffffffffffffff166338cc48316040518163ffffffff1660e01b8152600401602060405180830381600087803b158015610df857600080fd5b505af1158015610e0c573d6000803e3d6000fd5b505050506040513d6020811015610e2257600080fd5b81019080805190602001909291905050506000806101000a81548173ffffffffffffffffffffffffffffffffffffffff021916908373ffffffffffffffffffffffffffffffffffffffff1602179055505b60606004604051908082528060200260200182016040528015610eaa57816020015b6060815260200190600190039081610e955790505b50905082600060048110610eba57fe5b602002015181600081518110610ecc57fe5b602002602001018190525082600160048110610ee457fe5b602002015181600181518110610ef657fe5b602002602001018190525082600260048110610f0e57fe5b602002015181600281518110610f2057fe5b602002602001018190525082600360048110610f3857fe5b602002015181600381518110610f4a57fe5b6020026020010181905250610f5f84826112a1565b91505092915050565b60008073ffffffffffffffffffffffffffffffffffffffff16600160009054906101000a900473ffffffffffffffffffffffffffffffffffffffff1673ffffffffffffffffffffffffffffffffffffffff161480610ff057506000610fee600160009054906101000a900473ffffffffffffffffffffffffffffffffffffffff16611285565b145b1561100157610fff6000611290565b505b600160009054906101000a900473ffffffffffffffffffffffffffffffffffffffff1673ffffffffffffffffffffffffffffffffffffffff166338cc48316040518163ffffffff1660e01b8152600401602060405180830381600087803b15801561106b57600080fd5b505af115801561107f573d6000803e3d6000fd5b505050506040513d602081101561109557600080fd5b810190808051906020019092919050505073ffffffffffffffffffffffffffffffffffffffff166000809054906101000a900473ffffffffffffffffffffffffffffffffffffffff1673ffffffffffffffffffffffffffffffffffffffff16146111de57600160009054906101000a900473ffffffffffffffffffffffffffffffffffffffff1673ffffffffffffffffffffffffffffffffffffffff166338cc48316040518163ffffffff1660e01b8152600401602060405180830381600087803b15801561116357600080fd5b505af1158015611177573d6000803e3d6000fd5b505050506040513d602081101561118d57600080fd5b81019080805190602001909291905050506000806101000a81548173ffffffffffffffffffffffffffffffffffffffff021916908373ffffffffffffffffffffffffffffffffffffffff1602179055505b6000809054906101000a900473ffffffffffffffffffffffffffffffffffffffff1673ffffffffffffffffffffffffffffffffffffffff1663c281d19e6040518163ffffffff1660e01b815260040160206040518083038186803b15801561124557600080fd5b505afa158015611259573d6000803e3d6000fd5b505050506040513d602081101561126f57600080fd5b8101908080519060200190929190505050905090565b6000813b9050919050565b600061129a6117f5565b9050919050565b60008073ffffffffffffffffffffffffffffffffffffffff16600160009054906101000a900473ffffffffffffffffffffffffffffffffffffffff1673ffffffffffffffffffffffffffffffffffffffff16148061132957506000611327600160009054906101000a900473ffffffffffffffffffffffffffffffffffffffff16611285565b145b1561133a576113386000611290565b505b600160009054906101000a900473ffffffffffffffffffffffffffffffffffffffff1673ffffffffffffffffffffffffffffffffffffffff166338cc48316040518163ffffffff1660e01b8152600401602060405180830381600087803b1580156113a457600080fd5b505af11580156113b8573d6000803e3d6000fd5b505050506040513d60208110156113ce57600080fd5b810190808051906020019092919050505073ffffffffffffffffffffffffffffffffffffffff166000809054906101000a900473ffffffffffffffffffffffffffffffffffffffff1673ffffffffffffffffffffffffffffffffffffffff161461151757600160009054906101000a900473ffffffffffffffffffffffffffffffffffffffff1673ffffffffffffffffffffffffffffffffffffffff166338cc48316040518163ffffffff1660e01b8152600401602060405180830381600087803b15801561149c57600080fd5b505af11580156114b0573d6000803e3d6000fd5b505050506040513d60208110156114c657600080fd5b81019080805190602001909291905050506000806101000a81548173ffffffffffffffffffffffffffffffffffffffff021916908373ffffffffffffffffffffffffffffffffffffffff1602179055505b60008060009054906101000a900473ffffffffffffffffffffffffffffffffffffffff1673ffffffffffffffffffffffffffffffffffffffff1663524f3889856040518263ffffffff1660e01b81526004018080602001828103825283818151815260200191508051906020019080838360005b838110156115a657808201518184015260208101905061158b565b50505050905090810190601f1680156115d35780820380516001836020036101000a031916815260200191505b5092505050602060405180830381600087803b1580156115f257600080fd5b505af1158015611606573d6000803e3d6000fd5b505050506040513d602081101561161c57600080fd5b8101908080519060200190929190505050905062030d403a02670de0b6b3a764000001811115611652576000801b9150506117ef565b606061165d84611d4c565b90506000809054906101000a900473ffffffffffffffffffffffffffffffffffffffff1673ffffffffffffffffffffffffffffffffffffffff166383eed3d583600088856040518563ffffffff1660e01b8152600401808481526020018060200180602001838103835285818151815260200191508051906020019080838360005b838110156116fa5780820151818401526020810190506116df565b50505050905090810190601f1680156117275780820380516001836020036101000a031916815260200191505b50838103825284818151815260200191508051906020019080838360005b83811015611760578082015181840152602081019050611745565b50505050905090810190601f16801561178d5780820380516001836020036101000a031916815260200191505b50955050505050506020604051808303818588803b1580156117ae57600080fd5b505af11580156117c2573d6000803e3d6000fd5b50505050506040513d60208110156117d957600080fd5b8101908080519060200190929190505050925050505b92915050565b600080611815731d3b2638a7cc9f2cb3d298a3da7a90b67e5506ed611285565b11156118b757731d3b2638a7cc9f2cb3d298a3da7a90b67e5506ed600160006101000a81548173ffffffffffffffffffffffffffffffffffffffff021916908373ffffffffffffffffffffffffffffffffffffffff1602179055506118ae6040518060400160405280600b81526020017f6574685f6d61696e6e6574000000000000000000000000000000000000000000815250611dcc565b60019050611d49565b60006118d673c03a2615d5efaf5f49f60b7bb6583eaec212fdf1611285565b11156119785773c03a2615d5efaf5f49f60b7bb6583eaec212fdf1600160006101000a81548173ffffffffffffffffffffffffffffffffffffffff021916908373ffffffffffffffffffffffffffffffffffffffff16021790555061196f6040518060400160405280600c81526020017f6574685f726f707374656e330000000000000000000000000000000000000000815250611dcc565b60019050611d49565b600061199773b7a07bcf2ba2f2703b24c0691b5278999c59ac7e611285565b1115611a395773b7a07bcf2ba2f2703b24c0691b5278999c59ac7e600160006101000a81548173ffffffffffffffffffffffffffffffffffffffff021916908373ffffffffffffffffffffffffffffffffffffffff160217905550611a306040518060400160405280600981526020017f6574685f6b6f76616e0000000000000000000000000000000000000000000000815250611dcc565b60019050611d49565b6000611a5873146500cfd35b22e4a392fe0adc06de1a1368ed48611285565b1115611afa5773146500cfd35b22e4a392fe0adc06de1a1368ed48600160006101000a81548173ffffffffffffffffffffffffffffffffffffffff021916908373ffffffffffffffffffffffffffffffffffffffff160217905550611af16040518060400160405280600b81526020017f6574685f72696e6b656279000000000000000000000000000000000000000000815250611dcc565b60019050611d49565b6000611b1973a2998efd205fb9d4b4963afb70778d6354ad3a41611285565b1115611bbb5773a2998efd205fb9d4b4963afb70778d6354ad3a41600160006101000a81548173ffffffffffffffffffffffffffffffffffffffff021916908373ffffffffffffffffffffffffffffffffffffffff160217905550611bb26040518060400160405280600a81526020017f6574685f676f65726c6900000000000000000000000000000000000000000000815250611dcc565b60019050611d49565b6000611bda736f485c8bf6fc43ea212e93bbf8ce046c7f1cb475611285565b1115611c3e57736f485c8bf6fc43ea212e93bbf8ce046c7f1cb475600160006101000a81548173ffffffffffffffffffffffffffffffffffffffff021916908373ffffffffffffffffffffffffffffffffffffffff16021790555060019050611d49565b6000611c5d7320e12a1f859b3feae5fb2a0a32c18f5a65555bbf611285565b1115611cc1577320e12a1f859b3feae5fb2a0a32c18f5a65555bbf600160006101000a81548173ffffffffffffffffffffffffffffffffffffffff021916908373ffffffffffffffffffffffffffffffffffffffff16021790555060019050611d49565b6000611ce07351efaf4c8b3c9afbd5ab9f4bbc82784ab6ef8faa611285565b1115611d44577351efaf4c8b3c9afbd5ab9f4bbc82784ab6ef8faa600160006101000a81548173ffffffffffffffffffffffffffffffffffffffff021916908373ffffffffffffffffffffffffffffffffffffffff16021790555060019050611d49565b600090505b90565b6060611d56611de6565b611d5e61216f565b611d6a81610400611df2565b611d7381611e3c565b60008090505b8351811015611db557611da8848281518110611d9157fe5b602002602001015183611e4a90919063ffffffff16565b8080600101915050611d79565b50611dbf81611e6f565b8060000151915050919050565b8060029080519060200190611de2929190612189565b5050565b60405180590338823950565b6000819050600060208281611e0357fe5b0614611e1c5760208181611e1357fe5b06602003810190505b808360200181815250506040518084526000815281810160405250505050565b611e47816004611e7d565b50565b611e578260038351611e9e565b611e6a8183611fde90919063ffffffff16565b505050565b611e7a816007611e7d565b50565b611e9a601f60058360ff16901b178361208990919063ffffffff16565b5050565b60178111611eca57611ec58160058460ff16901b60ff16178461208990919063ffffffff16565b611fd9565b60ff8111611f0b57611eef601860058460ff16901b178461208990919063ffffffff16565b611f05816001856120c99092919063ffffffff16565b50611fd8565b61ffff8111611f4d57611f31601960058460ff16901b178461208990919063ffffffff16565b611f47816002856120c99092919063ffffffff16565b50611fd7565b63ffffffff8111611f9157611f75601a60058460ff16901b178461208990919063ffffffff16565b611f8b816004856120c99092919063ffffffff16565b50611fd6565b67ffffffffffffffff8111611fd557611fbd601b60058460ff16901b178461208990919063ffffffff16565b611fd3816008856120c99092919063ffffffff16565b505b5b5b5b5b505050565b611fe661216f565b826020015183600001515183510111156120165761201583600261200f86602001518651612130565b0261214c565b5b60008060008451905085518051602081830101945086518101825260208701935050505b6020811061205d578151835260208301925060208201915060208103905061203a565b60006001826020036101000a039050801983511681855116818117865250508694505050505092915050565b816020015160018360000151510111156120af576120ae82600284602001510261214c565b5b815180516020818301018381536001820183525050505050565b6120d161216f565b8360200151846000015151830111156120ff576120fe8460026120f8876020015186612130565b0261214c565b5b60006001836101000a0390508451805184818301018684198251161781528582018352505050849150509392505050565b60008183111561214257829050612146565b8190505b92915050565b60608260000151905061215f8383611df2565b6121698382611fde565b50505050565b604051806040016040528060608152602001600081525090565b828054600181600116156101000203166002900490600052602060002090601f016020900481019282601f106121ca57805160ff19168380011785556121f8565b828001600101855582156121f8579182015b828111156121f75782518255916020019190600101906121dc565b5b5090506122059190612209565b5090565b61222b91905b8082111561222757600081600090555060010161220f565b5090565b9056fe50726f7661626c6520717565727920776173204e4f542073656e742c20706c656173652061646420736f6d652045544820746f20636f76657220666f72207468652071756572792066656550726f7661626c65207175657279207761732073656e742c207374616e64696e6720627920666f722074686520616e737765722e2e2ea265627a7a7231582069e6943944fff44ae5568bb0475c8740687a2c739449fa6f08319e6e3b9d430b64736f6c634300050c0032",
  "source": "pragma solidity ^0.5.0;\n\n//The Provable `proofType_TLSNotary`: available only on the Ethereum Mainnet\nimport \"./provableAPI_0.5.sol\";\n//import \"../app/tls-notary.js\";\n\ncontract TLSNotary is usingProvable {\n\n    mapping(bytes32=>bool) validURL;\n    event LogNewProvableQuery(string description);\n    event LogResult(string result);\n\n    constructor()\n        public\n    {\n        provable_setProof(proofType_TLSNotary | proofStorage_IPFS);\n    }\n\n    function __callback(\n        bytes32 _queryUrl,\n        string memory _result,\n        bytes memory _proof\n    )\n        public\n    {\n        require(msg.sender == provable_cbAddress());\n        emit LogResult(_result);\n    }\n\n    function checkUrl(\n        string memory _query,\n        string memory _method,\n        string memory _url,\n        string memory _kwargs\n    )\n        public\n        payable\n    {\n        if (provable_getPrice(\"computation\") > address(this).balance) {\n            emit LogNewProvableQuery(\"Provable query was NOT sent, please add some ETH to cover for the query fee\");\n        } else {\n            emit LogNewProvableQuery(\"Provable query was sent, standing by for the answer...\");\n            provable_query(\"computation\",\n                [_query,\n                _method,\n                _url,\n                _kwargs]\n            );\n        }\n    }\n\n    function requestPost()\n        public\n        payable\n    {\n        checkUrl(\"null\",\n                \"POST\",\n                \"../app/tls-notary.js\",\n                '{\"json\"}'\n                );\n    }\n    \n    \n}\n",
  "sourcePath": "/home/emmanuel/gitcoin/iexec-apps/tlsNotaryDOracle/contracts/TLSNotary.sol",
  "compiler": {
    "name": "solc",
    "version": "0.5.12+commit.7709ece9.Emscripten.clang"
  },
  "schemaVersion": "3.0.20",
  "updatedAt": "2019-12-31T16:24:05.170Z",
  "devdoc": {
    "methods": {
      "__callback(bytes32,string)": {
        "details": "The following `__callback` functions are just placeholders ideally     meant to be defined in child contract when proofs are used.     The function bodies simply silence compiler warnings."
      }
    }
  },
  "userdoc": {
    "methods": {}
  }
}