{
  "contractName": "TLSNotary",
  "abi": [
    {
      "inputs": [],
      "payable": false,
      "stateMutability": "nonpayable",
      "type": "constructor"
    },
    {
      "anonymous": false,
      "inputs": [
        {
          "indexed": false,
          "internalType": "string",
          "name": "description",
          "type": "string"
        }
      ],
      "name": "LogNewProvableQuery",
      "type": "event"
    },
    {
      "anonymous": false,
      "inputs": [
        {
          "indexed": false,
          "internalType": "string",
          "name": "result",
          "type": "string"
        }
      ],
      "name": "LogResult",
      "type": "event"
    },
    {
      "constant": false,
      "inputs": [
        {
          "internalType": "bytes32",
          "name": "_myid",
          "type": "bytes32"
        },
        {
          "internalType": "string",
          "name": "_result",
          "type": "string"
        }
      ],
      "name": "__callback",
      "outputs": [],
      "payable": false,
      "stateMutability": "nonpayable",
      "type": "function"
    },
    {
      "constant": false,
      "inputs": [
        {
          "internalType": "bytes32",
          "name": "_queryUrl",
          "type": "bytes32"
        },
        {
          "internalType": "string",
          "name": "_result",
          "type": "string"
        },
        {
          "internalType": "bytes",
          "name": "_proof",
          "type": "bytes"
        }
      ],
      "name": "__callback",
      "outputs": [],
      "payable": false,
      "stateMutability": "nonpayable",
      "type": "function"
    },
    {
      "constant": false,
      "inputs": [
        {
          "internalType": "string",
          "name": "_query",
          "type": "string"
        },
        {
          "internalType": "string",
          "name": "_method",
          "type": "string"
        },
        {
          "internalType": "string",
          "name": "_url",
          "type": "string"
        },
        {
          "internalType": "string",
          "name": "_kwargs",
          "type": "string"
        }
      ],
      "name": "checkUrl",
      "outputs": [],
      "payable": true,
      "stateMutability": "payable",
      "type": "function"
    }
  ],
  "bytecode": "0x60806040523480156200001157600080fd5b506200002d600160f81b601060f81b176200003360201b60201c565b62000a54565b600073ffffffffffffffffffffffffffffffffffffffff16600160009054906101000a900473ffffffffffffffffffffffffffffffffffffffff1673ffffffffffffffffffffffffffffffffffffffff161480620000c357506000620000c1600160009054906101000a900473ffffffffffffffffffffffffffffffffffffffff166200039660201b60201c565b145b15620000dd57620000db6000620003a160201b60201c565b505b600160009054906101000a900473ffffffffffffffffffffffffffffffffffffffff1673ffffffffffffffffffffffffffffffffffffffff166338cc48316040518163ffffffff1660e01b8152600401602060405180830381600087803b1580156200014857600080fd5b505af11580156200015d573d6000803e3d6000fd5b505050506040513d60208110156200017457600080fd5b810190808051906020019092919050505073ffffffffffffffffffffffffffffffffffffffff166000809054906101000a900473ffffffffffffffffffffffffffffffffffffffff1673ffffffffffffffffffffffffffffffffffffffff1614620002c157600160009054906101000a900473ffffffffffffffffffffffffffffffffffffffff1673ffffffffffffffffffffffffffffffffffffffff166338cc48316040518163ffffffff1660e01b8152600401602060405180830381600087803b1580156200024457600080fd5b505af115801562000259573d6000803e3d6000fd5b505050506040513d60208110156200027057600080fd5b81019080805190602001909291905050506000806101000a81548173ffffffffffffffffffffffffffffffffffffffff021916908373ffffffffffffffffffffffffffffffffffffffff1602179055505b6000809054906101000a900473ffffffffffffffffffffffffffffffffffffffff1673ffffffffffffffffffffffffffffffffffffffff1663688dcfd7826040518263ffffffff1660e01b815260040180827effffffffffffffffffffffffffffffffffffffffffffffffffffffffffffff19167effffffffffffffffffffffffffffffffffffffffffffffffffffffffffffff19168152602001915050600060405180830381600087803b1580156200037a57600080fd5b505af11580156200038f573d6000803e3d6000fd5b5050505050565b6000813b9050919050565b6000620003b3620003ba60201b60201c565b9050919050565b600080620003e2731d3b2638a7cc9f2cb3d298a3da7a90b67e5506ed6200039660201b60201c565b11156200048e57731d3b2638a7cc9f2cb3d298a3da7a90b67e5506ed600160006101000a81548173ffffffffffffffffffffffffffffffffffffffff021916908373ffffffffffffffffffffffffffffffffffffffff160217905550620004846040518060400160405280600b81526020017f6574685f6d61696e6e65740000000000000000000000000000000000000000008152506200098960201b60201c565b6001905062000986565b6000620004b573c03a2615d5efaf5f49f60b7bb6583eaec212fdf16200039660201b60201c565b1115620005615773c03a2615d5efaf5f49f60b7bb6583eaec212fdf1600160006101000a81548173ffffffffffffffffffffffffffffffffffffffff021916908373ffffffffffffffffffffffffffffffffffffffff160217905550620005576040518060400160405280600c81526020017f6574685f726f707374656e3300000000000000000000000000000000000000008152506200098960201b60201c565b6001905062000986565b60006200058873b7a07bcf2ba2f2703b24c0691b5278999c59ac7e6200039660201b60201c565b1115620006345773b7a07bcf2ba2f2703b24c0691b5278999c59ac7e600160006101000a81548173ffffffffffffffffffffffffffffffffffffffff021916908373ffffffffffffffffffffffffffffffffffffffff1602179055506200062a6040518060400160405280600981526020017f6574685f6b6f76616e00000000000000000000000000000000000000000000008152506200098960201b60201c565b6001905062000986565b60006200065b73146500cfd35b22e4a392fe0adc06de1a1368ed486200039660201b60201c565b1115620007075773146500cfd35b22e4a392fe0adc06de1a1368ed48600160006101000a81548173ffffffffffffffffffffffffffffffffffffffff021916908373ffffffffffffffffffffffffffffffffffffffff160217905550620006fd6040518060400160405280600b81526020017f6574685f72696e6b6562790000000000000000000000000000000000000000008152506200098960201b60201c565b6001905062000986565b60006200072e73a2998efd205fb9d4b4963afb70778d6354ad3a416200039660201b60201c565b1115620007da5773a2998efd205fb9d4b4963afb70778d6354ad3a41600160006101000a81548173ffffffffffffffffffffffffffffffffffffffff021916908373ffffffffffffffffffffffffffffffffffffffff160217905550620007d06040518060400160405280600a81526020017f6574685f676f65726c69000000000000000000000000000000000000000000008152506200098960201b60201c565b6001905062000986565b600062000801736f485c8bf6fc43ea212e93bbf8ce046c7f1cb4756200039660201b60201c565b11156200086757736f485c8bf6fc43ea212e93bbf8ce046c7f1cb475600160006101000a81548173ffffffffffffffffffffffffffffffffffffffff021916908373ffffffffffffffffffffffffffffffffffffffff1602179055506001905062000986565b60006200088e7320e12a1f859b3feae5fb2a0a32c18f5a65555bbf6200039660201b60201c565b1115620008f4577320e12a1f859b3feae5fb2a0a32c18f5a65555bbf600160006101000a81548173ffffffffffffffffffffffffffffffffffffffff021916908373ffffffffffffffffffffffffffffffffffffffff1602179055506001905062000986565b60006200091b7351efaf4c8b3c9afbd5ab9f4bbc82784ab6ef8faa6200039660201b60201c565b111562000981577351efaf4c8b3c9afbd5ab9f4bbc82784ab6ef8faa600160006101000a81548173ffffffffffffffffffffffffffffffffffffffff021916908373ffffffffffffffffffffffffffffffffffffffff1602179055506001905062000986565b600090505b90565b8060029080519060200190620009a1929190620009a5565b5050565b828054600181600116156101000203166002900490600052602060002090601f016020900481019282601f10620009e857805160ff191683800117855562000a19565b8280016001018555821562000a19579182015b8281111562000a18578251825591602001919060010190620009fb565b5b50905062000a28919062000a2c565b5090565b62000a5191905b8082111562000a4d57600081600090555060010162000a33565b5090565b90565b6121ed8062000a646000396000f3fe6080604052600436106100345760003560e01c806327dc297e146100395780632e23f1c11461010b57806338bbfa501461038b575b600080fd5b34801561004557600080fd5b506101096004803603604081101561005c57600080fd5b81019080803590602001909291908035906020019064010000000081111561008357600080fd5b82018360208201111561009557600080fd5b803590602001918460018302840111640100000000831117156100b757600080fd5b91908080601f016020809104026020016040519081016040528093929190818152602001838380828437600081840152601f19601f8201169050808301925050505050505091929192905050506104f4565b005b6103896004803603608081101561012157600080fd5b810190808035906020019064010000000081111561013e57600080fd5b82018360208201111561015057600080fd5b8035906020019184600183028401116401000000008311171561017257600080fd5b91908080601f016020809104026020016040519081016040528093929190818152602001838380828437600081840152601f19601f820116905080830192505050505050509192919290803590602001906401000000008111156101d557600080fd5b8201836020820111156101e757600080fd5b8035906020019184600183028401116401000000008311171561020957600080fd5b91908080601f016020809104026020016040519081016040528093929190818152602001838380828437600081840152601f19601f8201169050808301925050505050505091929192908035906020019064010000000081111561026c57600080fd5b82018360208201111561027e57600080fd5b803590602001918460018302840111640100000000831117156102a057600080fd5b91908080601f016020809104026020016040519081016040528093929190818152602001838380828437600081840152601f19601f8201169050808301925050505050505091929192908035906020019064010000000081111561030357600080fd5b82018360208201111561031557600080fd5b8035906020019184600183028401116401000000008311171561033757600080fd5b91908080601f016020809104026020016040519081016040528093929190818152602001838380828437600081840152601f19601f820116905080830192505050505050509192919290505050610537565b005b34801561039757600080fd5b506104f2600480360360608110156103ae57600080fd5b8101908080359060200190929190803590602001906401000000008111156103d557600080fd5b8201836020820111156103e757600080fd5b8035906020019184600183028401116401000000008311171561040957600080fd5b91908080601f016020809104026020016040519081016040528093929190818152602001838380828437600081840152601f19601f8201169050808301925050505050505091929192908035906020019064010000000081111561046c57600080fd5b82018360208201111561047e57600080fd5b803590602001918460018302840111640100000000831117156104a057600080fd5b91908080601f016020809104026020016040519081016040528093929190818152602001838380828437600081840152601f19601f820116905080830192505050505050509192919290505050610695565b005b610533828260006040519080825280601f01601f19166020018201604052801561052d5781602001600182028038833980820191505090505b50610695565b5050565b3073ffffffffffffffffffffffffffffffffffffffff163161058d6040518060400160405280600b81526020017f636f6d7075746174696f6e000000000000000000000000000000000000000000815250610775565b11156105e3577fc4dc360d0a9c0677a3379ae0a3d81e887f761e65fdf3d7e00859d1bcd3c4738960405180806020018281038252604b815260200180612138604b913960600191505060405180910390a161068f565b7fc4dc360d0a9c0677a3379ae0a3d81e887f761e65fdf3d7e00859d1bcd3c473896040518080602001828103825260368152602001806121836036913960400191505060405180910390a161068d6040518060400160405280600b81526020017f636f6d7075746174696f6e000000000000000000000000000000000000000000815250604051806080016040528087815260200186815260200185815260200184815250610b06565b505b50505050565b61069d610e71565b73ffffffffffffffffffffffffffffffffffffffff163373ffffffffffffffffffffffffffffffffffffffff16146106d457600080fd5b7fa25f2099919c7f026f9326edd9b612739f6ef899978c6aa38ba12db0b7830cf7826040518080602001828103825283818151815260200191508051906020019080838360005b8381101561073657808201518184015260208101905061071b565b50505050905090810190601f1680156107635780820380516001836020036101000a031916815260200191505b509250505060405180910390a1505050565b60008073ffffffffffffffffffffffffffffffffffffffff16600160009054906101000a900473ffffffffffffffffffffffffffffffffffffffff1673ffffffffffffffffffffffffffffffffffffffff1614806107fd575060006107fb600160009054906101000a900473ffffffffffffffffffffffffffffffffffffffff1661118e565b145b1561080e5761080c6000611199565b505b600160009054906101000a900473ffffffffffffffffffffffffffffffffffffffff1673ffffffffffffffffffffffffffffffffffffffff166338cc48316040518163ffffffff1660e01b8152600401602060405180830381600087803b15801561087857600080fd5b505af115801561088c573d6000803e3d6000fd5b505050506040513d60208110156108a257600080fd5b810190808051906020019092919050505073ffffffffffffffffffffffffffffffffffffffff166000809054906101000a900473ffffffffffffffffffffffffffffffffffffffff1673ffffffffffffffffffffffffffffffffffffffff16146109eb57600160009054906101000a900473ffffffffffffffffffffffffffffffffffffffff1673ffffffffffffffffffffffffffffffffffffffff166338cc48316040518163ffffffff1660e01b8152600401602060405180830381600087803b15801561097057600080fd5b505af1158015610984573d6000803e3d6000fd5b505050506040513d602081101561099a57600080fd5b81019080805190602001909291905050506000806101000a81548173ffffffffffffffffffffffffffffffffffffffff021916908373ffffffffffffffffffffffffffffffffffffffff1602179055505b6000809054906101000a900473ffffffffffffffffffffffffffffffffffffffff1673ffffffffffffffffffffffffffffffffffffffff1663524f3889836040518263ffffffff1660e01b81526004018080602001828103825283818151815260200191508051906020019080838360005b83811015610a78578082015181840152602081019050610a5d565b50505050905090810190601f168015610aa55780820380516001836020036101000a031916815260200191505b5092505050602060405180830381600087803b158015610ac457600080fd5b505af1158015610ad8573d6000803e3d6000fd5b505050506040513d6020811015610aee57600080fd5b81019080805190602001909291905050509050919050565b60008073ffffffffffffffffffffffffffffffffffffffff16600160009054906101000a900473ffffffffffffffffffffffffffffffffffffffff1673ffffffffffffffffffffffffffffffffffffffff161480610b8e57506000610b8c600160009054906101000a900473ffffffffffffffffffffffffffffffffffffffff1661118e565b145b15610b9f57610b9d6000611199565b505b600160009054906101000a900473ffffffffffffffffffffffffffffffffffffffff1673ffffffffffffffffffffffffffffffffffffffff166338cc48316040518163ffffffff1660e01b8152600401602060405180830381600087803b158015610c0957600080fd5b505af1158015610c1d573d6000803e3d6000fd5b505050506040513d6020811015610c3357600080fd5b810190808051906020019092919050505073ffffffffffffffffffffffffffffffffffffffff166000809054906101000a900473ffffffffffffffffffffffffffffffffffffffff1673ffffffffffffffffffffffffffffffffffffffff1614610d7c57600160009054906101000a900473ffffffffffffffffffffffffffffffffffffffff1673ffffffffffffffffffffffffffffffffffffffff166338cc48316040518163ffffffff1660e01b8152600401602060405180830381600087803b158015610d0157600080fd5b505af1158015610d15573d6000803e3d6000fd5b505050506040513d6020811015610d2b57600080fd5b81019080805190602001909291905050506000806101000a81548173ffffffffffffffffffffffffffffffffffffffff021916908373ffffffffffffffffffffffffffffffffffffffff1602179055505b60606004604051908082528060200260200182016040528015610db357816020015b6060815260200190600190039081610d9e5790505b50905082600060048110610dc357fe5b602002015181600081518110610dd557fe5b602002602001018190525082600160048110610ded57fe5b602002015181600181518110610dff57fe5b602002602001018190525082600260048110610e1757fe5b602002015181600281518110610e2957fe5b602002602001018190525082600360048110610e4157fe5b602002015181600381518110610e5357fe5b6020026020010181905250610e6884826111aa565b91505092915050565b60008073ffffffffffffffffffffffffffffffffffffffff16600160009054906101000a900473ffffffffffffffffffffffffffffffffffffffff1673ffffffffffffffffffffffffffffffffffffffff161480610ef957506000610ef7600160009054906101000a900473ffffffffffffffffffffffffffffffffffffffff1661118e565b145b15610f0a57610f086000611199565b505b600160009054906101000a900473ffffffffffffffffffffffffffffffffffffffff1673ffffffffffffffffffffffffffffffffffffffff166338cc48316040518163ffffffff1660e01b8152600401602060405180830381600087803b158015610f7457600080fd5b505af1158015610f88573d6000803e3d6000fd5b505050506040513d6020811015610f9e57600080fd5b810190808051906020019092919050505073ffffffffffffffffffffffffffffffffffffffff166000809054906101000a900473ffffffffffffffffffffffffffffffffffffffff1673ffffffffffffffffffffffffffffffffffffffff16146110e757600160009054906101000a900473ffffffffffffffffffffffffffffffffffffffff1673ffffffffffffffffffffffffffffffffffffffff166338cc48316040518163ffffffff1660e01b8152600401602060405180830381600087803b15801561106c57600080fd5b505af1158015611080573d6000803e3d6000fd5b505050506040513d602081101561109657600080fd5b81019080805190602001909291905050506000806101000a81548173ffffffffffffffffffffffffffffffffffffffff021916908373ffffffffffffffffffffffffffffffffffffffff1602179055505b6000809054906101000a900473ffffffffffffffffffffffffffffffffffffffff1673ffffffffffffffffffffffffffffffffffffffff1663c281d19e6040518163ffffffff1660e01b815260040160206040518083038186803b15801561114e57600080fd5b505afa158015611162573d6000803e3d6000fd5b505050506040513d602081101561117857600080fd5b8101908080519060200190929190505050905090565b6000813b9050919050565b60006111a36116fe565b9050919050565b60008073ffffffffffffffffffffffffffffffffffffffff16600160009054906101000a900473ffffffffffffffffffffffffffffffffffffffff1673ffffffffffffffffffffffffffffffffffffffff16148061123257506000611230600160009054906101000a900473ffffffffffffffffffffffffffffffffffffffff1661118e565b145b15611243576112416000611199565b505b600160009054906101000a900473ffffffffffffffffffffffffffffffffffffffff1673ffffffffffffffffffffffffffffffffffffffff166338cc48316040518163ffffffff1660e01b8152600401602060405180830381600087803b1580156112ad57600080fd5b505af11580156112c1573d6000803e3d6000fd5b505050506040513d60208110156112d757600080fd5b810190808051906020019092919050505073ffffffffffffffffffffffffffffffffffffffff166000809054906101000a900473ffffffffffffffffffffffffffffffffffffffff1673ffffffffffffffffffffffffffffffffffffffff161461142057600160009054906101000a900473ffffffffffffffffffffffffffffffffffffffff1673ffffffffffffffffffffffffffffffffffffffff166338cc48316040518163ffffffff1660e01b8152600401602060405180830381600087803b1580156113a557600080fd5b505af11580156113b9573d6000803e3d6000fd5b505050506040513d60208110156113cf57600080fd5b81019080805190602001909291905050506000806101000a81548173ffffffffffffffffffffffffffffffffffffffff021916908373ffffffffffffffffffffffffffffffffffffffff1602179055505b60008060009054906101000a900473ffffffffffffffffffffffffffffffffffffffff1673ffffffffffffffffffffffffffffffffffffffff1663524f3889856040518263ffffffff1660e01b81526004018080602001828103825283818151815260200191508051906020019080838360005b838110156114af578082015181840152602081019050611494565b50505050905090810190601f1680156114dc5780820380516001836020036101000a031916815260200191505b5092505050602060405180830381600087803b1580156114fb57600080fd5b505af115801561150f573d6000803e3d6000fd5b505050506040513d602081101561152557600080fd5b8101908080519060200190929190505050905062030d403a02670de0b6b3a76400000181111561155b576000801b9150506116f8565b606061156684611c55565b90506000809054906101000a900473ffffffffffffffffffffffffffffffffffffffff1673ffffffffffffffffffffffffffffffffffffffff166383eed3d583600088856040518563ffffffff1660e01b8152600401808481526020018060200180602001838103835285818151815260200191508051906020019080838360005b838110156116035780820151818401526020810190506115e8565b50505050905090810190601f1680156116305780820380516001836020036101000a031916815260200191505b50838103825284818151815260200191508051906020019080838360005b8381101561166957808201518184015260208101905061164e565b50505050905090810190601f1680156116965780820380516001836020036101000a031916815260200191505b50955050505050506020604051808303818588803b1580156116b757600080fd5b505af11580156116cb573d6000803e3d6000fd5b50505050506040513d60208110156116e257600080fd5b8101908080519060200190929190505050925050505b92915050565b60008061171e731d3b2638a7cc9f2cb3d298a3da7a90b67e5506ed61118e565b11156117c057731d3b2638a7cc9f2cb3d298a3da7a90b67e5506ed600160006101000a81548173ffffffffffffffffffffffffffffffffffffffff021916908373ffffffffffffffffffffffffffffffffffffffff1602179055506117b76040518060400160405280600b81526020017f6574685f6d61696e6e6574000000000000000000000000000000000000000000815250611cd5565b60019050611c52565b60006117df73c03a2615d5efaf5f49f60b7bb6583eaec212fdf161118e565b11156118815773c03a2615d5efaf5f49f60b7bb6583eaec212fdf1600160006101000a81548173ffffffffffffffffffffffffffffffffffffffff021916908373ffffffffffffffffffffffffffffffffffffffff1602179055506118786040518060400160405280600c81526020017f6574685f726f707374656e330000000000000000000000000000000000000000815250611cd5565b60019050611c52565b60006118a073b7a07bcf2ba2f2703b24c0691b5278999c59ac7e61118e565b11156119425773b7a07bcf2ba2f2703b24c0691b5278999c59ac7e600160006101000a81548173ffffffffffffffffffffffffffffffffffffffff021916908373ffffffffffffffffffffffffffffffffffffffff1602179055506119396040518060400160405280600981526020017f6574685f6b6f76616e0000000000000000000000000000000000000000000000815250611cd5565b60019050611c52565b600061196173146500cfd35b22e4a392fe0adc06de1a1368ed4861118e565b1115611a035773146500cfd35b22e4a392fe0adc06de1a1368ed48600160006101000a81548173ffffffffffffffffffffffffffffffffffffffff021916908373ffffffffffffffffffffffffffffffffffffffff1602179055506119fa6040518060400160405280600b81526020017f6574685f72696e6b656279000000000000000000000000000000000000000000815250611cd5565b60019050611c52565b6000611a2273a2998efd205fb9d4b4963afb70778d6354ad3a4161118e565b1115611ac45773a2998efd205fb9d4b4963afb70778d6354ad3a41600160006101000a81548173ffffffffffffffffffffffffffffffffffffffff021916908373ffffffffffffffffffffffffffffffffffffffff160217905550611abb6040518060400160405280600a81526020017f6574685f676f65726c6900000000000000000000000000000000000000000000815250611cd5565b60019050611c52565b6000611ae3736f485c8bf6fc43ea212e93bbf8ce046c7f1cb47561118e565b1115611b4757736f485c8bf6fc43ea212e93bbf8ce046c7f1cb475600160006101000a81548173ffffffffffffffffffffffffffffffffffffffff021916908373ffffffffffffffffffffffffffffffffffffffff16021790555060019050611c52565b6000611b667320e12a1f859b3feae5fb2a0a32c18f5a65555bbf61118e565b1115611bca577320e12a1f859b3feae5fb2a0a32c18f5a65555bbf600160006101000a81548173ffffffffffffffffffffffffffffffffffffffff021916908373ffffffffffffffffffffffffffffffffffffffff16021790555060019050611c52565b6000611be97351efaf4c8b3c9afbd5ab9f4bbc82784ab6ef8faa61118e565b1115611c4d577351efaf4c8b3c9afbd5ab9f4bbc82784ab6ef8faa600160006101000a81548173ffffffffffffffffffffffffffffffffffffffff021916908373ffffffffffffffffffffffffffffffffffffffff16021790555060019050611c52565b600090505b90565b6060611c5f611cef565b611c67612078565b611c7381610400611cfb565b611c7c81611d45565b60008090505b8351811015611cbe57611cb1848281518110611c9a57fe5b602002602001015183611d5390919063ffffffff16565b8080600101915050611c82565b50611cc881611d78565b8060000151915050919050565b8060029080519060200190611ceb929190612092565b5050565b60405180590338823950565b6000819050600060208281611d0c57fe5b0614611d255760208181611d1c57fe5b06602003810190505b808360200181815250506040518084526000815281810160405250505050565b611d50816004611d86565b50565b611d608260038351611da7565b611d738183611ee790919063ffffffff16565b505050565b611d83816007611d86565b50565b611da3601f60058360ff16901b1783611f9290919063ffffffff16565b5050565b60178111611dd357611dce8160058460ff16901b60ff161784611f9290919063ffffffff16565b611ee2565b60ff8111611e1457611df8601860058460ff16901b1784611f9290919063ffffffff16565b611e0e81600185611fd29092919063ffffffff16565b50611ee1565b61ffff8111611e5657611e3a601960058460ff16901b1784611f9290919063ffffffff16565b611e5081600285611fd29092919063ffffffff16565b50611ee0565b63ffffffff8111611e9a57611e7e601a60058460ff16901b1784611f9290919063ffffffff16565b611e9481600485611fd29092919063ffffffff16565b50611edf565b67ffffffffffffffff8111611ede57611ec6601b60058460ff16901b1784611f9290919063ffffffff16565b611edc81600885611fd29092919063ffffffff16565b505b5b5b5b5b505050565b611eef612078565b82602001518360000151518351011115611f1f57611f1e836002611f1886602001518651612039565b02612055565b5b60008060008451905085518051602081830101945086518101825260208701935050505b60208110611f665781518352602083019250602082019150602081039050611f43565b60006001826020036101000a039050801983511681855116818117865250508694505050505092915050565b81602001516001836000015151011115611fb857611fb7826002846020015102612055565b5b815180516020818301018381536001820183525050505050565b611fda612078565b83602001518460000151518301111561200857612007846002612001876020015186612039565b02612055565b5b60006001836101000a0390508451805184818301018684198251161781528582018352505050849150509392505050565b60008183111561204b5782905061204f565b8190505b92915050565b6060826000015190506120688383611cfb565b6120728382611ee7565b50505050565b604051806040016040528060608152602001600081525090565b828054600181600116156101000203166002900490600052602060002090601f016020900481019282601f106120d357805160ff1916838001178555612101565b82800160010185558215612101579182015b828111156121005782518255916020019190600101906120e5565b5b50905061210e9190612112565b5090565b61213491905b80821115612130576000816000905550600101612118565b5090565b9056fe50726f7661626c6520717565727920776173204e4f542073656e742c20706c656173652061646420736f6d652045544820746f20636f76657220666f72207468652071756572792066656550726f7661626c65207175657279207761732073656e742c207374616e64696e6720627920666f722074686520616e737765722e2e2ea265627a7a72315820252ea54a6037930403ed6274da9c37cafd4b18e378dc619c2a075962801707ec64736f6c634300050c0032",
  "source": "pragma solidity ^0.5.0;\n\n//The Provable `proofType_TLSNotary`: available only on the Ethereum Mainnet\nimport \"./provableAPI_0.5.sol\";\n//import \"../app/tls-notary.js\";\n\ncontract TLSNotary is usingProvable {\n\n    mapping(bytes32=>bool) validURL;\n    event LogNewProvableQuery(string description);\n    event LogResult(string result);\n\n    constructor()\n        public\n    {\n        provable_setProof(proofType_TLSNotary | proofStorage_IPFS);\n    }\n\n    function __callback(\n        bytes32 _queryUrl,\n        string memory _result,\n        bytes memory _proof\n    )\n        public\n    {\n        require(msg.sender == provable_cbAddress());\n        emit LogResult(_result);\n    }\n\n    function checkUrl(\n        string memory _query,\n        string memory _method,\n        string memory _url,\n        string memory _kwargs\n    )\n        public\n        payable\n    {\n        if (provable_getPrice(\"computation\") > address(this).balance) {\n            emit LogNewProvableQuery(\"Provable query was NOT sent, please add some ETH to cover for the query fee\");\n        } else {\n            emit LogNewProvableQuery(\"Provable query was sent, standing by for the answer...\");\n            provable_query(\"computation\",\n                [_query,\n                _method,\n                _url,\n                _kwargs]\n            );\n        }\n    }\n\n    /**\n    function requestPost()\n        public\n        payable\n    {\n        request(tlsNotary,\n                \"POST\",\n                '{\"json(${URLVerify.result})}'\n                );\n    }\n    **/\n}",
  "sourcePath": "/home/emmanuel/gitcoin/iexec-apps/tlsNotaryDOracle/contracts/TLSNotary.sol",
  "compiler": {
    "name": "solc",
    "version": "0.5.12+commit.7709ece9.Emscripten.clang"
  },
  "schemaVersion": "3.0.20",
  "updatedAt": "2019-12-31T12:52:48.130Z",
  "devdoc": {
    "methods": {
      "__callback(bytes32,string)": {
        "details": "The following `__callback` functions are just placeholders ideally     meant to be defined in child contract when proofs are used.     The function bodies simply silence compiler warnings."
      }
    }
  },
  "userdoc": {
    "methods": {}
  }
}