{
  "contractName": "AnemometerOracle",
  "abi": [
    {
      "constant": true,
      "inputs": [
        {
          "name": "_identity",
          "type": "address"
        },
        {
          "name": "_hash",
          "type": "bytes32"
        },
        {
          "name": "_signature",
          "type": "bytes"
        }
      ],
      "name": "verifySignature",
      "outputs": [
        {
          "name": "",
          "type": "bool"
        }
      ],
      "payable": false,
      "stateMutability": "view",
      "type": "function"
    },
    {
      "constant": true,
      "inputs": [],
      "name": "iexecClerk",
      "outputs": [
        {
          "name": "",
          "type": "address"
        }
      ],
      "payable": false,
      "stateMutability": "view",
      "type": "function"
    },
    {
      "constant": true,
      "inputs": [],
      "name": "m_authorizedApp",
      "outputs": [
        {
          "name": "",
          "type": "address"
        }
      ],
      "payable": false,
      "stateMutability": "view",
      "type": "function"
    },
    {
      "constant": false,
      "inputs": [
        {
          "name": "_doracleCallId",
          "type": "bytes32"
        },
        {
          "name": "",
          "type": "bytes"
        }
      ],
      "name": "receiveResult",
      "outputs": [],
      "payable": false,
      "stateMutability": "nonpayable",
      "type": "function"
    },
    {
      "constant": false,
      "inputs": [],
      "name": "renounceOwnership",
      "outputs": [],
      "payable": false,
      "stateMutability": "nonpayable",
      "type": "function"
    },
    {
      "constant": true,
      "inputs": [],
      "name": "m_authorizedDataset",
      "outputs": [
        {
          "name": "",
          "type": "address"
        }
      ],
      "payable": false,
      "stateMutability": "view",
      "type": "function"
    },
    {
      "constant": true,
      "inputs": [],
      "name": "owner",
      "outputs": [
        {
          "name": "",
          "type": "address"
        }
      ],
      "payable": false,
      "stateMutability": "view",
      "type": "function"
    },
    {
      "constant": true,
      "inputs": [],
      "name": "isOwner",
      "outputs": [
        {
          "name": "",
          "type": "bool"
        }
      ],
      "payable": false,
      "stateMutability": "view",
      "type": "function"
    },
    {
      "constant": true,
      "inputs": [],
      "name": "iexecHub",
      "outputs": [
        {
          "name": "",
          "type": "address"
        }
      ],
      "payable": false,
      "stateMutability": "view",
      "type": "function"
    },
    {
      "constant": true,
      "inputs": [],
      "name": "m_authorizedWorkerpool",
      "outputs": [
        {
          "name": "",
          "type": "address"
        }
      ],
      "payable": false,
      "stateMutability": "view",
      "type": "function"
    },
    {
      "constant": true,
      "inputs": [],
      "name": "m_requiredtrust",
      "outputs": [
        {
          "name": "",
          "type": "uint256"
        }
      ],
      "payable": false,
      "stateMutability": "view",
      "type": "function"
    },
    {
      "constant": false,
      "inputs": [
        {
          "name": "newOwner",
          "type": "address"
        }
      ],
      "name": "transferOwnership",
      "outputs": [],
      "payable": false,
      "stateMutability": "nonpayable",
      "type": "function"
    },
    {
      "constant": true,
      "inputs": [],
      "name": "m_requiredtag",
      "outputs": [
        {
          "name": "",
          "type": "bytes32"
        }
      ],
      "payable": false,
      "stateMutability": "view",
      "type": "function"
    },
    {
      "constant": true,
      "inputs": [
        {
          "name": "",
          "type": "bytes32"
        }
      ],
      "name": "locations",
      "outputs": [
        {
          "name": "location",
          "type": "string"
        }
      ],
      "payable": false,
      "stateMutability": "view",
      "type": "function"
    },
    {
      "inputs": [
        {
          "name": "_iexecHubAddr",
          "type": "address"
        }
      ],
      "payable": false,
      "stateMutability": "nonpayable",
      "type": "constructor"
    },
    {
      "anonymous": false,
      "inputs": [
        {
          "indexed": true,
          "name": "id",
          "type": "bytes32"
        },
        {
          "indexed": true,
          "name": "oracleCallID",
          "type": "bytes32"
        },
        {
          "indexed": false,
          "name": "location",
          "type": "string"
        },
        {
          "indexed": false,
          "name": "date",
          "type": "uint256"
        },
        {
          "indexed": false,
          "name": "summary",
          "type": "string"
        },
        {
          "indexed": false,
          "name": "windSpeed",
          "type": "uint256"
        }
      ],
      "name": "NewWeatherReport",
      "type": "event"
    },
    {
      "anonymous": false,
      "inputs": [
        {
          "indexed": true,
          "name": "doracleCallId",
          "type": "bytes32"
        }
      ],
      "name": "ResultReady",
      "type": "event"
    },
    {
      "anonymous": false,
      "inputs": [
        {
          "indexed": true,
          "name": "previousOwner",
          "type": "address"
        },
        {
          "indexed": true,
          "name": "newOwner",
          "type": "address"
        }
      ],
      "name": "OwnershipTransferred",
      "type": "event"
    },
    {
      "constant": false,
      "inputs": [
        {
          "name": "_authorizedApp",
          "type": "address"
        },
        {
          "name": "_authorizedDataset",
          "type": "address"
        },
        {
          "name": "_authorizedWorkerpool",
          "type": "address"
        },
        {
          "name": "_requiredtag",
          "type": "bytes32"
        },
        {
          "name": "_requiredtrust",
          "type": "uint256"
        }
      ],
      "name": "updateEnv",
      "outputs": [],
      "payable": false,
      "stateMutability": "nonpayable",
      "type": "function"
    },
    {
      "constant": true,
      "inputs": [
        {
          "name": "results",
          "type": "bytes"
        }
      ],
      "name": "decodeResults",
      "outputs": [
        {
          "name": "",
          "type": "uint256"
        },
        {
          "name": "",
          "type": "string"
        },
        {
          "name": "",
          "type": "string"
        },
        {
          "name": "",
          "type": "uint256"
        }
      ],
      "payable": false,
      "stateMutability": "pure",
      "type": "function"
    },
    {
      "constant": false,
      "inputs": [
        {
          "name": "_oracleCallID",
          "type": "bytes32"
        }
      ],
      "name": "processResult",
      "outputs": [],
      "payable": false,
      "stateMutability": "nonpayable",
      "type": "function"
    },
    {
      "constant": true,
      "inputs": [
        {
          "name": "id",
          "type": "bytes32"
        },
        {
          "name": "date",
          "type": "uint256"
        }
      ],
      "name": "getWeatherReport",
      "outputs": [
        {
          "components": [
            {
              "name": "oracleCallID",
              "type": "bytes32"
            },
            {
              "name": "summary",
              "type": "string"
            },
            {
              "name": "windSpeed",
              "type": "uint256"
            },
            {
              "name": "historicalData",
              "type": "bool"
            }
          ],
          "name": "",
          "type": "tuple"
        }
      ],
      "payable": false,
      "stateMutability": "view",
      "type": "function"
    }
  ],
  "bytecode": "0x60806040523480156200001157600080fd5b506040516200210538038062002105833981016040819052620000349162000340565b600080546001600160a01b0319163317808255604051839283926001600160a01b0316917f8be0079c531659141344cd1fd0a4f28419497f9722a3daafe3b4186f6b6457e0908290a3600062000093826001600160e01b036200032916565b1115620000bb57600180546001600160a01b0319166001600160a01b03831617905562000275565b6000620000e5731383c16c927c4a853684d1a9c676986f25e221116001600160e01b036200032916565b11156200011857600180546001600160a01b031916731383c16c927c4a853684d1a9c676986f25e2211117905562000275565b60006200014273dbe30645ea7d216c31d09f8c5736fe74de774e636001600160e01b036200032916565b11156200017557600180546001600160a01b03191673dbe30645ea7d216c31d09f8c5736fe74de774e6317905562000275565b60006200018b816001600160e01b036200032916565b1115620001a857600180546001600160a01b031916905562000275565b6000620001d273b3901d04cf645747b99dbbe8f2ee9cb41a89cebf6001600160e01b036200032916565b11156200020557600180546001600160a01b03191673b3901d04cf645747b99dbbe8f2ee9cb41a89cebf17905562000275565b60006200021b816001600160e01b036200032916565b11156200023857600180546001600160a01b031916905562000275565b6040517f08c379a00000000000000000000000000000000000000000000000000000000081526004016200026c90620003a4565b60405180910390fd5b600160009054906101000a90046001600160a01b03166001600160a01b031663b01c68466040518163ffffffff1660e01b815260040160206040518083038186803b158015620002c457600080fd5b505afa158015620002d9573d6000803e3d6000fd5b505050506040513d601f19601f82011682018060405250620002ff919081019062000340565b600280546001600160a01b0319166001600160a01b039290921691909117905550620003eb915050565b3b90565b80516200033a81620003d1565b92915050565b6000602082840312156200035357600080fd5b60006200036184846200032d565b949350505050565b600062000378601383620003b6565b7f696e76616c69642d6875622d6164647265737300000000000000000000000000815260200192915050565b602080825281016200033a8162000369565b90815260200190565b60006001600160a01b0382166200033a565b620003dc81620003bf565b8114620003e857600080fd5b50565b611d0a80620003fb6000396000f3fe608060405234801561001057600080fd5b50600436106101165760003560e01c80638da5cb5b116100a2578063e73482a211610071578063e73482a214610209578063eee9aa8a1461021e578063f2fde38b14610231578063f6eba54714610244578063f9c7e5491461024c57610116565b80638da5cb5b146101e95780638f32d59b146101f1578063a41f45e9146101f9578063ca2ef3c41461020157610116565b8063482fb13e116100e9578063482fb13e1461018e57806356e484e1146101a35780635dd80855146101c6578063715018a6146101d957806378dd4ae5146101e157610116565b8063017519981461011b57806318a4b2d0146101445780631ce3aa0d1461015957806337a5d9351461016e575b600080fd5b61012e6101293660046115cb565b61026c565b60405161013b9190611a23565b60405180910390f35b610157610152366004611556565b610307565b005b610161610348565b60405161013b9190611ab8565b61018161017c3660046116c0565b610357565b60405161013b9190611b48565b61019661043f565b60405161013b9190611a15565b6101b66101b13660046116fa565b61044e565b60405161013b9493929190611b59565b6101576101d436600461166b565b610478565b6101576104a8565b610196610516565b610196610525565b61012e610535565b610161610546565b610196610555565b610211610564565b60405161013b9190611a31565b61015761022c36600461164d565b61056a565b61015761023f366004611530565b6106c7565b6102116106f7565b61025f61025a36600461164d565b6106fd565b60405161013b9190611ac6565b600061027984848461079e565b806102fd5750604051630b135d3f60e11b81526001600160a01b03851690631626ba7e906102ad9086908690600401611a3f565b60206040518083038186803b1580156102c557600080fd5b505afa1580156102d9573d6000803e3d6000fd5b505050506040513d601f19601f820116820180604052506102fd919081019061162f565b90505b9392505050565b61030f610535565b6103345760405162461bcd60e51b815260040161032b90611b38565b60405180910390fd5b6103418585858585610873565b5050505050565b6002546001600160a01b031681565b61035f610e66565b6000838152600860209081526040808320858452600190810183529281902081516080810183528154815281850180548451600297821615610100026000190190911696909604601f81018690048602870186019094528386529094919385810193908301828280156104135780601f106103e857610100808354040283529160200191610413565b820191906000526020600020905b8154815290600101906020018083116103f657829003601f168201915b50505091835250506002820154602082015260039091015460ff16151560409091015290505b92915050565b6003546001600160a01b031681565b600060608060008480602001905161046991908101906117b4565b92989197509550909350915050565b60405183907f28e9507238ce29efc9797f8791b89bf517f253f275a4ab2688a7cd108e40bc7a90600090a2505050565b6104b0610535565b6104cc5760405162461bcd60e51b815260040161032b90611b38565b600080546040516001600160a01b03909116907f8be0079c531659141344cd1fd0a4f28419497f9722a3daafe3b4186f6b6457e0908390a3600080546001600160a01b0319169055565b6004546001600160a01b031681565b6000546001600160a01b03165b90565b6000546001600160a01b0316331490565b6001546001600160a01b031681565b6005546001600160a01b031681565b60075481565b6000606080600061057d6101b1866108bc565b82516020808501919091206000818152600883526040808220888352600101909352919091206003015494985092965090945092509060ff16156105d35760405162461bcd60e51b815260040161032b90611b28565b85817fa3a2ad8773e89dd2c7c97dbee25c03b3b39c18bbaac76d1c254ea1b56c635f418688878760405161060a9493929190611ad7565b60405180910390a360008181526008602090815260408083208884526001908101835292208881558551610645939190910191860190610e93565b5060008181526008602090815260408083208884526001019091529020600201829055428510610676576000610679565b60015b60008281526008602081815260408084208a8552600181018352908420600301805460ff19169515159590951790945591849052815285516106be9291870190610e93565b50505050505050565b6106cf610535565b6106eb5760405162461bcd60e51b815260040161032b90611b38565b6106f4816108f7565b50565b60065481565b60086020908152600091825260409182902080548351601f600260001961010060018616150201909316929092049182018490048402810184019094528084529092918391908301828280156107945780601f1061076957610100808354040283529160200191610794565b820191906000526020600020905b81548152906001019060200180831161077757829003601f168201915b5050505050905081565b60008060008084516041146107b95760009350505050610300565b50505060208201516040830151606084015160001a601b8110156107db57601b015b8060ff16601b141580156107f357508060ff16601c14155b156108045760009350505050610300565b600186828585604051600081526020016040526040516108279493929190611a7a565b6020604051602081039080840390855afa158015610849573d6000803e3d6000fd5b505050602060405103516001600160a01b0316876001600160a01b03161493505050509392505050565b600380546001600160a01b03199081166001600160a01b039788161790915560048054821695871695909517909455600580549094169290941691909117909155600655600755565b6060600060606108cb84610978565b915091508181906108ef5760405162461bcd60e51b815260040161032b9190611ac6565b509392505050565b6001600160a01b03811661091d5760405162461bcd60e51b815260040161032b90611b18565b600080546040516001600160a01b03808516939216917f8be0079c531659141344cd1fd0a4f28419497f9722a3daafe3b4186f6b6457e091a3600080546001600160a01b0319166001600160a01b0392909216919091179055565b60006060610984610f11565b60015460405163adccf0d560e01b81526001600160a01b039091169063adccf0d5906109b4908790600401611a31565b60006040518083038186803b1580156109cc57600080fd5b505afa1580156109e0573d6000803e3d6000fd5b505050506040513d6000823e601f3d908101601f19168201604052610a089190810190611762565b9050610a12610f83565b6002546020830151604051635ba430d960e11b81526001600160a01b039092169163b74861b291610a4591600401611a31565b60006040518083038186803b158015610a5d57600080fd5b505afa158015610a71573d6000803e3d6000fd5b505050506040513d6000823e601f3d908101601f19168201604052610a99919081019061172e565b9050600382516004811115610aaa57fe5b14610ae957600060405180604001604052806014815260200173726573756c742d6e6f742d617661696c61626c6560601b815250935093505050610e02565b816101800151604051610afc9190611a09565b604051809103902082610160015114610b35576000604051806060016040528060218152602001611ca760219139935093505050610e02565b6003546001600160a01b031615801590610bda575060035481515160025460408051631a2a7bc760e21b81529051610bd8946001600160a01b03908116949316916368a9ef1c916004808301926020929190829003018186803b158015610b9b57600080fd5b505afa158015610baf573d6000803e3d6000fd5b505050506040513d601f19601f82011682018060405250610bd39190810190611796565b610e07565b155b15610c155760006040518060400160405280601081526020016f0756e617574686f72697a65642d6170760841b815250935093505050610e02565b6004546001600160a01b031615801590610c825750600480546020838101515160025460408051631a2a7bc760e21b81529051610c80966001600160a01b0396871696949594909316936368a9ef1c9383810193919291829003018186803b158015610b9b57600080fd5b155b15610cc1576000604051806040016040528060148152602001731d5b985d5d1a1bdc9a5e99590b59185d185cd95d60621b815250935093505050610e02565b6005546001600160a01b031615801590610d2b5750600554604080830151516002548251631a2a7bc760e21b81529251610d29946001600160a01b03908116949216916368a9ef1c916004808301926020929190829003018186803b158015610b9b57600080fd5b155b15610d735760006040518060400160405280601781526020017f756e617574686f72697a65642d776f726b6572706f6f6c000000000000000000815250935093505050610e02565b60a081015160065490191615610db45760006040518060400160405280600b81526020016a696e76616c69642d74616760a81b815250935093505050610e02565b80606001516007541115610df55760006040518060400160405280600d81526020016c1a5b9d985b1a590b5d1c9d5cdd609a1b815250935093505050610e02565b5061018001516001925090505b915091565b6000826001600160a01b0316846001600160a01b031614806102fd5750836001600160a01b031663d202158d610e3c85610e5a565b846040518363ffffffff1660e01b81526004016102ad929190611a5f565b6001600160a01b031690565b60405180608001604052806000801916815260200160608152602001600081526020016000151581525090565b828054600181600116156101000203166002900490600052602060002090601f016020900481019282601f10610ed457805160ff1916838001178555610f01565b82800160010185558215610f01579182015b82811115610f01578251825591602001919060010190610ee6565b50610f0d929150611029565b5090565b604080516101a0810190915280600081526020016000801916815260200160008152602001600081526020016000815260200160008152602001600081526020016000801916815260200160008152602001600081526020016060815260200160008019168152602001606081525090565b604051806102a00160405280610f97611043565b8152602001610fa4611043565b8152602001610fb1611043565b815260200160008152602001600081526020016000801916815260200160006001600160a01b0316815260200160006001600160a01b0316815260200160006001600160a01b031681526020016060815260200160008152602001600081526020016000815260200160008152602001600081525090565b61053291905b80821115610f0d576000815560010161102f565b604080516060810182526000808252602082018190529181019190915290565b803561043981611c73565b805161043981611c73565b600082601f83011261108a57600080fd5b815161109d61109882611bb3565b611b8d565b915081818352602084019350602081019050838560208402820111156110c257600080fd5b60005b838110156110ee57816110d8888261106e565b84525060209283019291909101906001016110c5565b5050505092915050565b805161043981611c87565b803561043981611c90565b805161043981611c90565b60008083601f84011261112b57600080fd5b5081356001600160401b0381111561114257600080fd5b60208301915083600182028301111561115a57600080fd5b9250929050565b600082601f83011261117257600080fd5b815161118061109882611bd3565b9150808252602083016020830185838301111561119c57600080fd5b6111a7838284611c39565b50505092915050565b600082601f8301126111c157600080fd5b81356111cf61109882611bd3565b915080825260208301602083018583830111156111eb57600080fd5b6111a7838284611c2d565b805161043981611c99565b60006102a0828403121561121457600080fd5b61121f6101e0611b8d565b9050600061122d8484611378565b825250606061123e84848301611378565b60208301525060c061125284828501611378565b6040830152506101206112678482850161110e565b60608301525061014061127c8482850161110e565b6080830152506101606112918482850161110e565b60a0830152506101806112a68482850161106e565b60c0830152506101a06112bb8482850161106e565b60e0830152506101c06112d08482850161106e565b610100830152506101e08201516001600160401b038111156112f157600080fd5b6112fd84828501611161565b610120830152506102006113138482850161110e565b610140830152506102206113298482850161110e565b6101608301525061024061133f8482850161110e565b610180830152506102606113558482850161110e565b6101a08301525061028061136b8482850161110e565b6101c08301525092915050565b60006060828403121561138a57600080fd5b6113946060611b8d565b905060006113a2848461106e565b82525060206113b38484830161106e565b60208301525060406113c78482850161110e565b60408301525092915050565b60006101a082840312156113e657600080fd5b6113f16101a0611b8d565b905060006113ff84846111f6565b82525060206114108484830161110e565b60208301525060406114248482850161110e565b60408301525060606114388482850161110e565b606083015250608061144c8482850161110e565b60808301525060a06114608482850161110e565b60a08301525060c06114748482850161110e565b60c08301525060e06114888482850161110e565b60e08301525061010061149d8482850161110e565b610100830152506101206114b38482850161110e565b610120830152506101408201516001600160401b038111156114d457600080fd5b6114e084828501611079565b610140830152506101606114f68482850161110e565b610160830152506101808201516001600160401b0381111561151757600080fd5b61152384828501611161565b6101808301525092915050565b60006020828403121561154257600080fd5b600061154e8484611063565b949350505050565b600080600080600060a0868803121561156e57600080fd5b600061157a8888611063565b955050602061158b88828901611063565b945050604061159c88828901611063565b93505060606115ad88828901611103565b92505060806115be88828901611103565b9150509295509295909350565b6000806000606084860312156115e057600080fd5b60006115ec8686611063565b93505060206115fd86828701611103565b92505060408401356001600160401b0381111561161957600080fd5b611625868287016111b0565b9150509250925092565b60006020828403121561164157600080fd5b600061154e84846110f8565b60006020828403121561165f57600080fd5b600061154e8484611103565b60008060006040848603121561168057600080fd5b600061168c8686611103565b93505060208401356001600160401b038111156116a857600080fd5b6116b486828701611119565b92509250509250925092565b600080604083850312156116d357600080fd5b60006116df8585611103565b92505060206116f085828601611103565b9150509250929050565b60006020828403121561170c57600080fd5b81356001600160401b0381111561172257600080fd5b61154e848285016111b0565b60006020828403121561174057600080fd5b81516001600160401b0381111561175657600080fd5b61154e84828501611201565b60006020828403121561177457600080fd5b81516001600160401b0381111561178a57600080fd5b61154e848285016113d3565b6000602082840312156117a857600080fd5b600061154e848461110e565b600080600080608085870312156117ca57600080fd5b60006117d6878761110e565b94505060208501516001600160401b038111156117f257600080fd5b6117fe87828801611161565b93505060408501516001600160401b0381111561181a57600080fd5b61182687828801611161565b92505060606118378782880161110e565b91505092959194509250565b61184c81611c0c565b82525050565b61184c81611c17565b61184c81610532565b600061186f82611bfa565b6118798185611bfe565b9350611889818560208601611c39565b61189281611c69565b9093019392505050565b60006118a782611bfa565b6118b18185611c07565b93506118c1818560208601611c39565b9290920192915050565b61184c81611c22565b60006118e1602683611bfe565b7f4f776e61626c653a206e6577206f776e657220697320746865207a65726f206181526564647265737360d01b602082015260400192915050565b6000611929603583611bfe565b7f7265706f727420697320616c7265616479206665746368656420666f7220676981527476656e206c6f636174696f6e20616e642074696d6560581b602082015260400192915050565b6000611980602083611bfe565b7f4f776e61626c653a2063616c6c6572206973206e6f7420746865206f776e6572815260200192915050565b805160009060808401906119c0858261185b565b50602083015184820360208601526119d88282611864565b91505060408301516119ed604086018261185b565b5060608301516108ef6060860182611852565b61184c81611c1c565b6000610300828461189c565b602081016104398284611843565b602081016104398284611852565b60208101610439828461185b565b60408101611a4d828561185b565b81810360208301526102fd8184611864565b60408101611a6d828561185b565b610300602083018461185b565b60808101611a88828761185b565b611a956020830186611a00565b611aa2604083018561185b565b611aaf606083018461185b565b95945050505050565b6020810161043982846118cb565b602080825281016103008184611864565b60808082528101611ae88187611864565b9050611af7602083018661185b565b8181036040830152611b098185611864565b9050611aaf606083018461185b565b60208082528101610439816118d4565b602080825281016104398161191c565b6020808252810161043981611973565b6020808252810161030081846119ac565b60808101611b67828761185b565b8181036020830152611b798186611864565b90508181036040830152611b098185611864565b6040518181016001600160401b0381118282101715611bab57600080fd5b604052919050565b60006001600160401b03821115611bc957600080fd5b5060209081020190565b60006001600160401b03821115611be957600080fd5b506020601f91909101601f19160190565b5190565b90815260200190565b919050565b600061043982610e5a565b151590565b60ff1690565b600061043982611c0c565b82818337506000910152565b60005b83811015611c54578181015183820152602001611c3c565b83811115611c63576000848401525b50505050565b601f01601f191690565b611c7c81611c0c565b81146106f457600080fd5b611c7c81611c17565b611c7c81610532565b600581106106f457600080fdfe726573756c742d6e6f742d76616c6964617465642d62792d636f6e73656e737573a365627a7a72305820df47ff81c16731ebac4d90de9523859071b702d913b436ef025a61f0026db2126c6578706572696d656e74616cf564736f6c634300050a0040",
  "source": "pragma solidity ^0.5.8;\npragma experimental ABIEncoderV2;\n\nimport \"openzeppelin-solidity/contracts/ownership/Ownable.sol\";\nimport \"iexec-doracle-base/contracts/IexecDoracle.sol\";\n\ncontract AnemometerOracle is Ownable, IexecDoracle\n{\n\tstruct WeatherReport\n\t{\n\t\tbytes32 oracleCallID;\n\t\tstring \tsummary;\n\t\tuint256 windSpeed;\n\t\tbool\thistoricalData;\n\t}\n\n\tstruct Location\n\t{\n\t\tstring  location;\n\t\tmapping(uint256 => WeatherReport) reports;\n\t}\n\n\tmapping (bytes32 => Location) public locations;\n\t\n\n\tevent NewWeatherReport(\n\t\tbytes32 indexed id,\n\t\tbytes32 indexed oracleCallID,\n\t\tstring \tlocation,\n\t\tuint256 date,\n\t\tstring \tsummary,\n\t\tuint256\twindSpeed\n\t);\n\n\t// Use _iexecHubAddr to force use of custom iexechub, leave 0x0 for autodetect\n\tconstructor(address _iexecHubAddr)\n\tpublic IexecDoracle(_iexecHubAddr)\n\t{}\n\n\tfunction updateEnv(\n\t  address _authorizedApp\n\t, address _authorizedDataset\n\t, address _authorizedWorkerpool\n\t, bytes32 _requiredtag\n\t, uint256 _requiredtrust\n\t)\n\tpublic onlyOwner\n\t{\n\t\t_iexecDoracleUpdateSettings(_authorizedApp, _authorizedDataset, _authorizedWorkerpool, _requiredtag, _requiredtrust);\n\t}\n\n\tfunction decodeResults(bytes memory results)\n\tpublic pure returns(uint256, string memory, string memory, uint256)\n\t{ return abi.decode(results, (uint256, string, string, uint256)); }\n\n\tfunction processResult(bytes32 _oracleCallID)\n\tpublic\n\t{\n\t\tuint256       date;\n\t\tstring memory location;\n\t\tstring memory summary;\n\t\tuint256       windSpeed;\n\n\t\t// Parse results\n\t\t(date, location, summary, windSpeed) = decodeResults(_iexecDoracleGetVerifiedResult(_oracleCallID));\n\n\t\t// Process results\n\t\tbytes32 id = keccak256(bytes(location));\n\t\trequire (!locations[id].reports[date].historicalData, \"report is already fetched for given location and time\");\n\t\temit NewWeatherReport(id, _oracleCallID, location, date, summary, windSpeed);\n\t\tlocations[id].reports[date].oracleCallID \t= _oracleCallID;\n\t\tlocations[id].reports[date].summary      \t= summary;\n\t\tlocations[id].reports[date].windSpeed    \t= windSpeed;\n\t\tlocations[id].reports[date].historicalData \t= now > date ? true : false;\n\t\tlocations[id].location     \t\t\t\t\t= location;\n\t}\n\n\tfunction getWeatherReport(bytes32 id, uint256 date) public view returns(WeatherReport memory) {\n\t\treturn locations[id].reports[date];\n\t}\n}\n",
  "sourcePath": "/Volumes/MacintoshHD/Users/Andy/iexec-apps/anemometer-oracle/smart-contract/contracts/AnemometerOracle.sol",
  "compiler": {
    "name": "solc",
    "version": "0.5.10+commit.5a6ea5b1.Emscripten.clang"
  },
  "schemaVersion": "3.0.11",
  "updatedAt": "2019-10-19T10:53:05.467Z",
  "devdoc": {
    "methods": {
      "isOwner()": {
        "details": "Returns true if the caller is the current owner."
      },
      "owner()": {
        "details": "Returns the address of the current owner."
      },
      "renounceOwnership()": {
        "details": "Leaves the contract without owner. It will not be possible to call `onlyOwner` functions anymore. Can only be called by the current owner.     * > Note: Renouncing ownership will leave the contract without an owner, thereby removing any functionality that is only available to the owner."
      },
      "transferOwnership(address)": {
        "details": "Transfers ownership of the contract to a new account (`newOwner`). Can only be called by the current owner."
      }
    }
  },
  "userdoc": {
    "methods": {}
  }
}