{
  "contractName": "IexecDoracle",
  "abi": [
    {
      "constant": true,
      "inputs": [
        {
          "name": "_identity",
          "type": "address"
        },
        {
          "name": "_hash",
          "type": "bytes32"
        },
        {
          "name": "_signature",
          "type": "bytes"
        }
      ],
      "name": "verifySignature",
      "outputs": [
        {
          "name": "",
          "type": "bool"
        }
      ],
      "payable": false,
      "stateMutability": "view",
      "type": "function"
    },
    {
      "constant": true,
      "inputs": [],
      "name": "iexecClerk",
      "outputs": [
        {
          "name": "",
          "type": "address"
        }
      ],
      "payable": false,
      "stateMutability": "view",
      "type": "function"
    },
    {
      "constant": true,
      "inputs": [],
      "name": "m_authorizedApp",
      "outputs": [
        {
          "name": "",
          "type": "address"
        }
      ],
      "payable": false,
      "stateMutability": "view",
      "type": "function"
    },
    {
      "constant": true,
      "inputs": [],
      "name": "m_authorizedDataset",
      "outputs": [
        {
          "name": "",
          "type": "address"
        }
      ],
      "payable": false,
      "stateMutability": "view",
      "type": "function"
    },
    {
      "constant": true,
      "inputs": [],
      "name": "iexecHub",
      "outputs": [
        {
          "name": "",
          "type": "address"
        }
      ],
      "payable": false,
      "stateMutability": "view",
      "type": "function"
    },
    {
      "constant": true,
      "inputs": [],
      "name": "m_authorizedWorkerpool",
      "outputs": [
        {
          "name": "",
          "type": "address"
        }
      ],
      "payable": false,
      "stateMutability": "view",
      "type": "function"
    },
    {
      "constant": true,
      "inputs": [],
      "name": "m_requiredtrust",
      "outputs": [
        {
          "name": "",
          "type": "uint256"
        }
      ],
      "payable": false,
      "stateMutability": "view",
      "type": "function"
    },
    {
      "constant": true,
      "inputs": [],
      "name": "m_requiredtag",
      "outputs": [
        {
          "name": "",
          "type": "bytes32"
        }
      ],
      "payable": false,
      "stateMutability": "view",
      "type": "function"
    },
    {
      "inputs": [
        {
          "name": "_iexecHubAddr",
          "type": "address"
        }
      ],
      "payable": false,
      "stateMutability": "nonpayable",
      "type": "constructor"
    },
    {
      "anonymous": false,
      "inputs": [
        {
          "indexed": true,
          "name": "doracleCallId",
          "type": "bytes32"
        }
      ],
      "name": "ResultReady",
      "type": "event"
    },
    {
      "constant": false,
      "inputs": [
        {
          "name": "_doracleCallId",
          "type": "bytes32"
        },
        {
          "name": "",
          "type": "bytes"
        }
      ],
      "name": "receiveResult",
      "outputs": [],
      "payable": false,
      "stateMutability": "nonpayable",
      "type": "function"
    }
  ],
  "bytecode": "0x60806040523480156200001157600080fd5b5060405160208062000efc83398101806040526200003391908101906200043f565b80600062000047826200041d60201b60201c565b11156200009457806000806101000a81548173ffffffffffffffffffffffffffffffffffffffff021916908373ffffffffffffffffffffffffffffffffffffffff16021790555062000332565b6000620000bb731383c16c927c4a853684d1a9c676986f25e221116200041d60201b60201c565b11156200011c57731383c16c927c4a853684d1a9c676986f25e221116000806101000a81548173ffffffffffffffffffffffffffffffffffffffff021916908373ffffffffffffffffffffffffffffffffffffffff16021790555062000331565b60006200014373dbe30645ea7d216c31d09f8c5736fe74de774e636200041d60201b60201c565b1115620001a45773dbe30645ea7d216c31d09f8c5736fe74de774e636000806101000a81548173ffffffffffffffffffffffffffffffffffffffff021916908373ffffffffffffffffffffffffffffffffffffffff16021790555062000330565b6000620001b860006200041d60201b60201c565b1115620002065760008060006101000a81548173ffffffffffffffffffffffffffffffffffffffff021916908373ffffffffffffffffffffffffffffffffffffffff1602179055506200032f565b60006200022d73b3901d04cf645747b99dbbe8f2ee9cb41a89cebf6200041d60201b60201c565b11156200028e5773b3901d04cf645747b99dbbe8f2ee9cb41a89cebf6000806101000a81548173ffffffffffffffffffffffffffffffffffffffff021916908373ffffffffffffffffffffffffffffffffffffffff1602179055506200032e565b6000620002a260006200041d60201b60201c565b1115620002f05760008060006101000a81548173ffffffffffffffffffffffffffffffffffffffff021916908373ffffffffffffffffffffffffffffffffffffffff1602179055506200032d565b6040517f08c379a00000000000000000000000000000000000000000000000000000000081526004016200032490620004ad565b60405180910390fd5b5b5b5b5b5b6000809054906101000a900473ffffffffffffffffffffffffffffffffffffffff1673ffffffffffffffffffffffffffffffffffffffff1663b01c68466040518163ffffffff1660e01b815260040160206040518083038186803b1580156200039a57600080fd5b505afa158015620003af573d6000803e3d6000fd5b505050506040513d601f19601f82011682018060405250620003d591908101906200043f565b600160006101000a81548173ffffffffffffffffffffffffffffffffffffffff021916908373ffffffffffffffffffffffffffffffffffffffff16021790555050506200052e565b6000813b9050919050565b600081519050620004398162000514565b92915050565b6000602082840312156200045257600080fd5b6000620004628482850162000428565b91505092915050565b60006200047a601383620004cf565b91507f696e76616c69642d6875622d61646472657373000000000000000000000000006000830152602082019050919050565b60006020820190508181036000830152620004c8816200046b565b9050919050565b600082825260208201905092915050565b6000620004ed82620004f4565b9050919050565b600073ffffffffffffffffffffffffffffffffffffffff82169050919050565b6200051f81620004e0565b81146200052b57600080fd5b50565b6109be806200053e6000396000f3fe608060405234801561001057600080fd5b50600436106100935760003560e01c806378dd4ae51161006657806378dd4ae514610120578063a41f45e91461013e578063ca2ef3c41461015c578063e73482a21461017a578063f6eba5471461019857610093565b806301751998146100985780631ce3aa0d146100c8578063482fb13e146100e65780635dd8085514610104575b600080fd5b6100b260048036036100ad919081019061052f565b6101b6565b6040516100bf91906106d4565b60405180910390f35b6100d061025e565b6040516100dd919061077f565b60405180910390f35b6100ee610284565b6040516100fb91906106b9565b60405180910390f35b61011e600480360361011991908101906105bf565b6102aa565b005b6101286102dc565b60405161013591906106b9565b60405180910390f35b610146610302565b604051610153919061079a565b60405180910390f35b610164610327565b60405161017191906106b9565b60405180910390f35b61018261034d565b60405161018f91906107b5565b60405180910390f35b6101a0610353565b6040516101ad91906106ef565b60405180910390f35b60006101c3848484610359565b8061025557508373ffffffffffffffffffffffffffffffffffffffff16631626ba7e84846040518363ffffffff1660e01b815260040161020492919061070a565b60206040518083038186803b15801561021c57600080fd5b505afa158015610230573d6000803e3d6000fd5b505050506040513d601f19601f820116820180604052506102549190810190610596565b5b90509392505050565b600160009054906101000a900473ffffffffffffffffffffffffffffffffffffffff1681565b600260009054906101000a900473ffffffffffffffffffffffffffffffffffffffff1681565b827f28e9507238ce29efc9797f8791b89bf517f253f275a4ab2688a7cd108e40bc7a60405160405180910390a2505050565b600360009054906101000a900473ffffffffffffffffffffffffffffffffffffffff1681565b6000809054906101000a900473ffffffffffffffffffffffffffffffffffffffff1681565b600460009054906101000a900473ffffffffffffffffffffffffffffffffffffffff1681565b60065481565b60055481565b6000806000806041855114610374576000935050505061044b565b6020850151925060408501519150606085015160001a9050601b8160ff16101561039f57601b810190505b601b8160ff16141580156103b75750601c8160ff1614155b156103c8576000935050505061044b565b600186828585604051600081526020016040526040516103eb949392919061073a565b6020604051602081039080840390855afa15801561040d573d6000803e3d6000fd5b5050506020604051035173ffffffffffffffffffffffffffffffffffffffff168773ffffffffffffffffffffffffffffffffffffffff161493505050505b9392505050565b6000813590506104618161093f565b92915050565b60008151905061047681610956565b92915050565b60008135905061048b8161096d565b92915050565b60008083601f8401126104a357600080fd5b8235905067ffffffffffffffff8111156104bc57600080fd5b6020830191508360018202830111156104d457600080fd5b9250929050565b600082601f8301126104ec57600080fd5b81356104ff6104fa826107fd565b6107d0565b9150808252602083016020830185838301111561051b57600080fd5b6105268382846108ec565b50505092915050565b60008060006060848603121561054457600080fd5b600061055286828701610452565b93505060206105638682870161047c565b925050604084013567ffffffffffffffff81111561058057600080fd5b61058c868287016104db565b9150509250925092565b6000602082840312156105a857600080fd5b60006105b684828501610467565b91505092915050565b6000806000604084860312156105d457600080fd5b60006105e28682870161047c565b935050602084013567ffffffffffffffff8111156105ff57600080fd5b61060b86828701610491565b92509250509250925092565b61062081610845565b82525050565b61062f81610857565b82525050565b61063e81610863565b82525050565b600061064f82610829565b6106598185610834565b93506106698185602086016108fb565b6106728161092e565b840191505092915050565b610686816108a4565b82525050565b610695816108c8565b82525050565b6106a48161088d565b82525050565b6106b381610897565b82525050565b60006020820190506106ce6000830184610617565b92915050565b60006020820190506106e96000830184610626565b92915050565b60006020820190506107046000830184610635565b92915050565b600060408201905061071f6000830185610635565b81810360208301526107318184610644565b90509392505050565b600060808201905061074f6000830187610635565b61075c60208301866106aa565b6107696040830185610635565b6107766060830184610635565b95945050505050565b6000602082019050610794600083018461067d565b92915050565b60006020820190506107af600083018461068c565b92915050565b60006020820190506107ca600083018461069b565b92915050565b6000604051905081810181811067ffffffffffffffff821117156107f357600080fd5b8060405250919050565b600067ffffffffffffffff82111561081457600080fd5b601f19601f8301169050602081019050919050565b600081519050919050565b600082825260208201905092915050565b60006108508261086d565b9050919050565b60008115159050919050565b6000819050919050565b600073ffffffffffffffffffffffffffffffffffffffff82169050919050565b6000819050919050565b600060ff82169050919050565b60006108af826108b6565b9050919050565b60006108c18261086d565b9050919050565b60006108d3826108da565b9050919050565b60006108e58261086d565b9050919050565b82818337600083830152505050565b60005b838110156109195780820151818401526020810190506108fe565b83811115610928576000848401525b50505050565b6000601f19601f8301169050919050565b61094881610845565b811461095357600080fd5b50565b61095f81610857565b811461096a57600080fd5b50565b61097681610863565b811461098157600080fd5b5056fea265627a7a7230582009354912ccda2c37f849e6f73c1b173d2a5da9f1d60cf23e84385fa2beef1b956c6578706572696d656e74616cf50037",
  "source": "pragma solidity ^0.5.8;\npragma experimental ABIEncoderV2;\n\nimport \"iexec-poco/contracts/SignatureVerifier.sol\";\nimport \"iexec-solidity/contracts/ERC1154_OracleInterface/IERC1154.sol\";\nimport \"./IexecInterface.sol\";\n\n\ncontract IexecDoracle is IexecInterface, SignatureVerifier, IOracleConsumer\n{\n\taddress public m_authorizedApp;\n\taddress public m_authorizedDataset;\n\taddress public m_authorizedWorkerpool;\n\tbytes32 public m_requiredtag;\n\tuint256 public m_requiredtrust;\n\n\tevent ResultReady(bytes32 indexed doracleCallId);\n\n\tconstructor(address _iexecHubAddr)\n\tpublic IexecInterface(_iexecHubAddr)\n\t{}\n\n\tfunction receiveResult(bytes32 _doracleCallId, bytes calldata)\n\texternal\n\t{\n\t\temit ResultReady(_doracleCallId);\n\t}\n\n\tfunction _iexecDoracleUpdateSettings(\n\t\taddress _authorizedApp\n\t,\taddress _authorizedDataset\n\t,\taddress _authorizedWorkerpool\n\t, bytes32 _requiredtag\n\t, uint256 _requiredtrust\n\t)\n\tinternal\n\t{\n\t\tm_authorizedApp        = _authorizedApp;\n\t\tm_authorizedDataset    = _authorizedDataset;\n\t\tm_authorizedWorkerpool = _authorizedWorkerpool;\n\t\tm_requiredtag          = _requiredtag;\n\t\tm_requiredtrust        = _requiredtrust;\n\t}\n\n\tfunction _iexecDoracleGetResults(bytes32 _doracleCallId)\n\tinternal view returns (bool, bytes memory)\n\t{\n\t\tIexecODBLibCore.Task memory task = iexecHub.viewTask(_doracleCallId);\n\t\tIexecODBLibCore.Deal memory deal = iexecClerk.viewDeal(task.dealid);\n\n\t\tif (task.status != IexecODBLibCore.TaskStatusEnum.COMPLETED                                                                                  ) { return (false, bytes(\"result-not-available\"             ));  }\n\t\tif (task.resultDigest != keccak256(task.results)                                                                                             ) { return (false, bytes(\"result-not-validated-by-consensus\"));  }\n\t\tif (m_authorizedApp        != address(0) && !checkIdentity(m_authorizedApp,        deal.app.pointer,        iexecClerk.GROUPMEMBER_PURPOSE())) { return (false, bytes(\"unauthorized-app\"                 ));  }\n\t\tif (m_authorizedDataset    != address(0) && !checkIdentity(m_authorizedDataset,    deal.dataset.pointer,    iexecClerk.GROUPMEMBER_PURPOSE())) { return (false, bytes(\"unauthorized-dataset\"             ));  }\n\t\tif (m_authorizedWorkerpool != address(0) && !checkIdentity(m_authorizedWorkerpool, deal.workerpool.pointer, iexecClerk.GROUPMEMBER_PURPOSE())) { return (false, bytes(\"unauthorized-workerpool\"          ));  }\n\t\tif (m_requiredtag & ~deal.tag != bytes32(0)                                                                                                  ) { return (false, bytes(\"invalid-tag\"                      ));  }\n\t\tif (m_requiredtrust > deal.trust                                                                                                             ) { return (false, bytes(\"invalid-trust\"                    ));  }\n\t\treturn (true, task.results);\n\t}\n\n\tfunction _iexecDoracleGetVerifiedResult(bytes32 _doracleCallId)\n\tinternal view returns (bytes memory)\n\t{\n\t\t(bool success, bytes memory results) = _iexecDoracleGetResults(_doracleCallId);\n\t\trequire(success, string(results));\n\t\treturn results;\n\t}\n}\n",
  "sourcePath": "iexec-doracle-base/contracts/IexecDoracle.sol",
  "compiler": {
    "name": "solc",
    "version": "0.5.8+commit.23d335f2.Emscripten.clang"
  },
  "schemaVersion": "3.0.11",
  "updatedAt": "2019-10-19T10:48:51.078Z",
  "devdoc": {
    "methods": {}
  },
  "userdoc": {
    "methods": {}
  }
}