{
  "contractName": "IexecODBLibOrders",
  "abi": [
    {
      "constant": true,
      "inputs": [],
      "name": "APPORDER_TYPEHASH",
      "outputs": [
        {
          "name": "",
          "type": "bytes32"
        }
      ],
      "payable": false,
      "stateMutability": "view",
      "type": "function"
    },
    {
      "constant": true,
      "inputs": [],
      "name": "WORKERPOOLORDER_TYPEHASH",
      "outputs": [
        {
          "name": "",
          "type": "bytes32"
        }
      ],
      "payable": false,
      "stateMutability": "view",
      "type": "function"
    },
    {
      "constant": true,
      "inputs": [],
      "name": "DATASETORDER_TYPEHASH",
      "outputs": [
        {
          "name": "",
          "type": "bytes32"
        }
      ],
      "payable": false,
      "stateMutability": "view",
      "type": "function"
    },
    {
      "constant": true,
      "inputs": [],
      "name": "REQUESTORDER_TYPEHASH",
      "outputs": [
        {
          "name": "",
          "type": "bytes32"
        }
      ],
      "payable": false,
      "stateMutability": "view",
      "type": "function"
    },
    {
      "constant": true,
      "inputs": [],
      "name": "EIP712DOMAIN_TYPEHASH",
      "outputs": [
        {
          "name": "",
          "type": "bytes32"
        }
      ],
      "payable": false,
      "stateMutability": "view",
      "type": "function"
    },
    {
      "constant": true,
      "inputs": [
        {
          "components": [
            {
              "name": "app",
              "type": "address"
            },
            {
              "name": "appprice",
              "type": "uint256"
            },
            {
              "name": "volume",
              "type": "uint256"
            },
            {
              "name": "tag",
              "type": "bytes32"
            },
            {
              "name": "datasetrestrict",
              "type": "address"
            },
            {
              "name": "workerpoolrestrict",
              "type": "address"
            },
            {
              "name": "requesterrestrict",
              "type": "address"
            },
            {
              "name": "salt",
              "type": "bytes32"
            },
            {
              "name": "sign",
              "type": "bytes"
            }
          ],
          "name": "_apporder",
          "type": "tuple"
        }
      ],
      "name": "hash",
      "outputs": [
        {
          "name": "apphash",
          "type": "bytes32"
        }
      ],
      "payable": false,
      "stateMutability": "pure",
      "type": "function"
    },
    {
      "constant": true,
      "inputs": [
        {
          "components": [
            {
              "name": "app",
              "type": "address"
            },
            {
              "name": "appmaxprice",
              "type": "uint256"
            },
            {
              "name": "dataset",
              "type": "address"
            },
            {
              "name": "datasetmaxprice",
              "type": "uint256"
            },
            {
              "name": "workerpool",
              "type": "address"
            },
            {
              "name": "workerpoolmaxprice",
              "type": "uint256"
            },
            {
              "name": "requester",
              "type": "address"
            },
            {
              "name": "volume",
              "type": "uint256"
            },
            {
              "name": "tag",
              "type": "bytes32"
            },
            {
              "name": "category",
              "type": "uint256"
            },
            {
              "name": "trust",
              "type": "uint256"
            },
            {
              "name": "beneficiary",
              "type": "address"
            },
            {
              "name": "callback",
              "type": "address"
            },
            {
              "name": "params",
              "type": "string"
            },
            {
              "name": "salt",
              "type": "bytes32"
            },
            {
              "name": "sign",
              "type": "bytes"
            }
          ],
          "name": "_requestorder",
          "type": "tuple"
        }
      ],
      "name": "hash",
      "outputs": [
        {
          "name": "requesthash",
          "type": "bytes32"
        }
      ],
      "payable": false,
      "stateMutability": "pure",
      "type": "function"
    },
    {
      "constant": true,
      "inputs": [
        {
          "components": [
            {
              "name": "dataset",
              "type": "address"
            },
            {
              "name": "datasetprice",
              "type": "uint256"
            },
            {
              "name": "volume",
              "type": "uint256"
            },
            {
              "name": "tag",
              "type": "bytes32"
            },
            {
              "name": "apprestrict",
              "type": "address"
            },
            {
              "name": "workerpoolrestrict",
              "type": "address"
            },
            {
              "name": "requesterrestrict",
              "type": "address"
            },
            {
              "name": "salt",
              "type": "bytes32"
            },
            {
              "name": "sign",
              "type": "bytes"
            }
          ],
          "name": "_datasetorder",
          "type": "tuple"
        }
      ],
      "name": "hash",
      "outputs": [
        {
          "name": "datasethash",
          "type": "bytes32"
        }
      ],
      "payable": false,
      "stateMutability": "pure",
      "type": "function"
    },
    {
      "constant": true,
      "inputs": [
        {
          "components": [
            {
              "name": "workerpool",
              "type": "address"
            },
            {
              "name": "workerpoolprice",
              "type": "uint256"
            },
            {
              "name": "volume",
              "type": "uint256"
            },
            {
              "name": "tag",
              "type": "bytes32"
            },
            {
              "name": "category",
              "type": "uint256"
            },
            {
              "name": "trust",
              "type": "uint256"
            },
            {
              "name": "apprestrict",
              "type": "address"
            },
            {
              "name": "datasetrestrict",
              "type": "address"
            },
            {
              "name": "requesterrestrict",
              "type": "address"
            },
            {
              "name": "salt",
              "type": "bytes32"
            },
            {
              "name": "sign",
              "type": "bytes"
            }
          ],
          "name": "_workerpoolorder",
          "type": "tuple"
        }
      ],
      "name": "hash",
      "outputs": [
        {
          "name": "workerpoolhash",
          "type": "bytes32"
        }
      ],
      "payable": false,
      "stateMutability": "pure",
      "type": "function"
    },
    {
      "constant": true,
      "inputs": [
        {
          "components": [
            {
              "name": "name",
              "type": "string"
            },
            {
              "name": "version",
              "type": "string"
            },
            {
              "name": "chainId",
              "type": "uint256"
            },
            {
              "name": "verifyingContract",
              "type": "address"
            }
          ],
          "name": "_domain",
          "type": "tuple"
        }
      ],
      "name": "hash",
      "outputs": [
        {
          "name": "domainhash",
          "type": "bytes32"
        }
      ],
      "payable": false,
      "stateMutability": "pure",
      "type": "function"
    },
    {
      "constant": true,
      "inputs": [
        {
          "name": "_structHash",
          "type": "bytes32"
        },
        {
          "name": "_domainHash",
          "type": "bytes32"
        }
      ],
      "name": "toEthTypedStructHash",
      "outputs": [
        {
          "name": "typedStructHash",
          "type": "bytes32"
        }
      ],
      "payable": false,
      "stateMutability": "pure",
      "type": "function"
    }
  ],
  "bytecode": "0x610f27610026600b82828239805160001a60731461001957fe5b30600052607381538281f3fe73000000000000000000000000000000000000000030146080604052600436106100b35760003560e01c806358b505861161007b57806358b505861461019657806365db1dbb146101c65780636f84d2da146101e45780639a6f72ee14610202578063c49f91d314610220578063eca34ccf1461023e576100b3565b806304951329146100b85780630813424e146100e8578063176eaa4914610118578063207dbbfe146101485780632bd4c73414610166575b600080fd5b6100d260048036036100cd9190810190610bbc565b61026e565b6040516100df9190610d9e565b60405180910390f35b61010260048036036100fd9190810190610c7f565b6102b9565b60405161010f9190610d9e565b60405180910390f35b610132600480360361012d9190810190610b80565b61032b565b60405161013f9190610d9e565b60405180910390f35b61015061035e565b60405161015d9190610d9e565b60405180910390f35b610180600480360361017b9190810190610bfd565b610385565b60405161018d9190610d9e565b60405180910390f35b6101b060048036036101ab9190810190610cc0565b6103d0565b6040516101bd9190610d9e565b60405180910390f35b6101ce61041b565b6040516101db9190610d9e565b60405180910390f35b6101ec610442565b6040516101f99190610d9e565b60405180910390f35b61020a610469565b6040516102179190610d9e565b60405180910390f35b610228610490565b6040516102359190610d9e565b60405180910390f35b61025860048036036102539190810190610c3e565b6104b7565b6040516102659190610d9e565b60405180910390f35b6000807f60815a0eeec47dddf1615fe53b31d016c31444e01b9d796db365443a6445d00860001b90506020830351816020850352610120602085032092508060208503525050919050565b6000807ff24e853034a3a450aba845a82914fbb564ad85accca6cf62be112a154520fae060001b90506000836101a0015180519060200120905060208403516101a0850151836020870352826101a087015261020060208703209450816020870352806101a087015250505050919050565b60008183604051602001610340929190610d67565b60405160208183030381529060405280519060200120905092915050565b7f60815a0eeec47dddf1615fe53b31d016c31444e01b9d796db365443a6445d00860001b81565b6000807f6cfc932a5a3d22c4359295b9f433edff52b60703fa47690a04a83e40933dd47c60001b90506020830351816020850352610120602085032092508060208503525050919050565b6000807faa3429fb281b34691803133d3d978a75bb77c617ed6bc9aa162b9b30920022bb60001b90506020830351816020850352610160602085032092508060208503525050919050565b7faa3429fb281b34691803133d3d978a75bb77c617ed6bc9aa162b9b30920022bb60001b81565b7f6cfc932a5a3d22c4359295b9f433edff52b60703fa47690a04a83e40933dd47c60001b81565b7ff24e853034a3a450aba845a82914fbb564ad85accca6cf62be112a154520fae060001b81565b7f8b73c3c69bb8fe3d512ecc4cf759cc79239f7b179b0ffacaa9a75d522b39400f60001b81565b6000807f8b73c3c69bb8fe3d512ecc4cf759cc79239f7b179b0ffacaa9a75d522b39400f60001b9050600083600001518051906020012090506000846020015180519060200120905060208503516000860151602087015185602089035284600089015283602089015260a060208903209650826020890352816000890152806020890152505050505050919050565b60008135905061055681610ea8565b92915050565b60008135905061056b81610ebf565b92915050565b600082601f83011261058257600080fd5b813561059561059082610de6565b610db9565b915080825260208301602083018583830111156105b157600080fd5b6105bc838284610e8f565b50505092915050565b600082601f8301126105d657600080fd5b81356105e96105e482610e12565b610db9565b9150808252602083016020830185838301111561060557600080fd5b610610838284610e8f565b50505092915050565b6000610120828403121561062c57600080fd5b610637610120610db9565b9050600061064784828501610547565b600083015250602061065b84828501610b6b565b602083015250604061066f84828501610b6b565b60408301525060606106838482850161055c565b606083015250608061069784828501610547565b60808301525060a06106ab84828501610547565b60a08301525060c06106bf84828501610547565b60c08301525060e06106d38482850161055c565b60e08301525061010082013567ffffffffffffffff8111156106f457600080fd5b61070084828501610571565b6101008301525092915050565b6000610120828403121561072057600080fd5b61072b610120610db9565b9050600061073b84828501610547565b600083015250602061074f84828501610b6b565b602083015250604061076384828501610b6b565b60408301525060606107778482850161055c565b606083015250608061078b84828501610547565b60808301525060a061079f84828501610547565b60a08301525060c06107b384828501610547565b60c08301525060e06107c78482850161055c565b60e08301525061010082013567ffffffffffffffff8111156107e857600080fd5b6107f484828501610571565b6101008301525092915050565b60006080828403121561081357600080fd5b61081d6080610db9565b9050600082013567ffffffffffffffff81111561083957600080fd5b610845848285016105c5565b600083015250602082013567ffffffffffffffff81111561086557600080fd5b610871848285016105c5565b602083015250604061088584828501610b6b565b604083015250606061089984828501610547565b60608301525092915050565b600061020082840312156108b857600080fd5b6108c3610200610db9565b905060006108d384828501610547565b60008301525060206108e784828501610b6b565b60208301525060406108fb84828501610547565b604083015250606061090f84828501610b6b565b606083015250608061092384828501610547565b60808301525060a061093784828501610b6b565b60a08301525060c061094b84828501610547565b60c08301525060e061095f84828501610b6b565b60e0830152506101006109748482850161055c565b6101008301525061012061098a84828501610b6b565b610120830152506101406109a084828501610b6b565b610140830152506101606109b684828501610547565b610160830152506101806109cc84828501610547565b610180830152506101a082013567ffffffffffffffff8111156109ee57600080fd5b6109fa848285016105c5565b6101a0830152506101c0610a108482850161055c565b6101c0830152506101e082013567ffffffffffffffff811115610a3257600080fd5b610a3e84828501610571565b6101e08301525092915050565b60006101608284031215610a5e57600080fd5b610a69610160610db9565b90506000610a7984828501610547565b6000830152506020610a8d84828501610b6b565b6020830152506040610aa184828501610b6b565b6040830152506060610ab58482850161055c565b6060830152506080610ac984828501610b6b565b60808301525060a0610add84828501610b6b565b60a08301525060c0610af184828501610547565b60c08301525060e0610b0584828501610547565b60e083015250610100610b1a84828501610547565b61010083015250610120610b308482850161055c565b6101208301525061014082013567ffffffffffffffff811115610b5257600080fd5b610b5e84828501610571565b6101408301525092915050565b600081359050610b7a81610ed6565b92915050565b60008060408385031215610b9357600080fd5b6000610ba18582860161055c565b9250506020610bb28582860161055c565b9150509250929050565b600060208284031215610bce57600080fd5b600082013567ffffffffffffffff811115610be857600080fd5b610bf484828501610619565b91505092915050565b600060208284031215610c0f57600080fd5b600082013567ffffffffffffffff811115610c2957600080fd5b610c358482850161070d565b91505092915050565b600060208284031215610c5057600080fd5b600082013567ffffffffffffffff811115610c6a57600080fd5b610c7684828501610801565b91505092915050565b600060208284031215610c9157600080fd5b600082013567ffffffffffffffff811115610cab57600080fd5b610cb7848285016108a5565b91505092915050565b600060208284031215610cd257600080fd5b600082013567ffffffffffffffff811115610cec57600080fd5b610cf884828501610a4b565b91505092915050565b610d0a81610e5b565b82525050565b610d21610d1c82610e5b565b610e9e565b82525050565b6000610d34600283610e3e565b91507f19010000000000000000000000000000000000000000000000000000000000006000830152600282019050919050565b6000610d7282610d27565b9150610d7e8285610d10565b602082019150610d8e8284610d10565b6020820191508190509392505050565b6000602082019050610db36000830184610d01565b92915050565b6000604051905081810181811067ffffffffffffffff82111715610ddc57600080fd5b8060405250919050565b600067ffffffffffffffff821115610dfd57600080fd5b601f19601f8301169050602081019050919050565b600067ffffffffffffffff821115610e2957600080fd5b601f19601f8301169050602081019050919050565b600081905092915050565b6000610e5482610e65565b9050919050565b6000819050919050565b600073ffffffffffffffffffffffffffffffffffffffff82169050919050565b6000819050919050565b82818337600083830152505050565b6000819050919050565b610eb181610e49565b8114610ebc57600080fd5b50565b610ec881610e5b565b8114610ed357600080fd5b50565b610edf81610e85565b8114610eea57600080fd5b5056fea265627a7a72305820b29190ce2a5a0f00ceb930c71819c4af43431c57fbd826f98d365cf85b39555e6c6578706572696d656e74616cf50037",
  "source": "pragma solidity ^0.5.8;\npragma experimental ABIEncoderV2;\n\nlibrary IexecODBLibOrders\n{\n\t// bytes32 public constant    EIP712DOMAIN_TYPEHASH = keccak256(\"EIP712Domain(string name,string version,uint256 chainId,address verifyingContract)\");\n\t// bytes32 public constant        APPORDER_TYPEHASH = keccak256(\"AppOrder(address app,uint256 appprice,uint256 volume,bytes32 tag,address datasetrestrict,address workerpoolrestrict,address requesterrestrict,bytes32 salt)\");\n\t// bytes32 public constant    DATASETORDER_TYPEHASH = keccak256(\"DatasetOrder(address dataset,uint256 datasetprice,uint256 volume,bytes32 tag,address apprestrict,address workerpoolrestrict,address requesterrestrict,bytes32 salt)\");\n\t// bytes32 public constant WORKERPOOLORDER_TYPEHASH = keccak256(\"WorkerpoolOrder(address workerpool,uint256 workerpoolprice,uint256 volume,bytes32 tag,uint256 category,uint256 trust,address apprestrict,address datasetrestrict,address requesterrestrict,bytes32 salt)\");\n\t// bytes32 public constant    REQUESTORDER_TYPEHASH = keccak256(\"RequestOrder(address app,uint256 appmaxprice,address dataset,uint256 datasetmaxprice,address workerpool,uint256 workerpoolmaxprice,address requester,uint256 volume,bytes32 tag,uint256 category,uint256 trust,address beneficiary,address callback,string params,bytes32 salt)\");\n\tbytes32 public constant    EIP712DOMAIN_TYPEHASH = 0x8b73c3c69bb8fe3d512ecc4cf759cc79239f7b179b0ffacaa9a75d522b39400f;\n\tbytes32 public constant        APPORDER_TYPEHASH = 0x60815a0eeec47dddf1615fe53b31d016c31444e01b9d796db365443a6445d008;\n\tbytes32 public constant    DATASETORDER_TYPEHASH = 0x6cfc932a5a3d22c4359295b9f433edff52b60703fa47690a04a83e40933dd47c;\n\tbytes32 public constant WORKERPOOLORDER_TYPEHASH = 0xaa3429fb281b34691803133d3d978a75bb77c617ed6bc9aa162b9b30920022bb;\n\tbytes32 public constant    REQUESTORDER_TYPEHASH = 0xf24e853034a3a450aba845a82914fbb564ad85accca6cf62be112a154520fae0;\n\n\tstruct EIP712Domain\n\t{\n\t\tstring  name;\n\t\tstring  version;\n\t\tuint256 chainId;\n\t\taddress verifyingContract;\n\t}\n\tstruct AppOrder\n\t{\n\t\taddress app;\n\t\tuint256 appprice;\n\t\tuint256 volume;\n\t\tbytes32 tag;\n\t\taddress datasetrestrict;\n\t\taddress workerpoolrestrict;\n\t\taddress requesterrestrict;\n\t\tbytes32 salt;\n\t\tbytes   sign;\n\t}\n\tstruct DatasetOrder\n\t{\n\t\taddress dataset;\n\t\tuint256 datasetprice;\n\t\tuint256 volume;\n\t\tbytes32 tag;\n\t\taddress apprestrict;\n\t\taddress workerpoolrestrict;\n\t\taddress requesterrestrict;\n\t\tbytes32 salt;\n\t\tbytes   sign;\n\t}\n\tstruct WorkerpoolOrder\n\t{\n\t\taddress workerpool;\n\t\tuint256 workerpoolprice;\n\t\tuint256 volume;\n\t\tbytes32 tag;\n\t\tuint256 category;\n\t\tuint256 trust;\n\t\taddress apprestrict;\n\t\taddress datasetrestrict;\n\t\taddress requesterrestrict;\n\t\tbytes32 salt;\n\t\tbytes   sign;\n\t}\n\tstruct RequestOrder\n\t{\n\t\taddress app;\n\t\tuint256 appmaxprice;\n\t\taddress dataset;\n\t\tuint256 datasetmaxprice;\n\t\taddress workerpool;\n\t\tuint256 workerpoolmaxprice;\n\t\taddress requester;\n\t\tuint256 volume;\n\t\tbytes32 tag;\n\t\tuint256 category;\n\t\tuint256 trust;\n\t\taddress beneficiary;\n\t\taddress callback;\n\t\tstring  params;\n\t\tbytes32 salt;\n\t\tbytes   sign;\n\t}\n\n\tfunction hash(EIP712Domain memory _domain)\n\tpublic pure returns (bytes32 domainhash)\n\t{\n\t\t/**\n\t\t * Readeable but expensive\n\t\t */\n\t\t// return keccak256(abi.encode(\n\t\t// \tEIP712DOMAIN_TYPEHASH\n\t\t// , keccak256(bytes(_domain.name))\n\t\t// , keccak256(bytes(_domain.version))\n\t\t// , _domain.chainId\n\t\t// , _domain.verifyingContract\n\t\t// ));\n\n\t\t// Compute sub-hashes\n\t\tbytes32 typeHash    = EIP712DOMAIN_TYPEHASH;\n\t\tbytes32 nameHash    = keccak256(bytes(_domain.name));\n\t\tbytes32 versionHash = keccak256(bytes(_domain.version));\n\t\tassembly {\n\t\t\t// Back up select memory\n\t\t\tlet temp1 := mload(sub(_domain, 0x20))\n\t\t\tlet temp2 := mload(add(_domain, 0x00))\n\t\t\tlet temp3 := mload(add(_domain, 0x20))\n\t\t\t// Write typeHash and sub-hashes\n\t\t\tmstore(sub(_domain, 0x20),    typeHash)\n\t\t\tmstore(add(_domain, 0x00),    nameHash)\n\t\t\tmstore(add(_domain, 0x20), versionHash)\n\t\t\t// Compute hash\n\t\t\tdomainhash := keccak256(sub(_domain, 0x20), 0xA0) // 160 = 32 + 128\n\t\t\t// Restore memory\n\t\t\tmstore(sub(_domain, 0x20), temp1)\n\t\t\tmstore(add(_domain, 0x00), temp2)\n\t\t\tmstore(add(_domain, 0x20), temp3)\n\t\t}\n\t}\n\tfunction hash(AppOrder memory _apporder)\n\tpublic pure returns (bytes32 apphash)\n\t{\n\t\t/**\n\t\t * Readeable but expensive\n\t\t */\n\t\t// return keccak256(abi.encode(\n\t\t// \tAPPORDER_TYPEHASH\n\t\t// , _apporder.app\n\t\t// , _apporder.appprice\n\t\t// , _apporder.volume\n\t\t// , _apporder.tag\n\t\t// , _apporder.datasetrestrict\n\t\t// , _apporder.workerpoolrestrict\n\t\t// , _apporder.requesterrestrict\n\t\t// , _apporder.salt\n\t\t// ));\n\n\t\t// Compute sub-hashes\n\t\tbytes32 typeHash = APPORDER_TYPEHASH;\n\t\tassembly {\n\t\t\t// Back up select memory\n\t\t\tlet temp1 := mload(sub(_apporder, 0x20))\n\t\t\t// Write typeHash and sub-hashes\n\t\t\tmstore(sub(_apporder, 0x20), typeHash)\n\t\t\t// Compute hash\n\t\t\tapphash := keccak256(sub(_apporder, 0x20), 0x120) // 288 = 32 + 256\n\t\t\t// Restore memory\n\t\t\tmstore(sub(_apporder, 0x20), temp1)\n\t\t}\n\t}\n\tfunction hash(DatasetOrder memory _datasetorder)\n\tpublic pure returns (bytes32 datasethash)\n\t{\n\t\t/**\n\t\t * Readeable but expensive\n\t\t */\n\t\t// return keccak256(abi.encode(\n\t\t// \tDATASETORDER_TYPEHASH\n\t\t// , _datasetorder.dataset\n\t\t// , _datasetorder.datasetprice\n\t\t// , _datasetorder.volume\n\t\t// , _datasetorder.tag\n\t\t// , _datasetorder.apprestrict\n\t\t// , _datasetorder.workerpoolrestrict\n\t\t// , _datasetorder.requesterrestrict\n\t\t// , _datasetorder.salt\n\t\t// ));\n\n\t\t// Compute sub-hashes\n\t\tbytes32 typeHash = DATASETORDER_TYPEHASH;\n\t\tassembly {\n\t\t\t// Back up select memory\n\t\t\tlet temp1 := mload(sub(_datasetorder, 0x20))\n\t\t\t// Write typeHash and sub-hashes\n\t\t\tmstore(sub(_datasetorder, 0x20), typeHash)\n\t\t\t// Compute hash\n\t\t\tdatasethash := keccak256(sub(_datasetorder, 0x20), 0x120) // 288 = 32 + 256\n\t\t\t// Restore memory\n\t\t\tmstore(sub(_datasetorder, 0x20), temp1)\n\t\t}\n\t}\n\tfunction hash(WorkerpoolOrder memory _workerpoolorder)\n\tpublic pure returns (bytes32 workerpoolhash)\n\t{\n\t\t/**\n\t\t * Readeable but expensive\n\t\t */\n\t\t// return keccak256(abi.encode(\n\t\t// \tWORKERPOOLORDER_TYPEHASH\n\t\t// , _workerpoolorder.workerpool\n\t\t// , _workerpoolorder.workerpoolprice\n\t\t// , _workerpoolorder.volume\n\t\t// , _workerpoolorder.tag\n\t\t// , _workerpoolorder.category\n\t\t// , _workerpoolorder.trust\n\t\t// , _workerpoolorder.apprestrict\n\t\t// , _workerpoolorder.datasetrestrict\n\t\t// , _workerpoolorder.requesterrestrict\n\t\t// , _workerpoolorder.salt\n\t\t// ));\n\n\t\t// Compute sub-hashes\n\t\tbytes32 typeHash = WORKERPOOLORDER_TYPEHASH;\n\t\tassembly {\n\t\t\t// Back up select memory\n\t\t\tlet temp1 := mload(sub(_workerpoolorder, 0x20))\n\t\t\t// Write typeHash and sub-hashes\n\t\t\tmstore(sub(_workerpoolorder, 0x20), typeHash)\n\t\t\t// Compute hash\n\t\t\tworkerpoolhash := keccak256(sub(_workerpoolorder, 0x20), 0x160) // 352 = 32 + 320\n\t\t\t// Restore memory\n\t\t\tmstore(sub(_workerpoolorder, 0x20), temp1)\n\t\t}\n\t}\n\tfunction hash(RequestOrder memory _requestorder)\n\tpublic pure returns (bytes32 requesthash)\n\t{\n\t\t/**\n\t\t * Readeable but expensive\n\t\t */\n\t\t//return keccak256(abi.encodePacked(\n\t\t//\tabi.encode(\n\t\t//\t\tREQUESTORDER_TYPEHASH\n\t\t//\t, _requestorder.app\n\t\t//\t, _requestorder.appmaxprice\n\t\t//\t, _requestorder.dataset\n\t\t//\t, _requestorder.datasetmaxprice\n\t\t//\t, _requestorder.workerpool\n\t\t//\t, _requestorder.workerpoolmaxprice\n\t\t//\t, _requestorder.requester\n\t\t//\t, _requestorder.volume\n\t\t//\t, _requestorder.tag\n\t\t//\t, _requestorder.category\n\t\t//\t, _requestorder.trust\n\t\t//\t, _requestorder.beneficiary\n\t\t//\t, _requestorder.callback\n\t\t//\t, keccak256(bytes(_requestorder.params))\n\t\t//\t, _requestorder.salt\n\t\t//\t)\n\t\t//));\n\n\t\t// Compute sub-hashes\n\t\tbytes32 typeHash = REQUESTORDER_TYPEHASH;\n\t\tbytes32 paramsHash = keccak256(bytes(_requestorder.params));\n\t\tassembly {\n\t\t\t// Back up select memory\n\t\t\tlet temp1 := mload(sub(_requestorder, 0x020))\n\t\t\tlet temp2 := mload(add(_requestorder, 0x1A0))\n\t\t\t// Write typeHash and sub-hashes\n\t\t\tmstore(sub(_requestorder, 0x020), typeHash)\n\t\t\tmstore(add(_requestorder, 0x1A0), paramsHash)\n\t\t\t// Compute hash\n\t\t\trequesthash := keccak256(sub(_requestorder, 0x20), 0x200) // 512 = 32 + 480\n\t\t\t// Restore memory\n\t\t\tmstore(sub(_requestorder, 0x020), temp1)\n\t\t\tmstore(add(_requestorder, 0x1A0), temp2)\n\t\t}\n\t}\n\n\tfunction toEthTypedStructHash(bytes32 _structHash, bytes32 _domainHash)\n\tpublic pure returns (bytes32 typedStructHash)\n\t{\n\t\treturn keccak256(abi.encodePacked(\"\\x19\\x01\", _domainHash, _structHash));\n\t}\n}\n",
  "sourcePath": "iexec-poco/contracts/libs/IexecODBLibOrders.sol",
  "compiler": {
    "name": "solc",
    "version": "0.5.8+commit.23d335f2.Emscripten.clang"
  },
  "schemaVersion": "3.0.11",
  "updatedAt": "2019-10-19T10:48:51.132Z",
  "devdoc": {
    "methods": {}
  },
  "userdoc": {
    "methods": {}
  }
}