{
  "contractName": "IexecInterface",
  "abi": [
    {
      "constant": true,
      "inputs": [],
      "name": "iexecClerk",
      "outputs": [
        {
          "name": "",
          "type": "address"
        }
      ],
      "payable": false,
      "stateMutability": "view",
      "type": "function"
    },
    {
      "constant": true,
      "inputs": [],
      "name": "iexecHub",
      "outputs": [
        {
          "name": "",
          "type": "address"
        }
      ],
      "payable": false,
      "stateMutability": "view",
      "type": "function"
    },
    {
      "inputs": [
        {
          "name": "_iexecHubAddr",
          "type": "address"
        }
      ],
      "payable": false,
      "stateMutability": "nonpayable",
      "type": "constructor"
    }
  ],
  "bytecode": "0x608060405234801561001057600080fd5b506040516020806106c2833981018060405261002f9190810190610418565b6000610040826103f860201b60201c565b111561008b57806000806101000a81548173ffffffffffffffffffffffffffffffffffffffff021916908373ffffffffffffffffffffffffffffffffffffffff160217905550610313565b60006100b0731383c16c927c4a853684d1a9c676986f25e221116103f860201b60201c565b111561010f57731383c16c927c4a853684d1a9c676986f25e221116000806101000a81548173ffffffffffffffffffffffffffffffffffffffff021916908373ffffffffffffffffffffffffffffffffffffffff160217905550610312565b600061013473dbe30645ea7d216c31d09f8c5736fe74de774e636103f860201b60201c565b11156101935773dbe30645ea7d216c31d09f8c5736fe74de774e636000806101000a81548173ffffffffffffffffffffffffffffffffffffffff021916908373ffffffffffffffffffffffffffffffffffffffff160217905550610311565b60006101a560006103f860201b60201c565b11156101f15760008060006101000a81548173ffffffffffffffffffffffffffffffffffffffff021916908373ffffffffffffffffffffffffffffffffffffffff160217905550610310565b600061021673b3901d04cf645747b99dbbe8f2ee9cb41a89cebf6103f860201b60201c565b11156102755773b3901d04cf645747b99dbbe8f2ee9cb41a89cebf6000806101000a81548173ffffffffffffffffffffffffffffffffffffffff021916908373ffffffffffffffffffffffffffffffffffffffff16021790555061030f565b600061028760006103f860201b60201c565b11156102d35760008060006101000a81548173ffffffffffffffffffffffffffffffffffffffff021916908373ffffffffffffffffffffffffffffffffffffffff16021790555061030e565b6040517f08c379a000000000000000000000000000000000000000000000000000000000815260040161030590610481565b60405180910390fd5b5b5b5b5b5b6000809054906101000a900473ffffffffffffffffffffffffffffffffffffffff1673ffffffffffffffffffffffffffffffffffffffff1663b01c68466040518163ffffffff1660e01b815260040160206040518083038186803b15801561037a57600080fd5b505afa15801561038e573d6000803e3d6000fd5b505050506040513d601f19601f820116820180604052506103b29190810190610418565b600160006101000a81548173ffffffffffffffffffffffffffffffffffffffff021916908373ffffffffffffffffffffffffffffffffffffffff160217905550506104fb565b6000813b9050919050565b600081519050610412816104e4565b92915050565b60006020828403121561042a57600080fd5b600061043884828501610403565b91505092915050565b600061044e6013836104a1565b91507f696e76616c69642d6875622d61646472657373000000000000000000000000006000830152602082019050919050565b6000602082019050818103600083015261049a81610441565b9050919050565b600082825260208201905092915050565b60006104bd826104c4565b9050919050565b600073ffffffffffffffffffffffffffffffffffffffff82169050919050565b6104ed816104b2565b81146104f857600080fd5b50565b6101b88061050a6000396000f3fe608060405234801561001057600080fd5b50600436106100365760003560e01c80631ce3aa0d1461003b578063a41f45e914610059575b600080fd5b610043610077565b60405161005091906100e0565b60405180910390f35b61006161009d565b60405161006e91906100fb565b60405180910390f35b600160009054906101000a900473ffffffffffffffffffffffffffffffffffffffff1681565b6000809054906101000a900473ffffffffffffffffffffffffffffffffffffffff1681565b6100cb81610136565b82525050565b6100da8161015a565b82525050565b60006020820190506100f560008301846100c2565b92915050565b600060208201905061011060008301846100d1565b92915050565b600073ffffffffffffffffffffffffffffffffffffffff82169050919050565b600061014182610148565b9050919050565b600061015382610116565b9050919050565b60006101658261016c565b9050919050565b600061017782610116565b905091905056fea265627a7a72305820bca5d0c8e0c96cb8d1d8a7cbb9c50740772a34b01745c934f6d683fbb08dc44a6c6578706572696d656e74616cf50037",
  "source": "pragma solidity ^0.5.8;\npragma experimental ABIEncoderV2;\n\nimport \"./iexec-poco-interfaces/IexecHubInterface.sol\";\nimport \"./iexec-poco-interfaces/IexecClerkInterface.sol\";\n\n\ncontract IexecInterface\n{\n\taddress constant IEXEC_HUB_MAINNET = 0x1383c16c927c4A853684d1a9c676986f25E22111;\n\taddress constant IEXEC_HUB_ROPSTEN = 0xDbe30645EA7d216c31D09f8c5736FE74de774e63;\n\taddress constant IEXEC_HUB_RINKEBY = 0x0000000000000000000000000000000000000000;\n\taddress constant IEXEC_HUB_KOVAN   = 0xb3901d04CF645747b99DBbe8f2eE9cb41A89CeBF;\n\taddress constant IEXEC_HUB_GOERLI  = 0x0000000000000000000000000000000000000000;\n\n\tIexecHubInterface   public iexecHub;\n\tIexecClerkInterface public iexecClerk;\n\n\tconstructor(address _iexecHubAddr)\n\tpublic\n\t{\n\t\tif      (getCodeSize(_iexecHubAddr    ) > 0) { iexecHub = IexecHubInterface(_iexecHubAddr    ); }\n\t\telse if (getCodeSize(IEXEC_HUB_MAINNET) > 0) { iexecHub = IexecHubInterface(IEXEC_HUB_MAINNET); }\n\t\telse if (getCodeSize(IEXEC_HUB_ROPSTEN) > 0) { iexecHub = IexecHubInterface(IEXEC_HUB_ROPSTEN); }\n\t\telse if (getCodeSize(IEXEC_HUB_RINKEBY) > 0) { iexecHub = IexecHubInterface(IEXEC_HUB_RINKEBY); }\n\t\telse if (getCodeSize(IEXEC_HUB_KOVAN  ) > 0) { iexecHub = IexecHubInterface(IEXEC_HUB_KOVAN  ); }\n\t\telse if (getCodeSize(IEXEC_HUB_GOERLI ) > 0) { iexecHub = IexecHubInterface(IEXEC_HUB_GOERLI ); }\n\t\telse                                         { revert(\"invalid-hub-address\");                   }\n\t\tiexecClerk = IexecClerkInterface(iexecHub.iexecclerk());\n\t}\n\n\tfunction getCodeSize(address _addr)\n\tinternal view returns (uint _size)\n\t{\n\t\tassembly { _size := extcodesize(_addr) }\n\t}\n}\n",
  "sourcePath": "iexec-doracle-base/contracts/IexecInterface.sol",
  "compiler": {
    "name": "solc",
    "version": "0.5.8+commit.23d335f2.Emscripten.clang"
  },
  "schemaVersion": "3.0.11",
  "updatedAt": "2019-10-19T10:48:51.084Z",
  "devdoc": {
    "methods": {}
  },
  "userdoc": {
    "methods": {}
  }
}