{
  "contractName": "SignatureVerifier",
  "abi": [
    {
      "constant": true,
      "inputs": [
        {
          "name": "_identity",
          "type": "address"
        },
        {
          "name": "_hash",
          "type": "bytes32"
        },
        {
          "name": "_signature",
          "type": "bytes"
        }
      ],
      "name": "verifySignature",
      "outputs": [
        {
          "name": "",
          "type": "bool"
        }
      ],
      "payable": false,
      "stateMutability": "view",
      "type": "function"
    }
  ],
  "bytecode": "0x608060405234801561001057600080fd5b506105b6806100206000396000f3fe608060405234801561001057600080fd5b506004361061002b5760003560e01c80630175199814610030575b600080fd5b61004a60048036036100459190810190610294565b610060565b604051610057919061038a565b60405180910390f35b600061006d848484610108565b806100ff57508373ffffffffffffffffffffffffffffffffffffffff16631626ba7e84846040518363ffffffff1660e01b81526004016100ae9291906103a5565b60206040518083038186803b1580156100c657600080fd5b505afa1580156100da573d6000803e3d6000fd5b505050506040513d601f19601f820116820180604052506100fe91908101906102fb565b5b90509392505050565b600080600080604185511461012357600093505050506101fa565b6020850151925060408501519150606085015160001a9050601b8160ff16101561014e57601b810190505b601b8160ff16141580156101665750601c8160ff1614155b1561017757600093505050506101fa565b6001868285856040516000815260200160405260405161019a94939291906103d5565b6020604051602081039080840390855afa1580156101bc573d6000803e3d6000fd5b5050506020604051035173ffffffffffffffffffffffffffffffffffffffff168773ffffffffffffffffffffffffffffffffffffffff161493505050505b9392505050565b60008135905061021081610537565b92915050565b6000815190506102258161054e565b92915050565b60008135905061023a81610565565b92915050565b600082601f83011261025157600080fd5b813561026461025f82610447565b61041a565b9150808252602083016020830185838301111561028057600080fd5b61028b8382846104e4565b50505092915050565b6000806000606084860312156102a957600080fd5b60006102b786828701610201565b93505060206102c88682870161022b565b925050604084013567ffffffffffffffff8111156102e557600080fd5b6102f186828701610240565b9150509250925092565b60006020828403121561030d57600080fd5b600061031b84828501610216565b91505092915050565b61032d816104a1565b82525050565b61033c816104ad565b82525050565b600061034d82610473565b610357818561047e565b93506103678185602086016104f3565b61037081610526565b840191505092915050565b610384816104d7565b82525050565b600060208201905061039f6000830184610324565b92915050565b60006040820190506103ba6000830185610333565b81810360208301526103cc8184610342565b90509392505050565b60006080820190506103ea6000830187610333565b6103f7602083018661037b565b6104046040830185610333565b6104116060830184610333565b95945050505050565b6000604051905081810181811067ffffffffffffffff8211171561043d57600080fd5b8060405250919050565b600067ffffffffffffffff82111561045e57600080fd5b601f19601f8301169050602081019050919050565b600081519050919050565b600082825260208201905092915050565b600061049a826104b7565b9050919050565b60008115159050919050565b6000819050919050565b600073ffffffffffffffffffffffffffffffffffffffff82169050919050565b600060ff82169050919050565b82818337600083830152505050565b60005b838110156105115780820151818401526020810190506104f6565b83811115610520576000848401525b50505050565b6000601f19601f8301169050919050565b6105408161048f565b811461054b57600080fd5b50565b610557816104a1565b811461056257600080fd5b50565b61056e816104ad565b811461057957600080fd5b5056fea265627a7a723058203285bd2fb5478c48774ccfc2642acfc3bfe29250131bbc20914170e3f231d7766c6578706572696d656e74616cf50037",
  "source": "pragma solidity ^0.5.8;\npragma experimental ABIEncoderV2;\n\nimport \"iexec-solidity/contracts/ERC734_KeyManager/IERC734.sol\";\nimport \"iexec-solidity/contracts/ERC1271/IERC1271.sol\";\n\ncontract SignatureVerifier\n{\n\tfunction addrToKey(address _addr)\n\tinternal pure returns (bytes32)\n\t{\n\t\treturn bytes32(uint256(_addr));\n\t}\n\n\tfunction checkIdentity(address _identity, address _candidate, uint256 _purpose)\n\tinternal view returns (bool valid)\n\t{\n\t\treturn _identity == _candidate || IERC734(_identity).keyHasPurpose(addrToKey(_candidate), _purpose); // Simple address || ERC 734 identity contract\n\t}\n\n\t// internal ?\n\tfunction verifySignature(\n\t\taddress      _identity,\n\t\tbytes32      _hash,\n\t\tbytes memory _signature)\n\tpublic view returns (bool)\n\t{\n\t\treturn recoverCheck(_identity, _hash, _signature) || IERC1271(_identity).isValidSignature(_hash, _signature);\n\t}\n\n\t// recoverCheck does not revert if signature has invalid format\n\tfunction recoverCheck(address candidate, bytes32 hash, bytes memory sign)\n\tinternal pure returns (bool)\n\t{\n\t\tbytes32 r;\n\t\tbytes32 s;\n\t\tuint8   v;\n\t\tif (sign.length != 65) return false;\n\t\tassembly\n\t\t{\n\t\t\tr :=         mload(add(sign, 0x20))\n\t\t\ts :=         mload(add(sign, 0x40))\n\t\t\tv := byte(0, mload(add(sign, 0x60)))\n\t\t}\n\t\tif (v < 27) v += 27;\n\t\tif (v != 27 && v != 28) return false;\n\t\treturn candidate == ecrecover(hash, v, r, s);\n\t}\n\n\tfunction toEthSignedMessageHash(bytes32 hash)\n\tinternal pure returns (bytes32)\n\t{\n\t\treturn keccak256(abi.encodePacked(\"\\x19Ethereum Signed Message:\\n32\", hash));\n\t}\n}\n",
  "sourcePath": "iexec-poco/contracts/SignatureVerifier.sol",
  "compiler": {
    "name": "solc",
    "version": "0.5.8+commit.23d335f2.Emscripten.clang"
  },
  "schemaVersion": "3.0.11",
  "updatedAt": "2019-10-19T10:48:51.108Z",
  "devdoc": {
    "methods": {}
  },
  "userdoc": {
    "methods": {}
  }
}